{
  "_format": "hh-sol-artifact-1",
  "contractName": "Pokemon",
  "sourceName": "contracts/Pokemon.sol",
  "abi": [
    {
      "inputs": [
        {
          "internalType": "string",
          "name": "name",
          "type": "string"
        },
        {
          "internalType": "string",
          "name": "symbol",
          "type": "string"
        },
        {
          "internalType": "uint256",
          "name": "_attackCooldown",
          "type": "uint256"
        }
      ],
      "stateMutability": "nonpayable",
      "type": "constructor"
    },
    {
      "anonymous": false,
      "inputs": [
        {
          "indexed": true,
          "internalType": "address",
          "name": "owner",
          "type": "address"
        },
        {
          "indexed": true,
          "internalType": "address",
          "name": "approved",
          "type": "address"
        },
        {
          "indexed": true,
          "internalType": "uint256",
          "name": "tokenId",
          "type": "uint256"
        }
      ],
      "name": "Approval",
      "type": "event"
    },
    {
      "anonymous": false,
      "inputs": [
        {
          "indexed": true,
          "internalType": "address",
          "name": "owner",
          "type": "address"
        },
        {
          "indexed": true,
          "internalType": "address",
          "name": "operator",
          "type": "address"
        },
        {
          "indexed": false,
          "internalType": "bool",
          "name": "approved",
          "type": "bool"
        }
      ],
      "name": "ApprovalForAll",
      "type": "event"
    },
    {
      "anonymous": false,
      "inputs": [
        {
          "indexed": false,
          "internalType": "uint256",
          "name": "versusId",
          "type": "uint256"
        },
        {
          "indexed": false,
          "internalType": "uint8",
          "name": "dmg",
          "type": "uint8"
        },
        {
          "indexed": false,
          "internalType": "uint16",
          "name": "versusRemainingLP",
          "type": "uint16"
        }
      ],
      "name": "AttackSuccess",
      "type": "event"
    },
    {
      "anonymous": false,
      "inputs": [
        {
          "indexed": false,
          "internalType": "uint256",
          "name": "versusId",
          "type": "uint256"
        }
      ],
      "name": "BattleBegin",
      "type": "event"
    },
    {
      "anonymous": false,
      "inputs": [
        {
          "indexed": false,
          "internalType": "uint256",
          "name": "versusId",
          "type": "uint256"
        },
        {
          "indexed": false,
          "internalType": "uint8",
          "name": "newLevel",
          "type": "uint8"
        }
      ],
      "name": "BattleWin",
      "type": "event"
    },
    {
      "anonymous": false,
      "inputs": [
        {
          "indexed": true,
          "internalType": "address",
          "name": "previousOwner",
          "type": "address"
        },
        {
          "indexed": true,
          "internalType": "address",
          "name": "newOwner",
          "type": "address"
        }
      ],
      "name": "OwnershipTransferred",
      "type": "event"
    },
    {
      "anonymous": false,
      "inputs": [
        {
          "indexed": true,
          "internalType": "address",
          "name": "from",
          "type": "address"
        },
        {
          "indexed": true,
          "internalType": "address",
          "name": "to",
          "type": "address"
        },
        {
          "indexed": true,
          "internalType": "uint256",
          "name": "tokenId",
          "type": "uint256"
        }
      ],
      "name": "Transfer",
      "type": "event"
    },
    {
      "inputs": [
        {
          "internalType": "address",
          "name": "to",
          "type": "address"
        },
        {
          "internalType": "uint256",
          "name": "tokenId",
          "type": "uint256"
        }
      ],
      "name": "approve",
      "outputs": [],
      "stateMutability": "nonpayable",
      "type": "function"
    },
    {
      "inputs": [
        {
          "internalType": "uint256",
          "name": "_id",
          "type": "uint256"
        },
        {
          "internalType": "uint8",
          "name": "_choice",
          "type": "uint8"
        }
      ],
      "name": "attack",
      "outputs": [],
      "stateMutability": "nonpayable",
      "type": "function"
    },
    {
      "inputs": [
        {
          "internalType": "address",
          "name": "owner",
          "type": "address"
        }
      ],
      "name": "balanceOf",
      "outputs": [
        {
          "internalType": "uint256",
          "name": "",
          "type": "uint256"
        }
      ],
      "stateMutability": "view",
      "type": "function"
    },
    {
      "inputs": [
        {
          "internalType": "uint256",
          "name": "tokenId",
          "type": "uint256"
        }
      ],
      "name": "getApproved",
      "outputs": [
        {
          "internalType": "address",
          "name": "",
          "type": "address"
        }
      ],
      "stateMutability": "view",
      "type": "function"
    },
    {
      "inputs": [
        {
          "internalType": "address",
          "name": "_owner",
          "type": "address"
        }
      ],
      "name": "getTokenIds",
      "outputs": [
        {
          "internalType": "uint256[]",
          "name": "",
          "type": "uint256[]"
        }
      ],
      "stateMutability": "view",
      "type": "function"
    },
    {
      "inputs": [
        {
          "internalType": "address",
          "name": "owner",
          "type": "address"
        },
        {
          "internalType": "address",
          "name": "operator",
          "type": "address"
        }
      ],
      "name": "isApprovedForAll",
      "outputs": [
        {
          "internalType": "bool",
          "name": "",
          "type": "bool"
        }
      ],
      "stateMutability": "view",
      "type": "function"
    },
    {
      "inputs": [
        {
          "internalType": "string",
          "name": "_name",
          "type": "string"
        }
      ],
      "name": "mint",
      "outputs": [],
      "stateMutability": "nonpayable",
      "type": "function"
    },
    {
      "inputs": [],
      "name": "name",
      "outputs": [
        {
          "internalType": "string",
          "name": "",
          "type": "string"
        }
      ],
      "stateMutability": "view",
      "type": "function"
    },
    {
      "inputs": [],
      "name": "owner",
      "outputs": [
        {
          "internalType": "address",
          "name": "",
          "type": "address"
        }
      ],
      "stateMutability": "view",
      "type": "function"
    },
    {
      "inputs": [
        {
          "internalType": "uint256",
          "name": "tokenId",
          "type": "uint256"
        }
      ],
      "name": "ownerOf",
      "outputs": [
        {
          "internalType": "address",
          "name": "",
          "type": "address"
        }
      ],
      "stateMutability": "view",
      "type": "function"
    },
    {
      "inputs": [
        {
          "internalType": "uint256",
          "name": "",
          "type": "uint256"
        }
      ],
      "name": "pokemonStats",
      "outputs": [
        {
          "internalType": "string",
          "name": "name",
          "type": "string"
        },
        {
          "internalType": "uint8",
          "name": "level",
          "type": "uint8"
        },
        {
          "internalType": "uint16",
          "name": "maxLifePoint",
          "type": "uint16"
        },
        {
          "internalType": "bool",
          "name": "isFighting",
          "type": "bool"
        },
        {
          "internalType": "uint256",
          "name": "versusId",
          "type": "uint256"
        },
        {
          "internalType": "uint16",
          "name": "lifePoint",
          "type": "uint16"
        },
        {
          "internalType": "bool",
          "name": "cooldown",
          "type": "bool"
        },
        {
          "internalType": "uint256",
          "name": "lastAttack",
          "type": "uint256"
        }
      ],
      "stateMutability": "view",
      "type": "function"
    },
    {
      "inputs": [],
      "name": "renounceOwnership",
      "outputs": [],
      "stateMutability": "nonpayable",
      "type": "function"
    },
    {
      "inputs": [
        {
          "internalType": "address",
          "name": "from",
          "type": "address"
        },
        {
          "internalType": "address",
          "name": "to",
          "type": "address"
        },
        {
          "internalType": "uint256",
          "name": "tokenId",
          "type": "uint256"
        }
      ],
      "name": "safeTransferFrom",
      "outputs": [],
      "stateMutability": "nonpayable",
      "type": "function"
    },
    {
      "inputs": [
        {
          "internalType": "address",
          "name": "from",
          "type": "address"
        },
        {
          "internalType": "address",
          "name": "to",
          "type": "address"
        },
        {
          "internalType": "uint256",
          "name": "tokenId",
          "type": "uint256"
        },
        {
          "internalType": "bytes",
          "name": "data",
          "type": "bytes"
        }
      ],
      "name": "safeTransferFrom",
      "outputs": [],
      "stateMutability": "nonpayable",
      "type": "function"
    },
    {
      "inputs": [
        {
          "internalType": "address",
          "name": "operator",
          "type": "address"
        },
        {
          "internalType": "bool",
          "name": "approved",
          "type": "bool"
        }
      ],
      "name": "setApprovalForAll",
      "outputs": [],
      "stateMutability": "nonpayable",
      "type": "function"
    },
    {
      "inputs": [
        {
          "internalType": "string",
          "name": "_newBaseURI",
          "type": "string"
        }
      ],
      "name": "setBaseURI",
      "outputs": [],
      "stateMutability": "nonpayable",
      "type": "function"
    },
    {
      "inputs": [
        {
          "internalType": "uint256",
          "name": "_id",
          "type": "uint256"
        },
        {
          "internalType": "uint256",
          "name": "_versusId",
          "type": "uint256"
        }
      ],
      "name": "startBattle",
      "outputs": [],
      "stateMutability": "nonpayable",
      "type": "function"
    },
    {
      "inputs": [
        {
          "internalType": "bytes4",
          "name": "interfaceId",
          "type": "bytes4"
        }
      ],
      "name": "supportsInterface",
      "outputs": [
        {
          "internalType": "bool",
          "name": "",
          "type": "bool"
        }
      ],
      "stateMutability": "view",
      "type": "function"
    },
    {
      "inputs": [],
      "name": "symbol",
      "outputs": [
        {
          "internalType": "string",
          "name": "",
          "type": "string"
        }
      ],
      "stateMutability": "view",
      "type": "function"
    },
    {
      "inputs": [
        {
          "internalType": "uint256",
          "name": "index",
          "type": "uint256"
        }
      ],
      "name": "tokenByIndex",
      "outputs": [
        {
          "internalType": "uint256",
          "name": "",
          "type": "uint256"
        }
      ],
      "stateMutability": "view",
      "type": "function"
    },
    {
      "inputs": [
        {
          "internalType": "address",
          "name": "owner",
          "type": "address"
        },
        {
          "internalType": "uint256",
          "name": "index",
          "type": "uint256"
        }
      ],
      "name": "tokenOfOwnerByIndex",
      "outputs": [
        {
          "internalType": "uint256",
          "name": "",
          "type": "uint256"
        }
      ],
      "stateMutability": "view",
      "type": "function"
    },
    {
      "inputs": [
        {
          "internalType": "uint256",
          "name": "tokenId",
          "type": "uint256"
        }
      ],
      "name": "tokenURI",
      "outputs": [
        {
          "internalType": "string",
          "name": "",
          "type": "string"
        }
      ],
      "stateMutability": "view",
      "type": "function"
    },
    {
      "inputs": [],
      "name": "totalSupply",
      "outputs": [
        {
          "internalType": "uint256",
          "name": "",
          "type": "uint256"
        }
      ],
      "stateMutability": "view",
      "type": "function"
    },
    {
      "inputs": [
        {
          "internalType": "address",
          "name": "from",
          "type": "address"
        },
        {
          "internalType": "address",
          "name": "to",
          "type": "address"
        },
        {
          "internalType": "uint256",
          "name": "tokenId",
          "type": "uint256"
        }
      ],
      "name": "transferFrom",
      "outputs": [],
      "stateMutability": "nonpayable",
      "type": "function"
    },
    {
      "inputs": [
        {
          "internalType": "address",
          "name": "newOwner",
          "type": "address"
        }
      ],
      "name": "transferOwnership",
      "outputs": [],
      "stateMutability": "nonpayable",
      "type": "function"
    }
  ],
  "bytecode": "0x60806040523480156200001157600080fd5b5060405162004f9038038062004f908339818101604052810190620000379190620002b5565b82828160009080519060200190620000519291906200017c565b5080600190805190602001906200006a9291906200017c565b5050506200008d62000081620000ae60201b60201c565b620000b660201b60201c565b6200009e33620000b660201b60201c565b80600c81905550505050620004d1565b600033905090565b6000600a60009054906101000a900473ffffffffffffffffffffffffffffffffffffffff16905081600a60006101000a81548173ffffffffffffffffffffffffffffffffffffffff021916908373ffffffffffffffffffffffffffffffffffffffff1602179055508173ffffffffffffffffffffffffffffffffffffffff168173ffffffffffffffffffffffffffffffffffffffff167f8be0079c531659141344cd1fd0a4f28419497f9722a3daafe3b4186f6b6457e060405160405180910390a35050565b8280546200018a90620003dc565b90600052602060002090601f016020900481019282620001ae5760008555620001fa565b82601f10620001c957805160ff1916838001178555620001fa565b82800160010185558215620001fa579182015b82811115620001f9578251825591602001919060010190620001dc565b5b5090506200020991906200020d565b5090565b5b80821115620002285760008160009055506001016200020e565b5090565b6000620002436200023d8462000366565b6200033d565b9050828152602081018484840111156200025c57600080fd5b62000269848285620003a6565b509392505050565b600082601f8301126200028357600080fd5b8151620002958482602086016200022c565b91505092915050565b600081519050620002af81620004b7565b92915050565b600080600060608486031215620002cb57600080fd5b600084015167ffffffffffffffff811115620002e657600080fd5b620002f48682870162000271565b935050602084015167ffffffffffffffff8111156200031257600080fd5b620003208682870162000271565b925050604062000333868287016200029e565b9150509250925092565b6000620003496200035c565b905062000357828262000412565b919050565b6000604051905090565b600067ffffffffffffffff82111562000384576200038362000477565b5b6200038f82620004a6565b9050602081019050919050565b6000819050919050565b60005b83811015620003c6578082015181840152602081019050620003a9565b83811115620003d6576000848401525b50505050565b60006002820490506001821680620003f557607f821691505b602082108114156200040c576200040b62000448565b5b50919050565b6200041d82620004a6565b810181811067ffffffffffffffff821117156200043f576200043e62000477565b5b80604052505050565b7f4e487b7100000000000000000000000000000000000000000000000000000000600052602260045260246000fd5b7f4e487b7100000000000000000000000000000000000000000000000000000000600052604160045260246000fd5b6000601f19601f8301169050919050565b620004c2816200039c565b8114620004ce57600080fd5b50565b614aaf80620004e16000396000f3fe608060405234801561001057600080fd5b50600436106101735760003560e01c80636352211e116100de578063a22cb46511610097578063d004b03611610071578063d004b03614610461578063d85d3d2714610491578063e985e9c5146104ad578063f2fde38b146104dd57610173565b8063a22cb465146103f9578063b88d4fde14610415578063c87b56dd1461043157610173565b80636352211e1461033757806370a0823114610367578063715018a6146103975780638da5cb5b146103a157806395d89b41146103bf5780639f3aa7f2146103dd57610173565b80632f745c59116101305780632f745c591461024c5780633950aebc1461027c5780633daa6ba9146102b357806342842e0e146102cf5780634f6ccce7146102eb57806355f804b31461031b57610173565b806301ffc9a71461017857806306fdde03146101a8578063081812fc146101c6578063095ea7b3146101f657806318160ddd1461021257806323b872dd14610230575b600080fd5b610192600480360381019061018d9190613398565b6104f9565b60405161019f9190613abe565b60405180910390f35b6101b0610573565b6040516101bd9190613ad9565b60405180910390f35b6101e060048036038101906101db919061342b565b610605565b6040516101ed9190613a35565b60405180910390f35b610210600480360381019061020b919061335c565b61064b565b005b61021a610763565b6040516102279190613ea0565b60405180910390f35b61024a60048036038101906102459190613256565b610770565b005b6102666004803603810190610261919061335c565b6107d0565b6040516102739190613ea0565b60405180910390f35b6102966004803603810190610291919061342b565b610875565b6040516102aa989796959493929190613afb565b60405180910390f35b6102cd60048036038101906102c89190613454565b610988565b005b6102e960048036038101906102e49190613256565b610d0f565b005b6103056004803603810190610300919061342b565b610d2f565b6040516103129190613ea0565b60405180910390f35b610335600480360381019061033091906133ea565b610dc6565b005b610351600480360381019061034c919061342b565b610de8565b60405161035e9190613a35565b60405180910390f35b610381600480360381019061037c91906131f1565b610e9a565b60405161038e9190613ea0565b60405180910390f35b61039f610f52565b005b6103a9610f66565b6040516103b69190613a35565b60405180910390f35b6103c7610f90565b6040516103d49190613ad9565b60405180910390f35b6103f760048036038101906103f29190613490565b611022565b005b610413600480360381019061040e9190613320565b61171b565b005b61042f600480360381019061042a91906132a5565b611731565b005b61044b6004803603810190610446919061342b565b611793565b6040516104589190613ad9565b60405180910390f35b61047b600480360381019061047691906131f1565b6117fb565b6040516104889190613a9c565b60405180910390f35b6104ab60048036038101906104a691906133ea565b6118f7565b005b6104c760048036038101906104c2919061321a565b611904565b6040516104d49190613abe565b60405180910390f35b6104f760048036038101906104f291906131f1565b611998565b005b60007f780e9d63000000000000000000000000000000000000000000000000000000007bffffffffffffffffffffffffffffffffffffffffffffffffffffffff1916827bffffffffffffffffffffffffffffffffffffffffffffffffffffffff1916148061056c575061056b82611a1c565b5b9050919050565b606060008054610582906141e2565b80601f01602080910402602001604051908101604052809291908181526020018280546105ae906141e2565b80156105fb5780601f106105d0576101008083540402835291602001916105fb565b820191906000526020600020905b8154815290600101906020018083116105de57829003601f168201915b5050505050905090565b600061061082611afe565b6004600083815260200190815260200160002060009054906101000a900473ffffffffffffffffffffffffffffffffffffffff169050919050565b600061065682610de8565b90508073ffffffffffffffffffffffffffffffffffffffff168373ffffffffffffffffffffffffffffffffffffffff1614156106c7576040517f08c379a00000000000000000000000000000000000000000000000000000000081526004016106be90613dc0565b60405180910390fd5b8073ffffffffffffffffffffffffffffffffffffffff166106e6611b49565b73ffffffffffffffffffffffffffffffffffffffff16148061071557506107148161070f611b49565b611904565b5b610754576040517f08c379a000000000000000000000000000000000000000000000000000000000815260040161074b90613d40565b60405180910390fd5b61075e8383611b51565b505050565b6000600880549050905090565b61078161077b611b49565b82611c0a565b6107c0576040517f08c379a00000000000000000000000000000000000000000000000000000000081526004016107b790613e40565b60405180910390fd5b6107cb838383611c9f565b505050565b60006107db83610e9a565b821061081c576040517f08c379a000000000000000000000000000000000000000000000000000000000815260040161081390613bc0565b60405180910390fd5b600660008473ffffffffffffffffffffffffffffffffffffffff1673ffffffffffffffffffffffffffffffffffffffff168152602001908152602001600020600083815260200190815260200160002054905092915050565b600d602052806000526040600020600091509050806000018054610898906141e2565b80601f01602080910402602001604051908101604052809291908181526020018280546108c4906141e2565b80156109115780601f106108e657610100808354040283529160200191610911565b820191906000526020600020905b8154815290600101906020018083116108f457829003601f168201915b5050505050908060010160009054906101000a900460ff16908060010160019054906101000a900461ffff16908060030160009054906101000a900460ff16908060040154908060050160009054906101000a900461ffff16908060050160029054906101000a900460ff16908060060154905088565b61099181611f06565b6109d0576040517f08c379a00000000000000000000000000000000000000000000000000000000081526004016109c790613d20565b60405180910390fd5b3373ffffffffffffffffffffffffffffffffffffffff166109f083610de8565b73ffffffffffffffffffffffffffffffffffffffff1614610a46576040517f08c379a0000000000000000000000000000000000000000000000000000000008152600401610a3d90613e20565b60405180910390fd5b3373ffffffffffffffffffffffffffffffffffffffff16610a6682610de8565b73ffffffffffffffffffffffffffffffffffffffff161415610abd576040517f08c379a0000000000000000000000000000000000000000000000000000000008152600401610ab490613ba0565b60405180910390fd5b600d600083815260200190815260200160002060030160009054906101000a900460ff1615610b21576040517f08c379a0000000000000000000000000000000000000000000000000000000008152600401610b1890613b80565b60405180910390fd5b600d600082815260200190815260200160002060030160009054906101000a900460ff1615610b85576040517f08c379a0000000000000000000000000000000000000000000000000000000008152600401610b7c90613c60565b60405180910390fd5b6001600d600084815260200190815260200160002060030160006101000a81548160ff02191690831515021790555080600d6000848152602001908152602001600020600401819055506001600d600084815260200190815260200160002060050160026101000a81548160ff02191690831515021790555042600d6000848152602001908152602001600020600601819055506001600d6000600d600086815260200190815260200160002060040154815260200190815260200160002060030160006101000a81548160ff02191690831515021790555081600d6000600d6000868152602001908152602001600020600401548152602001908152602001600020600401819055506000600d6000600d600086815260200190815260200160002060040154815260200190815260200160002060050160026101000a81548160ff0219169083151502179055507fbad853270e74b043094db20c861bb5c5fe66a3e770048db696c783a118ccbfcd81604051610d039190613ea0565b60405180910390a15050565b610d2a83838360405180602001604052806000815250611731565b505050565b6000610d39610763565b8210610d7a576040517f08c379a0000000000000000000000000000000000000000000000000000000008152600401610d7190613de0565b60405180910390fd5b60088281548110610db4577f4e487b7100000000000000000000000000000000000000000000000000000000600052603260045260246000fd5b90600052602060002001549050919050565b610dce611f72565b80600b9080519060200190610de4929190613000565b5050565b6000806002600084815260200190815260200160002060009054906101000a900473ffffffffffffffffffffffffffffffffffffffff169050600073ffffffffffffffffffffffffffffffffffffffff168173ffffffffffffffffffffffffffffffffffffffff161415610e91576040517f08c379a0000000000000000000000000000000000000000000000000000000008152600401610e8890613da0565b60405180910390fd5b80915050919050565b60008073ffffffffffffffffffffffffffffffffffffffff168273ffffffffffffffffffffffffffffffffffffffff161415610f0b576040517f08c379a0000000000000000000000000000000000000000000000000000000008152600401610f0290613ce0565b60405180910390fd5b600360008373ffffffffffffffffffffffffffffffffffffffff1673ffffffffffffffffffffffffffffffffffffffff168152602001908152602001600020549050919050565b610f5a611f72565b610f646000611ff0565b565b6000600a60009054906101000a900473ffffffffffffffffffffffffffffffffffffffff16905090565b606060018054610f9f906141e2565b80601f0160208091040260200160405190810160405280929190818152602001828054610fcb906141e2565b80156110185780601f10610fed57610100808354040283529160200191611018565b820191906000526020600020905b815481529060010190602001808311610ffb57829003601f168201915b5050505050905090565b3373ffffffffffffffffffffffffffffffffffffffff1661104283610de8565b73ffffffffffffffffffffffffffffffffffffffff1614611098576040517f08c379a000000000000000000000000000000000000000000000000000000000815260040161108f90613e20565b60405180910390fd5b600d600083815260200190815260200160002060030160009054906101000a900460ff166110fb576040517f08c379a00000000000000000000000000000000000000000000000000000000081526004016110f290613e60565b60405180910390fd5b600d600083815260200190815260200160002060050160029054906101000a900460ff161561118a57600c54600d6000848152602001908152602001600020600601544261114991906140dd565b11611189576040517f08c379a000000000000000000000000000000000000000000000000000000000815260040161118090613d00565b60405180910390fd5b5b6000600d600084815260200190815260200160002060020160008360ff1660ff16815260200190815260200160002060009054906101000a900461ffff1661ffff161161120c576040517f08c379a000000000000000000000000000000000000000000000000000000000815260040161120390613c80565b60405180910390fd5b600d600083815260200190815260200160002060020160008260ff1660ff16815260200190815260200160002060009054906101000a900461ffff1661ffff16600d6000600d600086815260200190815260200160002060040154815260200190815260200160002060050160009054906101000a900461ffff1661ffff16116114eb57600d6000838152602001908152602001600020600101600081819054906101000a900460ff16809291906112c39061428e565b91906101000a81548160ff021916908360ff160217905550506005600d600084815260200190815260200160002060010160018282829054906101000a900461ffff16611310919061401e565b92506101000a81548161ffff021916908361ffff160217905550600d600083815260200190815260200160002060010160019054906101000a900461ffff16600d600084815260200190815260200160002060050160006101000a81548161ffff021916908361ffff1602179055506000600d600084815260200190815260200160002060030160006101000a81548160ff021916908315150217905550600d6000600d600085815260200190815260200160002060040154815260200190815260200160002060010160019054906101000a900461ffff16600d6000600d600086815260200190815260200160002060040154815260200190815260200160002060050160006101000a81548161ffff021916908361ffff1602179055506000600d6000600d600086815260200190815260200160002060040154815260200190815260200160002060030160006101000a81548160ff0219169083151502179055507f37acb25e9a3160fa43ff7ccbed6c2dfb13d2208da8c4841c42125ef746e8e002600d600084815260200190815260200160002060040154600d600085815260200190815260200160002060010160009054906101000a900460ff166040516114de929190613ebb565b60405180910390a1611717565b61157b600d600084815260200190815260200160002060020160008360ff1660ff16815260200190815260200160002060009054906101000a900461ffff1661ffff16600d6000600d600087815260200190815260200160002060040154815260200190815260200160002060050160009054906101000a900461ffff1661ffff166120b690919063ffffffff16565b600d6000600d600086815260200190815260200160002060040154815260200190815260200160002060050160006101000a81548161ffff021916908361ffff1602179055506001600d600084815260200190815260200160002060050160026101000a81548160ff02191690831515021790555042600d6000848152602001908152602001600020600601819055506000600d6000600d600086815260200190815260200160002060040154815260200190815260200160002060050160026101000a81548160ff0219169083151502179055507fc699978331a941ebac20688941ba767c3c60d591bf7c4e0b34ea6bca09ee1cd0600d600084815260200190815260200160002060040154600d600085815260200190815260200160002060020160008460ff1660ff16815260200190815260200160002060009054906101000a900461ffff16600d6000600d600088815260200190815260200160002060040154815260200190815260200160002060050160009054906101000a900461ffff1660405161170e93929190613ee4565b60405180910390a15b5050565b61172d611726611b49565b83836120cc565b5050565b61174261173c611b49565b83611c0a565b611781576040517f08c379a000000000000000000000000000000000000000000000000000000000815260040161177890613e40565b60405180910390fd5b61178d84848484612239565b50505050565b606061179e82611afe565b60006117a8612295565b905060008151116117c857604051806020016040528060008152506117f3565b806117d284612327565b6040516020016117e39291906139d8565b6040516020818303038152906040525b915050919050565b6060600061180883610e9a565b67ffffffffffffffff811115611847577f4e487b7100000000000000000000000000000000000000000000000000000000600052604160045260246000fd5b6040519080825280602002602001820160405280156118755781602001602082028036833780820191505090505b50905060005b61188484610e9a565b8110156118ed5761189584826107d0565b8282815181106118ce577f4e487b7100000000000000000000000000000000000000000000000000000000600052603260045260246000fd5b60200260200101818152505080806118e590614245565b91505061187b565b8192505050919050565b61190133826124d4565b50565b6000600560008473ffffffffffffffffffffffffffffffffffffffff1673ffffffffffffffffffffffffffffffffffffffff16815260200190815260200160002060008373ffffffffffffffffffffffffffffffffffffffff1673ffffffffffffffffffffffffffffffffffffffff16815260200190815260200160002060009054906101000a900460ff16905092915050565b6119a0611f72565b600073ffffffffffffffffffffffffffffffffffffffff168173ffffffffffffffffffffffffffffffffffffffff161415611a10576040517f08c379a0000000000000000000000000000000000000000000000000000000008152600401611a0790613c00565b60405180910390fd5b611a1981611ff0565b50565b60007f80ac58cd000000000000000000000000000000000000000000000000000000007bffffffffffffffffffffffffffffffffffffffffffffffffffffffff1916827bffffffffffffffffffffffffffffffffffffffffffffffffffffffff19161480611ae757507f5b5e139f000000000000000000000000000000000000000000000000000000007bffffffffffffffffffffffffffffffffffffffffffffffffffffffff1916827bffffffffffffffffffffffffffffffffffffffffffffffffffffffff1916145b80611af75750611af682612657565b5b9050919050565b611b0781611f06565b611b46576040517f08c379a0000000000000000000000000000000000000000000000000000000008152600401611b3d90613da0565b60405180910390fd5b50565b600033905090565b816004600083815260200190815260200160002060006101000a81548173ffffffffffffffffffffffffffffffffffffffff021916908373ffffffffffffffffffffffffffffffffffffffff160217905550808273ffffffffffffffffffffffffffffffffffffffff16611bc483610de8565b73ffffffffffffffffffffffffffffffffffffffff167f8c5be1e5ebec7d5bd14f71427d1e84f3dd0314c0f7b2291e5b200ac8c7c3b92560405160405180910390a45050565b600080611c1683610de8565b90508073ffffffffffffffffffffffffffffffffffffffff168473ffffffffffffffffffffffffffffffffffffffff161480611c585750611c578185611904565b5b80611c9657508373ffffffffffffffffffffffffffffffffffffffff16611c7e84610605565b73ffffffffffffffffffffffffffffffffffffffff16145b91505092915050565b8273ffffffffffffffffffffffffffffffffffffffff16611cbf82610de8565b73ffffffffffffffffffffffffffffffffffffffff1614611d15576040517f08c379a0000000000000000000000000000000000000000000000000000000008152600401611d0c90613c20565b60405180910390fd5b600073ffffffffffffffffffffffffffffffffffffffff168273ffffffffffffffffffffffffffffffffffffffff161415611d85576040517f08c379a0000000000000000000000000000000000000000000000000000000008152600401611d7c90613ca0565b60405180910390fd5b611d908383836126c1565b611d9b600082611b51565b6001600360008573ffffffffffffffffffffffffffffffffffffffff1673ffffffffffffffffffffffffffffffffffffffff1681526020019081526020016000206000828254611deb91906140dd565b925050819055506001600360008473ffffffffffffffffffffffffffffffffffffffff1673ffffffffffffffffffffffffffffffffffffffff1681526020019081526020016000206000828254611e429190614056565b92505081905550816002600083815260200190815260200160002060006101000a81548173ffffffffffffffffffffffffffffffffffffffff021916908373ffffffffffffffffffffffffffffffffffffffff160217905550808273ffffffffffffffffffffffffffffffffffffffff168473ffffffffffffffffffffffffffffffffffffffff167fddf252ad1be2c89b69c2b068fc378daa952ba7f163c4a11628f55a4df523b3ef60405160405180910390a4611f018383836127d5565b505050565b60008073ffffffffffffffffffffffffffffffffffffffff166002600084815260200190815260200160002060009054906101000a900473ffffffffffffffffffffffffffffffffffffffff1673ffffffffffffffffffffffffffffffffffffffff1614159050919050565b611f7a611b49565b73ffffffffffffffffffffffffffffffffffffffff16611f98610f66565b73ffffffffffffffffffffffffffffffffffffffff1614611fee576040517f08c379a0000000000000000000000000000000000000000000000000000000008152600401611fe590613d80565b60405180910390fd5b565b6000600a60009054906101000a900473ffffffffffffffffffffffffffffffffffffffff16905081600a60006101000a81548173ffffffffffffffffffffffffffffffffffffffff021916908373ffffffffffffffffffffffffffffffffffffffff1602179055508173ffffffffffffffffffffffffffffffffffffffff168173ffffffffffffffffffffffffffffffffffffffff167f8be0079c531659141344cd1fd0a4f28419497f9722a3daafe3b4186f6b6457e060405160405180910390a35050565b600081836120c491906140dd565b905092915050565b8173ffffffffffffffffffffffffffffffffffffffff168373ffffffffffffffffffffffffffffffffffffffff16141561213b576040517f08c379a000000000000000000000000000000000000000000000000000000000815260040161213290613cc0565b60405180910390fd5b80600560008573ffffffffffffffffffffffffffffffffffffffff1673ffffffffffffffffffffffffffffffffffffffff16815260200190815260200160002060008473ffffffffffffffffffffffffffffffffffffffff1673ffffffffffffffffffffffffffffffffffffffff16815260200190815260200160002060006101000a81548160ff0219169083151502179055508173ffffffffffffffffffffffffffffffffffffffff168373ffffffffffffffffffffffffffffffffffffffff167f17307eab39ab6107e8899845ad3d59bd9653f200f220920489ca2b5937696c318360405161222c9190613abe565b60405180910390a3505050565b612244848484611c9f565b612250848484846127da565b61228f576040517f08c379a000000000000000000000000000000000000000000000000000000000815260040161228690613be0565b60405180910390fd5b50505050565b6060600b80546122a4906141e2565b80601f01602080910402602001604051908101604052809291908181526020018280546122d0906141e2565b801561231d5780601f106122f25761010080835404028352916020019161231d565b820191906000526020600020905b81548152906001019060200180831161230057829003601f168201915b5050505050905090565b6060600082141561236f576040518060400160405280600181526020017f300000000000000000000000000000000000000000000000000000000000000081525090506124cf565b600082905060005b600082146123a157808061238a90614245565b915050600a8261239a91906140ac565b9150612377565b60008167ffffffffffffffff8111156123e3577f4e487b7100000000000000000000000000000000000000000000000000000000600052604160045260246000fd5b6040519080825280601f01601f1916602001820160405280156124155781602001600182028036833780820191505090505b5090505b600085146124c85760018261242e91906140dd565b9150600a8561243d91906142e6565b60306124499190614056565b60f81b818381518110612485577f4e487b7100000000000000000000000000000000000000000000000000000000600052603260045260246000fd5b60200101907effffffffffffffffffffffffffffffffffffffffffffffffffffffffffffff1916908160001a905350600a856124c191906140ac565b9450612419565b8093505050505b919050565b600660016124e184610e9a565b6124eb9190614056565b111561252c576040517f08c379a000000000000000000000000000000000000000000000000000000000815260040161252390613e80565b60405180910390fd5b60006001612538610763565b6125429190614056565b905061254e8382612971565b6000600d600083815260200190815260200160002090508281600001908051906020019061257d929190613000565b5060018160010160006101000a81548160ff021916908360ff1602179055506125b1600a60146125ac85612327565b61298f565b8160010160016101000a81548161ffff021916908361ffff16021790555060058160020160008060ff16815260200190815260200160002060006101000a81548161ffff021916908361ffff16021790555060008160030160006101000a81548160ff0219169083151502179055508060010160019054906101000a900461ffff168160050160006101000a81548161ffff021916908361ffff16021790555050505050565b60007f01ffc9a7000000000000000000000000000000000000000000000000000000007bffffffffffffffffffffffffffffffffffffffffffffffffffffffff1916827bffffffffffffffffffffffffffffffffffffffffffffffffffffffff1916149050919050565b6126cc838383612a2b565b600073ffffffffffffffffffffffffffffffffffffffff168373ffffffffffffffffffffffffffffffffffffffff16141561270f5761270a81612a30565b61274e565b8173ffffffffffffffffffffffffffffffffffffffff168373ffffffffffffffffffffffffffffffffffffffff161461274d5761274c8382612a79565b5b5b600073ffffffffffffffffffffffffffffffffffffffff168273ffffffffffffffffffffffffffffffffffffffff1614156127915761278c81612be6565b6127d0565b8273ffffffffffffffffffffffffffffffffffffffff168273ffffffffffffffffffffffffffffffffffffffff16146127cf576127ce8282612d29565b5b5b505050565b505050565b60006127fb8473ffffffffffffffffffffffffffffffffffffffff16612da8565b15612964578373ffffffffffffffffffffffffffffffffffffffff1663150b7a02612824611b49565b8786866040518563ffffffff1660e01b81526004016128469493929190613a50565b602060405180830381600087803b15801561286057600080fd5b505af192505050801561289157506040513d601f19601f8201168201806040525081019061288e91906133c1565b60015b612914573d80600081146128c1576040519150601f19603f3d011682016040523d82523d6000602084013e6128c6565b606091505b5060008151141561290c576040517f08c379a000000000000000000000000000000000000000000000000000000000815260040161290390613be0565b60405180910390fd5b805181602001fd5b63150b7a0260e01b7bffffffffffffffffffffffffffffffffffffffffffffffffffffffff1916817bffffffffffffffffffffffffffffffffffffffffffffffffffffffff191614915050612969565b600190505b949350505050565b61298b828260405180602001604052806000815250612dcb565b5050565b60008383116129d3576040517f08c379a00000000000000000000000000000000000000000000000000000000081526004016129ca90613e00565b60405180910390fd5b8384846129e091906140dd565b4284336040516020016129f5939291906139fc565b6040516020818303038152906040528051906020012060001c612a1891906142e6565b612a229190614056565b90509392505050565b505050565b6008805490506009600083815260200190815260200160002081905550600881908060018154018082558091505060019003906000526020600020016000909190919091505550565b60006001612a8684610e9a565b612a9091906140dd565b9050600060076000848152602001908152602001600020549050818114612b75576000600660008673ffffffffffffffffffffffffffffffffffffffff1673ffffffffffffffffffffffffffffffffffffffff168152602001908152602001600020600084815260200190815260200160002054905080600660008773ffffffffffffffffffffffffffffffffffffffff1673ffffffffffffffffffffffffffffffffffffffff168152602001908152602001600020600084815260200190815260200160002081905550816007600083815260200190815260200160002081905550505b6007600084815260200190815260200160002060009055600660008573ffffffffffffffffffffffffffffffffffffffff1673ffffffffffffffffffffffffffffffffffffffff16815260200190815260200160002060008381526020019081526020016000206000905550505050565b60006001600880549050612bfa91906140dd565b9050600060096000848152602001908152602001600020549050600060088381548110612c50577f4e487b7100000000000000000000000000000000000000000000000000000000600052603260045260246000fd5b906000526020600020015490508060088381548110612c98577f4e487b7100000000000000000000000000000000000000000000000000000000600052603260045260246000fd5b906000526020600020018190555081600960008381526020019081526020016000208190555060096000858152602001908152602001600020600090556008805480612d0d577f4e487b7100000000000000000000000000000000000000000000000000000000600052603160045260246000fd5b6001900381819060005260206000200160009055905550505050565b6000612d3483610e9a565b905081600660008573ffffffffffffffffffffffffffffffffffffffff1673ffffffffffffffffffffffffffffffffffffffff168152602001908152602001600020600083815260200190815260200160002081905550806007600084815260200190815260200160002081905550505050565b6000808273ffffffffffffffffffffffffffffffffffffffff163b119050919050565b612dd58383612e26565b612de260008484846127da565b612e21576040517f08c379a0000000000000000000000000000000000000000000000000000000008152600401612e1890613be0565b60405180910390fd5b505050565b600073ffffffffffffffffffffffffffffffffffffffff168273ffffffffffffffffffffffffffffffffffffffff161415612e96576040517f08c379a0000000000000000000000000000000000000000000000000000000008152600401612e8d90613d60565b60405180910390fd5b612e9f81611f06565b15612edf576040517f08c379a0000000000000000000000000000000000000000000000000000000008152600401612ed690613c40565b60405180910390fd5b612eeb600083836126c1565b6001600360008473ffffffffffffffffffffffffffffffffffffffff1673ffffffffffffffffffffffffffffffffffffffff1681526020019081526020016000206000828254612f3b9190614056565b92505081905550816002600083815260200190815260200160002060006101000a81548173ffffffffffffffffffffffffffffffffffffffff021916908373ffffffffffffffffffffffffffffffffffffffff160217905550808273ffffffffffffffffffffffffffffffffffffffff16600073ffffffffffffffffffffffffffffffffffffffff167fddf252ad1be2c89b69c2b068fc378daa952ba7f163c4a11628f55a4df523b3ef60405160405180910390a4612ffc600083836127d5565b5050565b82805461300c906141e2565b90600052602060002090601f01602090048101928261302e5760008555613075565b82601f1061304757805160ff1916838001178555613075565b82800160010185558215613075579182015b82811115613074578251825591602001919060010190613059565b5b5090506130829190613086565b5090565b5b8082111561309f576000816000905550600101613087565b5090565b60006130b66130b184613f40565b613f1b565b9050828152602081018484840111156130ce57600080fd5b6130d98482856141a0565b509392505050565b60006130f46130ef84613f71565b613f1b565b90508281526020810184848401111561310c57600080fd5b6131178482856141a0565b509392505050565b60008135905061312e81614a06565b92915050565b60008135905061314381614a1d565b92915050565b60008135905061315881614a34565b92915050565b60008151905061316d81614a34565b92915050565b600082601f83011261318457600080fd5b81356131948482602086016130a3565b91505092915050565b600082601f8301126131ae57600080fd5b81356131be8482602086016130e1565b91505092915050565b6000813590506131d681614a4b565b92915050565b6000813590506131eb81614a62565b92915050565b60006020828403121561320357600080fd5b60006132118482850161311f565b91505092915050565b6000806040838503121561322d57600080fd5b600061323b8582860161311f565b925050602061324c8582860161311f565b9150509250929050565b60008060006060848603121561326b57600080fd5b60006132798682870161311f565b935050602061328a8682870161311f565b925050604061329b868287016131c7565b9150509250925092565b600080600080608085870312156132bb57600080fd5b60006132c98782880161311f565b94505060206132da8782880161311f565b93505060406132eb878288016131c7565b925050606085013567ffffffffffffffff81111561330857600080fd5b61331487828801613173565b91505092959194509250565b6000806040838503121561333357600080fd5b60006133418582860161311f565b925050602061335285828601613134565b9150509250929050565b6000806040838503121561336f57600080fd5b600061337d8582860161311f565b925050602061338e858286016131c7565b9150509250929050565b6000602082840312156133aa57600080fd5b60006133b884828501613149565b91505092915050565b6000602082840312156133d357600080fd5b60006133e18482850161315e565b91505092915050565b6000602082840312156133fc57600080fd5b600082013567ffffffffffffffff81111561341657600080fd5b6134228482850161319d565b91505092915050565b60006020828403121561343d57600080fd5b600061344b848285016131c7565b91505092915050565b6000806040838503121561346757600080fd5b6000613475858286016131c7565b9250506020613486858286016131c7565b9150509250929050565b600080604083850312156134a357600080fd5b60006134b1858286016131c7565b92505060206134c2858286016131dc565b9150509250929050565b60006134d88383613994565b60208301905092915050565b6134ed81614111565b82525050565b6135046134ff82614111565b6142b8565b82525050565b600061351582613fb2565b61351f8185613fe0565b935061352a83613fa2565b8060005b8381101561355b57815161354288826134cc565b975061354d83613fd3565b92505060018101905061352e565b5085935050505092915050565b61357181614123565b82525050565b600061358282613fbd565b61358c8185613ff1565b935061359c8185602086016141af565b6135a5816143d3565b840191505092915050565b60006135bb82613fc8565b6135c58185614002565b93506135d58185602086016141af565b6135de816143d3565b840191505092915050565b60006135f482613fc8565b6135fe8185614013565b935061360e8185602086016141af565b80840191505092915050565b6000613627602083614002565b9150613632826143f1565b602082019050919050565b600061364a602083614002565b91506136558261441a565b602082019050919050565b600061366d602b83614002565b915061367882614443565b604082019050919050565b6000613690603283614002565b915061369b82614492565b604082019050919050565b60006136b3602683614002565b91506136be826144e1565b604082019050919050565b60006136d6602583614002565b91506136e182614530565b604082019050919050565b60006136f9601c83614002565b91506137048261457f565b602082019050919050565b600061371c601f83614002565b9150613727826145a8565b602082019050919050565b600061373f604583614002565b915061374a826145d1565b606082019050919050565b6000613762602483614002565b915061376d82614646565b604082019050919050565b6000613785601983614002565b915061379082614695565b602082019050919050565b60006137a8602983614002565b91506137b3826146be565b604082019050919050565b60006137cb601883614002565b91506137d68261470d565b602082019050919050565b60006137ee602b83614002565b91506137f982614736565b604082019050919050565b6000613811603e83614002565b915061381c82614785565b604082019050919050565b6000613834602083614002565b915061383f826147d4565b602082019050919050565b6000613857602083614002565b9150613862826147fd565b602082019050919050565b600061387a601883614002565b915061388582614826565b602082019050919050565b600061389d602183614002565b91506138a88261484f565b604082019050919050565b60006138c0602c83614002565b91506138cb8261489e565b604082019050919050565b60006138e3603183614002565b91506138ee826148ed565b604082019050919050565b6000613906601183614002565b91506139118261493c565b602082019050919050565b6000613929602e83614002565b915061393482614965565b604082019050919050565b600061394c600e83614002565b9150613957826149b4565b602082019050919050565b600061396f601d83614002565b915061397a826149dd565b602082019050919050565b61398e8161415b565b82525050565b61399d81614189565b82525050565b6139ac81614189565b82525050565b6139c36139be82614189565b6142dc565b82525050565b6139d281614193565b82525050565b60006139e482856135e9565b91506139f082846135e9565b91508190509392505050565b6000613a0882866139b2565b602082019150613a1882856135e9565b9150613a2482846134f3565b601482019150819050949350505050565b6000602082019050613a4a60008301846134e4565b92915050565b6000608082019050613a6560008301876134e4565b613a7260208301866134e4565b613a7f60408301856139a3565b8181036060830152613a918184613577565b905095945050505050565b60006020820190508181036000830152613ab6818461350a565b905092915050565b6000602082019050613ad36000830184613568565b92915050565b60006020820190508181036000830152613af381846135b0565b905092915050565b6000610100820190508181036000830152613b16818b6135b0565b9050613b25602083018a6139c9565b613b326040830189613985565b613b3f6060830188613568565b613b4c60808301876139a3565b613b5960a0830186613985565b613b6660c0830185613568565b613b7360e08301846139a3565b9998505050505050505050565b60006020820190508181036000830152613b998161361a565b9050919050565b60006020820190508181036000830152613bb98161363d565b9050919050565b60006020820190508181036000830152613bd981613660565b9050919050565b60006020820190508181036000830152613bf981613683565b9050919050565b60006020820190508181036000830152613c19816136a6565b9050919050565b60006020820190508181036000830152613c39816136c9565b9050919050565b60006020820190508181036000830152613c59816136ec565b9050919050565b60006020820190508181036000830152613c798161370f565b9050919050565b60006020820190508181036000830152613c9981613732565b9050919050565b60006020820190508181036000830152613cb981613755565b9050919050565b60006020820190508181036000830152613cd981613778565b9050919050565b60006020820190508181036000830152613cf98161379b565b9050919050565b60006020820190508181036000830152613d19816137be565b9050919050565b60006020820190508181036000830152613d39816137e1565b9050919050565b60006020820190508181036000830152613d5981613804565b9050919050565b60006020820190508181036000830152613d7981613827565b9050919050565b60006020820190508181036000830152613d998161384a565b9050919050565b60006020820190508181036000830152613db98161386d565b9050919050565b60006020820190508181036000830152613dd981613890565b9050919050565b60006020820190508181036000830152613df9816138b3565b9050919050565b60006020820190508181036000830152613e19816138d6565b9050919050565b60006020820190508181036000830152613e39816138f9565b9050919050565b60006020820190508181036000830152613e598161391c565b9050919050565b60006020820190508181036000830152613e798161393f565b9050919050565b60006020820190508181036000830152613e9981613962565b9050919050565b6000602082019050613eb560008301846139a3565b92915050565b6000604082019050613ed060008301856139a3565b613edd60208301846139c9565b9392505050565b6000606082019050613ef960008301866139a3565b613f0660208301856139c9565b613f136040830184613985565b949350505050565b6000613f25613f36565b9050613f318282614214565b919050565b6000604051905090565b600067ffffffffffffffff821115613f5b57613f5a6143a4565b5b613f64826143d3565b9050602081019050919050565b600067ffffffffffffffff821115613f8c57613f8b6143a4565b5b613f95826143d3565b9050602081019050919050565b6000819050602082019050919050565b600081519050919050565b600081519050919050565b600081519050919050565b6000602082019050919050565b600082825260208201905092915050565b600082825260208201905092915050565b600082825260208201905092915050565b600081905092915050565b60006140298261415b565b91506140348361415b565b92508261ffff0382111561404b5761404a614317565b5b828201905092915050565b600061406182614189565b915061406c83614189565b9250827fffffffffffffffffffffffffffffffffffffffffffffffffffffffffffffffff038211156140a1576140a0614317565b5b828201905092915050565b60006140b782614189565b91506140c283614189565b9250826140d2576140d1614346565b5b828204905092915050565b60006140e882614189565b91506140f383614189565b92508282101561410657614105614317565b5b828203905092915050565b600061411c82614169565b9050919050565b60008115159050919050565b60007fffffffff0000000000000000000000000000000000000000000000000000000082169050919050565b600061ffff82169050919050565b600073ffffffffffffffffffffffffffffffffffffffff82169050919050565b6000819050919050565b600060ff82169050919050565b82818337600083830152505050565b60005b838110156141cd5780820151818401526020810190506141b2565b838111156141dc576000848401525b50505050565b600060028204905060018216806141fa57607f821691505b6020821081141561420e5761420d614375565b5b50919050565b61421d826143d3565b810181811067ffffffffffffffff8211171561423c5761423b6143a4565b5b80604052505050565b600061425082614189565b91507fffffffffffffffffffffffffffffffffffffffffffffffffffffffffffffffff82141561428357614282614317565b5b600182019050919050565b600061429982614193565b915060ff8214156142ad576142ac614317565b5b600182019050919050565b60006142c3826142ca565b9050919050565b60006142d5826143e4565b9050919050565b6000819050919050565b60006142f182614189565b91506142fc83614189565b92508261430c5761430b614346565b5b828206905092915050565b7f4e487b7100000000000000000000000000000000000000000000000000000000600052601160045260246000fd5b7f4e487b7100000000000000000000000000000000000000000000000000000000600052601260045260246000fd5b7f4e487b7100000000000000000000000000000000000000000000000000000000600052602260045260246000fd5b7f4e487b7100000000000000000000000000000000000000000000000000000000600052604160045260246000fd5b6000601f19601f8301169050919050565b60008160601b9050919050565b7f596f757220706f6b656d6f6e20697320616c7265616479206669676874696e67600082015250565b7f43616e277420626520746865206f776e6572206f662074686520656e6e656d79600082015250565b7f455243373231456e756d657261626c653a206f776e657220696e646578206f7560008201527f74206f6620626f756e6473000000000000000000000000000000000000000000602082015250565b7f4552433732313a207472616e7366657220746f206e6f6e20455243373231526560008201527f63656976657220696d706c656d656e7465720000000000000000000000000000602082015250565b7f4f776e61626c653a206e6577206f776e657220697320746865207a65726f206160008201527f6464726573730000000000000000000000000000000000000000000000000000602082015250565b7f4552433732313a207472616e736665722066726f6d20696e636f72726563742060008201527f6f776e6572000000000000000000000000000000000000000000000000000000602082015250565b7f4552433732313a20746f6b656e20616c7265616479206d696e74656400000000600082015250565b7f596f75722074617267657420697320616c7265616479206669676874696e6700600082015250565b7f546869732061747461636b20646f6573206e6f74206578697374206f7220686160008201527f7665206e6f74206265206c6561726e65642079657420627920796f757220706f60208201527f6b656d6f6e000000000000000000000000000000000000000000000000000000604082015250565b7f4552433732313a207472616e7366657220746f20746865207a65726f2061646460008201527f7265737300000000000000000000000000000000000000000000000000000000602082015250565b7f4552433732313a20617070726f766520746f2063616c6c657200000000000000600082015250565b7f4552433732313a2061646472657373207a65726f206973206e6f74206120766160008201527f6c6964206f776e65720000000000000000000000000000000000000000000000602082015250565b7f4974277320796f7572206f706f6e656e742773207475726e0000000000000000600082015250565b7f57726f6e67207665727375734964203a20596f75722074617267657420646f6560008201527f73206e6f74206578697374000000000000000000000000000000000000000000602082015250565b7f4552433732313a20617070726f76652063616c6c6572206973206e6f7420746f60008201527f6b656e206f776e6572206e6f7220617070726f76656420666f7220616c6c0000602082015250565b7f4552433732313a206d696e7420746f20746865207a65726f2061646472657373600082015250565b7f4f776e61626c653a2063616c6c6572206973206e6f7420746865206f776e6572600082015250565b7f4552433732313a20696e76616c696420746f6b656e2049440000000000000000600082015250565b7f4552433732313a20617070726f76616c20746f2063757272656e74206f776e6560008201527f7200000000000000000000000000000000000000000000000000000000000000602082015250565b7f455243373231456e756d657261626c653a20676c6f62616c20696e646578206f60008201527f7574206f6620626f756e64730000000000000000000000000000000000000000602082015250565b7f6d696e696d616c2076616c75652063616e27742062652067726561746572207460008201527f68616e206d6178696d616c2076616c7565000000000000000000000000000000602082015250565b7f4d75737420626520746865206f776e6572000000000000000000000000000000600082015250565b7f4552433732313a2063616c6c6572206973206e6f7420746f6b656e206f776e6560008201527f72206e6f7220617070726f766564000000000000000000000000000000000000602082015250565b7f4e6f7420696e2061206669676874000000000000000000000000000000000000600082015250565b7f43616e742068617665206d6f7265207468616e203620506f6b656d6f6e000000600082015250565b614a0f81614111565b8114614a1a57600080fd5b50565b614a2681614123565b8114614a3157600080fd5b50565b614a3d8161412f565b8114614a4857600080fd5b50565b614a5481614189565b8114614a5f57600080fd5b50565b614a6b81614193565b8114614a7657600080fd5b5056fea2646970667358221220953d74282b8f77fef9ca60b44c224ea2b4ca87ed0bd51e961fbc6f26e13cb4ed64736f6c63430008040033",
  "linkReferences": {},
  "deployedLinkReferences": {}
}