{
  "_format": "hh-sol-artifact-1",
  "contractName": "Pokemon",
  "sourceName": "contracts/Pokemon.sol",
  "abi": [
    {
      "inputs": [
        {
          "internalType": "string",
          "name": "name",
          "type": "string"
        },
        {
          "internalType": "string",
          "name": "symbol",
          "type": "string"
        },
        {
          "internalType": "uint256",
          "name": "_attackCooldown",
          "type": "uint256"
        }
      ],
      "stateMutability": "nonpayable",
      "type": "constructor"
    },
    {
      "anonymous": false,
      "inputs": [
        {
          "indexed": true,
          "internalType": "address",
          "name": "owner",
          "type": "address"
        },
        {
          "indexed": true,
          "internalType": "address",
          "name": "approved",
          "type": "address"
        },
        {
          "indexed": true,
          "internalType": "uint256",
          "name": "tokenId",
          "type": "uint256"
        }
      ],
      "name": "Approval",
      "type": "event"
    },
    {
      "anonymous": false,
      "inputs": [
        {
          "indexed": true,
          "internalType": "address",
          "name": "owner",
          "type": "address"
        },
        {
          "indexed": true,
          "internalType": "address",
          "name": "operator",
          "type": "address"
        },
        {
          "indexed": false,
          "internalType": "bool",
          "name": "approved",
          "type": "bool"
        }
      ],
      "name": "ApprovalForAll",
      "type": "event"
    },
    {
      "anonymous": false,
      "inputs": [
        {
          "indexed": false,
          "internalType": "uint256",
          "name": "versusId",
          "type": "uint256"
        },
        {
          "indexed": false,
          "internalType": "uint16",
          "name": "versusRemainingLP",
          "type": "uint16"
        }
      ],
      "name": "AttackFailed",
      "type": "event"
    },
    {
      "anonymous": false,
      "inputs": [
        {
          "indexed": false,
          "internalType": "uint256",
          "name": "versusId",
          "type": "uint256"
        },
        {
          "indexed": false,
          "internalType": "uint8",
          "name": "dmg",
          "type": "uint8"
        },
        {
          "indexed": false,
          "internalType": "uint16",
          "name": "versusRemainingLP",
          "type": "uint16"
        }
      ],
      "name": "AttackSuccess",
      "type": "event"
    },
    {
      "anonymous": false,
      "inputs": [
        {
          "indexed": false,
          "internalType": "uint256",
          "name": "versusId",
          "type": "uint256"
        }
      ],
      "name": "BattleBegin",
      "type": "event"
    },
    {
      "anonymous": false,
      "inputs": [
        {
          "indexed": false,
          "internalType": "uint256",
          "name": "versusId",
          "type": "uint256"
        },
        {
          "indexed": false,
          "internalType": "uint8",
          "name": "newLevel",
          "type": "uint8"
        }
      ],
      "name": "BattleWin",
      "type": "event"
    },
    {
      "anonymous": false,
      "inputs": [
        {
          "indexed": true,
          "internalType": "address",
          "name": "previousOwner",
          "type": "address"
        },
        {
          "indexed": true,
          "internalType": "address",
          "name": "newOwner",
          "type": "address"
        }
      ],
      "name": "OwnershipTransferred",
      "type": "event"
    },
    {
      "anonymous": false,
      "inputs": [
        {
          "indexed": true,
          "internalType": "address",
          "name": "from",
          "type": "address"
        },
        {
          "indexed": true,
          "internalType": "address",
          "name": "to",
          "type": "address"
        },
        {
          "indexed": true,
          "internalType": "uint256",
          "name": "tokenId",
          "type": "uint256"
        }
      ],
      "name": "Transfer",
      "type": "event"
    },
    {
      "inputs": [
        {
          "internalType": "address",
          "name": "to",
          "type": "address"
        },
        {
          "internalType": "uint256",
          "name": "tokenId",
          "type": "uint256"
        }
      ],
      "name": "approve",
      "outputs": [],
      "stateMutability": "nonpayable",
      "type": "function"
    },
    {
      "inputs": [
        {
          "internalType": "uint256",
          "name": "_id",
          "type": "uint256"
        },
        {
          "internalType": "uint8",
          "name": "_choice",
          "type": "uint8"
        }
      ],
      "name": "attack",
      "outputs": [],
      "stateMutability": "nonpayable",
      "type": "function"
    },
    {
      "inputs": [
        {
          "internalType": "address",
          "name": "owner",
          "type": "address"
        }
      ],
      "name": "balanceOf",
      "outputs": [
        {
          "internalType": "uint256",
          "name": "",
          "type": "uint256"
        }
      ],
      "stateMutability": "view",
      "type": "function"
    },
    {
      "inputs": [
        {
          "internalType": "uint256",
          "name": "tokenId",
          "type": "uint256"
        }
      ],
      "name": "getApproved",
      "outputs": [
        {
          "internalType": "address",
          "name": "",
          "type": "address"
        }
      ],
      "stateMutability": "view",
      "type": "function"
    },
    {
      "inputs": [
        {
          "internalType": "address",
          "name": "_owner",
          "type": "address"
        }
      ],
      "name": "getTokenIds",
      "outputs": [
        {
          "internalType": "uint256[]",
          "name": "",
          "type": "uint256[]"
        }
      ],
      "stateMutability": "view",
      "type": "function"
    },
    {
      "inputs": [
        {
          "internalType": "uint256",
          "name": "tokenId",
          "type": "uint256"
        },
        {
          "internalType": "uint8",
          "name": "attackId",
          "type": "uint8"
        }
      ],
      "name": "getTokenomAttack",
      "outputs": [
        {
          "internalType": "string",
          "name": "name",
          "type": "string"
        },
        {
          "internalType": "uint256",
          "name": "damage",
          "type": "uint256"
        },
        {
          "internalType": "uint256",
          "name": "precision",
          "type": "uint256"
        }
      ],
      "stateMutability": "view",
      "type": "function"
    },
    {
      "inputs": [
        {
          "internalType": "address",
          "name": "owner",
          "type": "address"
        },
        {
          "internalType": "address",
          "name": "operator",
          "type": "address"
        }
      ],
      "name": "isApprovedForAll",
      "outputs": [
        {
          "internalType": "bool",
          "name": "",
          "type": "bool"
        }
      ],
      "stateMutability": "view",
      "type": "function"
    },
    {
      "inputs": [
        {
          "internalType": "string",
          "name": "_name",
          "type": "string"
        }
      ],
      "name": "mint",
      "outputs": [],
      "stateMutability": "nonpayable",
      "type": "function"
    },
    {
      "inputs": [],
      "name": "name",
      "outputs": [
        {
          "internalType": "string",
          "name": "",
          "type": "string"
        }
      ],
      "stateMutability": "view",
      "type": "function"
    },
    {
      "inputs": [],
      "name": "owner",
      "outputs": [
        {
          "internalType": "address",
          "name": "",
          "type": "address"
        }
      ],
      "stateMutability": "view",
      "type": "function"
    },
    {
      "inputs": [
        {
          "internalType": "uint256",
          "name": "tokenId",
          "type": "uint256"
        }
      ],
      "name": "ownerOf",
      "outputs": [
        {
          "internalType": "address",
          "name": "",
          "type": "address"
        }
      ],
      "stateMutability": "view",
      "type": "function"
    },
    {
      "inputs": [
        {
          "internalType": "uint256",
          "name": "",
          "type": "uint256"
        }
      ],
      "name": "pokemonStats",
      "outputs": [
        {
          "internalType": "string",
          "name": "name",
          "type": "string"
        },
        {
          "internalType": "uint8",
          "name": "level",
          "type": "uint8"
        },
        {
          "internalType": "uint16",
          "name": "maxLifePoint",
          "type": "uint16"
        },
        {
          "internalType": "bool",
          "name": "isFighting",
          "type": "bool"
        },
        {
          "internalType": "uint256",
          "name": "versusId",
          "type": "uint256"
        },
        {
          "internalType": "uint16",
          "name": "lifePoint",
          "type": "uint16"
        },
        {
          "internalType": "bool",
          "name": "cooldown",
          "type": "bool"
        },
        {
          "internalType": "uint256",
          "name": "lastAttack",
          "type": "uint256"
        }
      ],
      "stateMutability": "view",
      "type": "function"
    },
    {
      "inputs": [],
      "name": "renounceOwnership",
      "outputs": [],
      "stateMutability": "nonpayable",
      "type": "function"
    },
    {
      "inputs": [
        {
          "internalType": "address",
          "name": "from",
          "type": "address"
        },
        {
          "internalType": "address",
          "name": "to",
          "type": "address"
        },
        {
          "internalType": "uint256",
          "name": "tokenId",
          "type": "uint256"
        }
      ],
      "name": "safeTransferFrom",
      "outputs": [],
      "stateMutability": "nonpayable",
      "type": "function"
    },
    {
      "inputs": [
        {
          "internalType": "address",
          "name": "from",
          "type": "address"
        },
        {
          "internalType": "address",
          "name": "to",
          "type": "address"
        },
        {
          "internalType": "uint256",
          "name": "tokenId",
          "type": "uint256"
        },
        {
          "internalType": "bytes",
          "name": "data",
          "type": "bytes"
        }
      ],
      "name": "safeTransferFrom",
      "outputs": [],
      "stateMutability": "nonpayable",
      "type": "function"
    },
    {
      "inputs": [
        {
          "internalType": "address",
          "name": "operator",
          "type": "address"
        },
        {
          "internalType": "bool",
          "name": "approved",
          "type": "bool"
        }
      ],
      "name": "setApprovalForAll",
      "outputs": [],
      "stateMutability": "nonpayable",
      "type": "function"
    },
    {
      "inputs": [
        {
          "internalType": "string",
          "name": "_newBaseURI",
          "type": "string"
        }
      ],
      "name": "setBaseURI",
      "outputs": [],
      "stateMutability": "nonpayable",
      "type": "function"
    },
    {
      "inputs": [
        {
          "internalType": "uint256",
          "name": "_id",
          "type": "uint256"
        },
        {
          "internalType": "uint256",
          "name": "_versusId",
          "type": "uint256"
        }
      ],
      "name": "startBattle",
      "outputs": [],
      "stateMutability": "nonpayable",
      "type": "function"
    },
    {
      "inputs": [
        {
          "internalType": "bytes4",
          "name": "interfaceId",
          "type": "bytes4"
        }
      ],
      "name": "supportsInterface",
      "outputs": [
        {
          "internalType": "bool",
          "name": "",
          "type": "bool"
        }
      ],
      "stateMutability": "view",
      "type": "function"
    },
    {
      "inputs": [],
      "name": "symbol",
      "outputs": [
        {
          "internalType": "string",
          "name": "",
          "type": "string"
        }
      ],
      "stateMutability": "view",
      "type": "function"
    },
    {
      "inputs": [
        {
          "internalType": "uint256",
          "name": "index",
          "type": "uint256"
        }
      ],
      "name": "tokenByIndex",
      "outputs": [
        {
          "internalType": "uint256",
          "name": "",
          "type": "uint256"
        }
      ],
      "stateMutability": "view",
      "type": "function"
    },
    {
      "inputs": [
        {
          "internalType": "address",
          "name": "owner",
          "type": "address"
        },
        {
          "internalType": "uint256",
          "name": "index",
          "type": "uint256"
        }
      ],
      "name": "tokenOfOwnerByIndex",
      "outputs": [
        {
          "internalType": "uint256",
          "name": "",
          "type": "uint256"
        }
      ],
      "stateMutability": "view",
      "type": "function"
    },
    {
      "inputs": [
        {
          "internalType": "uint256",
          "name": "tokenId",
          "type": "uint256"
        }
      ],
      "name": "tokenURI",
      "outputs": [
        {
          "internalType": "string",
          "name": "",
          "type": "string"
        }
      ],
      "stateMutability": "view",
      "type": "function"
    },
    {
      "inputs": [],
      "name": "totalSupply",
      "outputs": [
        {
          "internalType": "uint256",
          "name": "",
          "type": "uint256"
        }
      ],
      "stateMutability": "view",
      "type": "function"
    },
    {
      "inputs": [
        {
          "internalType": "address",
          "name": "from",
          "type": "address"
        },
        {
          "internalType": "address",
          "name": "to",
          "type": "address"
        },
        {
          "internalType": "uint256",
          "name": "tokenId",
          "type": "uint256"
        }
      ],
      "name": "transferFrom",
      "outputs": [],
      "stateMutability": "nonpayable",
      "type": "function"
    },
    {
      "inputs": [
        {
          "internalType": "address",
          "name": "newOwner",
          "type": "address"
        }
      ],
      "name": "transferOwnership",
      "outputs": [],
      "stateMutability": "nonpayable",
      "type": "function"
    }
  ],
  "bytecode": "0x60806040523480156200001157600080fd5b50604051620053fd380380620053fd8339818101604052810190620000379190620002b5565b82828160009080519060200190620000519291906200017c565b5080600190805190602001906200006a9291906200017c565b5050506200008d62000081620000ae60201b60201c565b620000b660201b60201c565b6200009e33620000b660201b60201c565b80600c81905550505050620004d1565b600033905090565b6000600a60009054906101000a900473ffffffffffffffffffffffffffffffffffffffff16905081600a60006101000a81548173ffffffffffffffffffffffffffffffffffffffff021916908373ffffffffffffffffffffffffffffffffffffffff1602179055508173ffffffffffffffffffffffffffffffffffffffff168173ffffffffffffffffffffffffffffffffffffffff167f8be0079c531659141344cd1fd0a4f28419497f9722a3daafe3b4186f6b6457e060405160405180910390a35050565b8280546200018a90620003dc565b90600052602060002090601f016020900481019282620001ae5760008555620001fa565b82601f10620001c957805160ff1916838001178555620001fa565b82800160010185558215620001fa579182015b82811115620001f9578251825591602001919060010190620001dc565b5b5090506200020991906200020d565b5090565b5b80821115620002285760008160009055506001016200020e565b5090565b6000620002436200023d8462000366565b6200033d565b9050828152602081018484840111156200025c57600080fd5b62000269848285620003a6565b509392505050565b600082601f8301126200028357600080fd5b8151620002958482602086016200022c565b91505092915050565b600081519050620002af81620004b7565b92915050565b600080600060608486031215620002cb57600080fd5b600084015167ffffffffffffffff811115620002e657600080fd5b620002f48682870162000271565b935050602084015167ffffffffffffffff8111156200031257600080fd5b620003208682870162000271565b925050604062000333868287016200029e565b9150509250925092565b6000620003496200035c565b905062000357828262000412565b919050565b6000604051905090565b600067ffffffffffffffff82111562000384576200038362000477565b5b6200038f82620004a6565b9050602081019050919050565b6000819050919050565b60005b83811015620003c6578082015181840152602081019050620003a9565b83811115620003d6576000848401525b50505050565b60006002820490506001821680620003f557607f821691505b602082108114156200040c576200040b62000448565b5b50919050565b6200041d82620004a6565b810181811067ffffffffffffffff821117156200043f576200043e62000477565b5b80604052505050565b7f4e487b7100000000000000000000000000000000000000000000000000000000600052602260045260246000fd5b7f4e487b7100000000000000000000000000000000000000000000000000000000600052604160045260246000fd5b6000601f19601f8301169050919050565b620004c2816200039c565b8114620004ce57600080fd5b50565b614f1c80620004e16000396000f3fe608060405234801561001057600080fd5b506004361061018e5760003560e01c806370a08231116100de578063b88d4fde11610097578063d82305a111610071578063d82305a1146104ac578063d85d3d27146104de578063e985e9c5146104fa578063f2fde38b1461052a5761018e565b8063b88d4fde14610430578063c87b56dd1461044c578063d004b0361461047c5761018e565b806370a0823114610382578063715018a6146103b25780638da5cb5b146103bc57806395d89b41146103da5780639f3aa7f2146103f8578063a22cb465146104145761018e565b80632f745c591161014b57806342842e0e1161012557806342842e0e146102ea5780634f6ccce71461030657806355f804b3146103365780636352211e146103525761018e565b80632f745c59146102675780633950aebc146102975780633daa6ba9146102ce5761018e565b806301ffc9a71461019357806306fdde03146101c3578063081812fc146101e1578063095ea7b31461021157806318160ddd1461022d57806323b872dd1461024b575b600080fd5b6101ad60048036038101906101a8919061370c565b610546565b6040516101ba9190613e55565b60405180910390f35b6101cb6105c0565b6040516101d89190613e70565b60405180910390f35b6101fb60048036038101906101f6919061379f565b610652565b6040516102089190613dcc565b60405180910390f35b61022b600480360381019061022691906136d0565b610698565b005b6102356107b0565b6040516102429190614295565b60405180910390f35b610265600480360381019061026091906135ca565b6107bd565b005b610281600480360381019061027c91906136d0565b61081d565b60405161028e9190614295565b60405180910390f35b6102b160048036038101906102ac919061379f565b6108c2565b6040516102c5989796959493929190613ed0565b60405180910390f35b6102e860048036038101906102e391906137c8565b6109d5565b005b61030460048036038101906102ff91906135ca565b610d5c565b005b610320600480360381019061031b919061379f565b610d7c565b60405161032d9190614295565b60405180910390f35b610350600480360381019061034b919061375e565b610e13565b005b61036c6004803603810190610367919061379f565b610e35565b6040516103799190613dcc565b60405180910390f35b61039c60048036038101906103979190613565565b610ee7565b6040516103a99190614295565b60405180910390f35b6103ba610f9f565b005b6103c4610fb3565b6040516103d19190613dcc565b60405180910390f35b6103e2610fdd565b6040516103ef9190613e70565b60405180910390f35b610412600480360381019061040d9190613804565b61106f565b005b61042e60048036038101906104299190613694565b6118bb565b005b61044a60048036038101906104459190613619565b6118d1565b005b6104666004803603810190610461919061379f565b611933565b6040516104739190613e70565b60405180910390f35b61049660048036038101906104919190613565565b61199b565b6040516104a39190613e33565b60405180910390f35b6104c660048036038101906104c19190613804565b611a97565b6040516104d593929190613e92565b60405180910390f35b6104f860048036038101906104f3919061375e565b611c0e565b005b610514600480360381019061050f919061358e565b611c1b565b6040516105219190613e55565b60405180910390f35b610544600480360381019061053f9190613565565b611caf565b005b60007f780e9d63000000000000000000000000000000000000000000000000000000007bffffffffffffffffffffffffffffffffffffffffffffffffffffffff1916827bffffffffffffffffffffffffffffffffffffffffffffffffffffffff191614806105b957506105b882611d33565b5b9050919050565b6060600080546105cf90614600565b80601f01602080910402602001604051908101604052809291908181526020018280546105fb90614600565b80156106485780601f1061061d57610100808354040283529160200191610648565b820191906000526020600020905b81548152906001019060200180831161062b57829003601f168201915b5050505050905090565b600061065d82611e15565b6004600083815260200190815260200160002060009054906101000a900473ffffffffffffffffffffffffffffffffffffffff169050919050565b60006106a382610e35565b90508073ffffffffffffffffffffffffffffffffffffffff168373ffffffffffffffffffffffffffffffffffffffff161415610714576040517f08c379a000000000000000000000000000000000000000000000000000000000815260040161070b906141b5565b60405180910390fd5b8073ffffffffffffffffffffffffffffffffffffffff16610733611e60565b73ffffffffffffffffffffffffffffffffffffffff16148061076257506107618161075c611e60565b611c1b565b5b6107a1576040517f08c379a000000000000000000000000000000000000000000000000000000000815260040161079890614135565b60405180910390fd5b6107ab8383611e68565b505050565b6000600880549050905090565b6107ce6107c8611e60565b82611f21565b61080d576040517f08c379a000000000000000000000000000000000000000000000000000000000815260040161080490614235565b60405180910390fd5b610818838383611fb6565b505050565b600061082883610ee7565b8210610869576040517f08c379a000000000000000000000000000000000000000000000000000000000815260040161086090613f95565b60405180910390fd5b600660008473ffffffffffffffffffffffffffffffffffffffff1673ffffffffffffffffffffffffffffffffffffffff168152602001908152602001600020600083815260200190815260200160002054905092915050565b600d6020528060005260406000206000915090508060000180546108e590614600565b80601f016020809104026020016040519081016040528092919081815260200182805461091190614600565b801561095e5780601f106109335761010080835404028352916020019161095e565b820191906000526020600020905b81548152906001019060200180831161094157829003601f168201915b5050505050908060010160009054906101000a900460ff16908060010160019054906101000a900461ffff16908060030160009054906101000a900460ff16908060040154908060050160009054906101000a900461ffff16908060050160029054906101000a900460ff16908060060154905088565b6109de8161221d565b610a1d576040517f08c379a0000000000000000000000000000000000000000000000000000000008152600401610a1490614115565b60405180910390fd5b3373ffffffffffffffffffffffffffffffffffffffff16610a3d83610e35565b73ffffffffffffffffffffffffffffffffffffffff1614610a93576040517f08c379a0000000000000000000000000000000000000000000000000000000008152600401610a8a90614215565b60405180910390fd5b3373ffffffffffffffffffffffffffffffffffffffff16610ab382610e35565b73ffffffffffffffffffffffffffffffffffffffff161415610b0a576040517f08c379a0000000000000000000000000000000000000000000000000000000008152600401610b0190613f75565b60405180910390fd5b600d600083815260200190815260200160002060030160009054906101000a900460ff1615610b6e576040517f08c379a0000000000000000000000000000000000000000000000000000000008152600401610b6590613f55565b60405180910390fd5b600d600082815260200190815260200160002060030160009054906101000a900460ff1615610bd2576040517f08c379a0000000000000000000000000000000000000000000000000000000008152600401610bc990614035565b60405180910390fd5b6001600d600084815260200190815260200160002060030160006101000a81548160ff02191690831515021790555080600d6000848152602001908152602001600020600401819055506001600d600084815260200190815260200160002060050160026101000a81548160ff02191690831515021790555042600d6000848152602001908152602001600020600601819055506001600d6000600d600086815260200190815260200160002060040154815260200190815260200160002060030160006101000a81548160ff02191690831515021790555081600d6000600d6000868152602001908152602001600020600401548152602001908152602001600020600401819055506000600d6000600d600086815260200190815260200160002060040154815260200190815260200160002060050160026101000a81548160ff0219169083151502179055507fbad853270e74b043094db20c861bb5c5fe66a3e770048db696c783a118ccbfcd81604051610d509190614295565b60405180910390a15050565b610d77838383604051806020016040528060008152506118d1565b505050565b6000610d866107b0565b8210610dc7576040517f08c379a0000000000000000000000000000000000000000000000000000000008152600401610dbe906141d5565b60405180910390fd5b60088281548110610e01577f4e487b7100000000000000000000000000000000000000000000000000000000600052603260045260246000fd5b90600052602060002001549050919050565b610e1b612289565b80600b9080519060200190610e31929190613374565b5050565b6000806002600084815260200190815260200160002060009054906101000a900473ffffffffffffffffffffffffffffffffffffffff169050600073ffffffffffffffffffffffffffffffffffffffff168173ffffffffffffffffffffffffffffffffffffffff161415610ede576040517f08c379a0000000000000000000000000000000000000000000000000000000008152600401610ed590614195565b60405180910390fd5b80915050919050565b60008073ffffffffffffffffffffffffffffffffffffffff168273ffffffffffffffffffffffffffffffffffffffff161415610f58576040517f08c379a0000000000000000000000000000000000000000000000000000000008152600401610f4f906140d5565b60405180910390fd5b600360008373ffffffffffffffffffffffffffffffffffffffff1673ffffffffffffffffffffffffffffffffffffffff168152602001908152602001600020549050919050565b610fa7612289565b610fb16000612307565b565b6000600a60009054906101000a900473ffffffffffffffffffffffffffffffffffffffff16905090565b606060018054610fec90614600565b80601f016020809104026020016040519081016040528092919081815260200182805461101890614600565b80156110655780601f1061103a57610100808354040283529160200191611065565b820191906000526020600020905b81548152906001019060200180831161104857829003601f168201915b5050505050905090565b3373ffffffffffffffffffffffffffffffffffffffff1661108f83610e35565b73ffffffffffffffffffffffffffffffffffffffff16146110e5576040517f08c379a00000000000000000000000000000000000000000000000000000000081526004016110dc90614215565b60405180910390fd5b600d600083815260200190815260200160002060030160009054906101000a900460ff16611148576040517f08c379a000000000000000000000000000000000000000000000000000000000815260040161113f90614255565b60405180910390fd5b600d600083815260200190815260200160002060050160029054906101000a900460ff16156111d757600c54600d6000848152602001908152602001600020600601544261119691906144fb565b116111d6576040517f08c379a00000000000000000000000000000000000000000000000000000000081526004016111cd906140f5565b60405180910390fd5b5b6000600d600084815260200190815260200160002060020160008360ff1660ff168152602001908152602001600020600101541161124a576040517f08c379a000000000000000000000000000000000000000000000000000000000815260040161124190614055565b60405180910390fd5b600d600083815260200190815260200160002060020160008260ff1660ff1681526020019081526020016000206002015461134060006064600d600087815260200190815260200160002060020160008660ff1660ff16815260200190815260200160002060000180546112bd90614600565b80601f01602080910402602001604051908101604052809291908181526020018280546112e990614600565b80156113365780601f1061130b57610100808354040283529160200191611336565b820191906000526020600020905b81548152906001019060200180831161131957829003601f168201915b50505050506123cd565b101561182d57600d600083815260200190815260200160002060020160008260ff1660ff16815260200190815260200160002060010154600d6000600d600086815260200190815260200160002060040154815260200190815260200160002060050160009054906101000a900461ffff1661ffff161161161657600d6000838152602001908152602001600020600101600081819054906101000a900460ff16809291906113ee906146ac565b91906101000a81548160ff021916908360ff160217905550506005600d600084815260200190815260200160002060010160018282829054906101000a900461ffff1661143b919061443c565b92506101000a81548161ffff021916908361ffff160217905550600d600083815260200190815260200160002060010160019054906101000a900461ffff16600d600084815260200190815260200160002060050160006101000a81548161ffff021916908361ffff1602179055506000600d600084815260200190815260200160002060030160006101000a81548160ff021916908315150217905550600d6000600d600085815260200190815260200160002060040154815260200190815260200160002060010160019054906101000a900461ffff16600d6000600d600086815260200190815260200160002060040154815260200190815260200160002060050160006101000a81548161ffff021916908361ffff1602179055506000600d6000600d600086815260200190815260200160002060040154815260200190815260200160002060030160006101000a81548160ff0219169083151502179055507f37acb25e9a3160fa43ff7ccbed6c2dfb13d2208da8c4841c42125ef746e8e002600d600084815260200190815260200160002060040154600d600085815260200190815260200160002060010160009054906101000a900460ff166040516116099291906142d9565b60405180910390a1611828565b611697600d600084815260200190815260200160002060020160008360ff1660ff16815260200190815260200160002060010154600d6000600d600087815260200190815260200160002060040154815260200190815260200160002060050160009054906101000a900461ffff1661ffff1661246990919063ffffffff16565b600d6000600d600086815260200190815260200160002060040154815260200190815260200160002060050160006101000a81548161ffff021916908361ffff1602179055506001600d600084815260200190815260200160002060050160026101000a81548160ff02191690831515021790555042600d6000848152602001908152602001600020600601819055506000600d6000600d600086815260200190815260200160002060040154815260200190815260200160002060050160026101000a81548160ff0219169083151502179055507fc699978331a941ebac20688941ba767c3c60d591bf7c4e0b34ea6bca09ee1cd0600d600084815260200190815260200160002060040154600d600085815260200190815260200160002060020160008460ff1660ff16815260200190815260200160002060010154600d6000600d600088815260200190815260200160002060040154815260200190815260200160002060050160009054906101000a900461ffff1660405161181f93929190614302565b60405180910390a15b6118b7565b7f80007f9835ad982a74c11b660527b568da4835f87b914b9e5a2f338ba9163032600d600084815260200190815260200160002060040154600d6000600d600087815260200190815260200160002060040154815260200190815260200160002060050160009054906101000a900461ffff166040516118ae9291906142b0565b60405180910390a15b5050565b6118cd6118c6611e60565b838361247f565b5050565b6118e26118dc611e60565b83611f21565b611921576040517f08c379a000000000000000000000000000000000000000000000000000000000815260040161191890614235565b60405180910390fd5b61192d848484846125ec565b50505050565b606061193e82611e15565b6000611948612648565b905060008151116119685760405180602001604052806000815250611993565b80611972846126da565b604051602001611983929190613d6f565b6040516020818303038152906040525b915050919050565b606060006119a883610ee7565b67ffffffffffffffff8111156119e7577f4e487b7100000000000000000000000000000000000000000000000000000000600052604160045260246000fd5b604051908082528060200260200182016040528015611a155781602001602082028036833780820191505090505b50905060005b611a2484610ee7565b811015611a8d57611a35848261081d565b828281518110611a6e577f4e487b7100000000000000000000000000000000000000000000000000000000600052603260045260246000fd5b6020026020010181815250508080611a8590614663565b915050611a1b565b8192505050919050565b60606000806000600d600087815260200190815260200160002060020160008660ff1660ff1681526020019081526020016000206001015411611b0f576040517f08c379a0000000000000000000000000000000000000000000000000000000008152600401611b06906140b5565b60405180910390fd5b6000600d600087815260200190815260200160002060020160008660ff1660ff168152602001908152602001600020604051806060016040529081600082018054611b5990614600565b80601f0160208091040260200160405190810160405280929190818152602001828054611b8590614600565b8015611bd25780601f10611ba757610100808354040283529160200191611bd2565b820191906000526020600020905b815481529060010190602001808311611bb557829003601f168201915b50505050508152602001600182015481526020016002820154815250509050806000015181602001518260400151935093509350509250925092565b611c183382612887565b50565b6000600560008473ffffffffffffffffffffffffffffffffffffffff1673ffffffffffffffffffffffffffffffffffffffff16815260200190815260200160002060008373ffffffffffffffffffffffffffffffffffffffff1673ffffffffffffffffffffffffffffffffffffffff16815260200190815260200160002060009054906101000a900460ff16905092915050565b611cb7612289565b600073ffffffffffffffffffffffffffffffffffffffff168173ffffffffffffffffffffffffffffffffffffffff161415611d27576040517f08c379a0000000000000000000000000000000000000000000000000000000008152600401611d1e90613fd5565b60405180910390fd5b611d3081612307565b50565b60007f80ac58cd000000000000000000000000000000000000000000000000000000007bffffffffffffffffffffffffffffffffffffffffffffffffffffffff1916827bffffffffffffffffffffffffffffffffffffffffffffffffffffffff19161480611dfe57507f5b5e139f000000000000000000000000000000000000000000000000000000007bffffffffffffffffffffffffffffffffffffffffffffffffffffffff1916827bffffffffffffffffffffffffffffffffffffffffffffffffffffffff1916145b80611e0e5750611e0d82612a67565b5b9050919050565b611e1e8161221d565b611e5d576040517f08c379a0000000000000000000000000000000000000000000000000000000008152600401611e5490614195565b60405180910390fd5b50565b600033905090565b816004600083815260200190815260200160002060006101000a81548173ffffffffffffffffffffffffffffffffffffffff021916908373ffffffffffffffffffffffffffffffffffffffff160217905550808273ffffffffffffffffffffffffffffffffffffffff16611edb83610e35565b73ffffffffffffffffffffffffffffffffffffffff167f8c5be1e5ebec7d5bd14f71427d1e84f3dd0314c0f7b2291e5b200ac8c7c3b92560405160405180910390a45050565b600080611f2d83610e35565b90508073ffffffffffffffffffffffffffffffffffffffff168473ffffffffffffffffffffffffffffffffffffffff161480611f6f5750611f6e8185611c1b565b5b80611fad57508373ffffffffffffffffffffffffffffffffffffffff16611f9584610652565b73ffffffffffffffffffffffffffffffffffffffff16145b91505092915050565b8273ffffffffffffffffffffffffffffffffffffffff16611fd682610e35565b73ffffffffffffffffffffffffffffffffffffffff161461202c576040517f08c379a000000000000000000000000000000000000000000000000000000000815260040161202390613ff5565b60405180910390fd5b600073ffffffffffffffffffffffffffffffffffffffff168273ffffffffffffffffffffffffffffffffffffffff16141561209c576040517f08c379a000000000000000000000000000000000000000000000000000000000815260040161209390614075565b60405180910390fd5b6120a7838383612ad1565b6120b2600082611e68565b6001600360008573ffffffffffffffffffffffffffffffffffffffff1673ffffffffffffffffffffffffffffffffffffffff168152602001908152602001600020600082825461210291906144fb565b925050819055506001600360008473ffffffffffffffffffffffffffffffffffffffff1673ffffffffffffffffffffffffffffffffffffffff16815260200190815260200160002060008282546121599190614474565b92505081905550816002600083815260200190815260200160002060006101000a81548173ffffffffffffffffffffffffffffffffffffffff021916908373ffffffffffffffffffffffffffffffffffffffff160217905550808273ffffffffffffffffffffffffffffffffffffffff168473ffffffffffffffffffffffffffffffffffffffff167fddf252ad1be2c89b69c2b068fc378daa952ba7f163c4a11628f55a4df523b3ef60405160405180910390a4612218838383612be5565b505050565b60008073ffffffffffffffffffffffffffffffffffffffff166002600084815260200190815260200160002060009054906101000a900473ffffffffffffffffffffffffffffffffffffffff1673ffffffffffffffffffffffffffffffffffffffff1614159050919050565b612291611e60565b73ffffffffffffffffffffffffffffffffffffffff166122af610fb3565b73ffffffffffffffffffffffffffffffffffffffff1614612305576040517f08c379a00000000000000000000000000000000000000000000000000000000081526004016122fc90614175565b60405180910390fd5b565b6000600a60009054906101000a900473ffffffffffffffffffffffffffffffffffffffff16905081600a60006101000a81548173ffffffffffffffffffffffffffffffffffffffff021916908373ffffffffffffffffffffffffffffffffffffffff1602179055508173ffffffffffffffffffffffffffffffffffffffff168173ffffffffffffffffffffffffffffffffffffffff167f8be0079c531659141344cd1fd0a4f28419497f9722a3daafe3b4186f6b6457e060405160405180910390a35050565b6000838311612411576040517f08c379a0000000000000000000000000000000000000000000000000000000008152600401612408906141f5565b60405180910390fd5b83848461241e91906144fb565b42843360405160200161243393929190613d93565b6040516020818303038152906040528051906020012060001c6124569190614704565b6124609190614474565b90509392505050565b6000818361247791906144fb565b905092915050565b8173ffffffffffffffffffffffffffffffffffffffff168373ffffffffffffffffffffffffffffffffffffffff1614156124ee576040517f08c379a00000000000000000000000000000000000000000000000000000000081526004016124e590614095565b60405180910390fd5b80600560008573ffffffffffffffffffffffffffffffffffffffff1673ffffffffffffffffffffffffffffffffffffffff16815260200190815260200160002060008473ffffffffffffffffffffffffffffffffffffffff1673ffffffffffffffffffffffffffffffffffffffff16815260200190815260200160002060006101000a81548160ff0219169083151502179055508173ffffffffffffffffffffffffffffffffffffffff168373ffffffffffffffffffffffffffffffffffffffff167f17307eab39ab6107e8899845ad3d59bd9653f200f220920489ca2b5937696c31836040516125df9190613e55565b60405180910390a3505050565b6125f7848484611fb6565b61260384848484612bea565b612642576040517f08c379a000000000000000000000000000000000000000000000000000000000815260040161263990613fb5565b60405180910390fd5b50505050565b6060600b805461265790614600565b80601f016020809104026020016040519081016040528092919081815260200182805461268390614600565b80156126d05780601f106126a5576101008083540402835291602001916126d0565b820191906000526020600020905b8154815290600101906020018083116126b357829003601f168201915b5050505050905090565b60606000821415612722576040518060400160405280600181526020017f30000000000000000000000000000000000000000000000000000000000000008152509050612882565b600082905060005b6000821461275457808061273d90614663565b915050600a8261274d91906144ca565b915061272a565b60008167ffffffffffffffff811115612796577f4e487b7100000000000000000000000000000000000000000000000000000000600052604160045260246000fd5b6040519080825280601f01601f1916602001820160405280156127c85781602001600182028036833780820191505090505b5090505b6000851461287b576001826127e191906144fb565b9150600a856127f09190614704565b60306127fc9190614474565b60f81b818381518110612838577f4e487b7100000000000000000000000000000000000000000000000000000000600052603260045260246000fd5b60200101907effffffffffffffffffffffffffffffffffffffffffffffffffffffffffffff1916908160001a905350600a8561287491906144ca565b94506127cc565b8093505050505b919050565b6006600161289484610ee7565b61289e9190614474565b11156128df576040517f08c379a00000000000000000000000000000000000000000000000000000000081526004016128d690614275565b60405180910390fd5b600060016128eb6107b0565b6128f59190614474565b90506129018382612d81565b6000600d6000838152602001908152602001600020905082816000019080519060200190612930929190613374565b5060018160010160006101000a81548160ff021916908360ff160217905550612964600a601461295f856126da565b6123cd565b8160010160016101000a81548161ffff021916908361ffff1602179055506000600d600084815260200190815260200160002060020160008060ff16815260200190815260200160002090506040518060400160405280600681526020017f63686172676500000000000000000000000000000000000000000000000000008152508160000190805190602001906129fd929190613374565b5060058160010181905550604b816002018190555060008260030160006101000a81548160ff0219169083151502179055508160010160019054906101000a900461ffff168260050160006101000a81548161ffff021916908361ffff1602179055505050505050565b60007f01ffc9a7000000000000000000000000000000000000000000000000000000007bffffffffffffffffffffffffffffffffffffffffffffffffffffffff1916827bffffffffffffffffffffffffffffffffffffffffffffffffffffffff1916149050919050565b612adc838383612d9f565b600073ffffffffffffffffffffffffffffffffffffffff168373ffffffffffffffffffffffffffffffffffffffff161415612b1f57612b1a81612da4565b612b5e565b8173ffffffffffffffffffffffffffffffffffffffff168373ffffffffffffffffffffffffffffffffffffffff1614612b5d57612b5c8382612ded565b5b5b600073ffffffffffffffffffffffffffffffffffffffff168273ffffffffffffffffffffffffffffffffffffffff161415612ba157612b9c81612f5a565b612be0565b8273ffffffffffffffffffffffffffffffffffffffff168273ffffffffffffffffffffffffffffffffffffffff1614612bdf57612bde828261309d565b5b5b505050565b505050565b6000612c0b8473ffffffffffffffffffffffffffffffffffffffff1661311c565b15612d74578373ffffffffffffffffffffffffffffffffffffffff1663150b7a02612c34611e60565b8786866040518563ffffffff1660e01b8152600401612c569493929190613de7565b602060405180830381600087803b158015612c7057600080fd5b505af1925050508015612ca157506040513d601f19601f82011682018060405250810190612c9e9190613735565b60015b612d24573d8060008114612cd1576040519150601f19603f3d011682016040523d82523d6000602084013e612cd6565b606091505b50600081511415612d1c576040517f08c379a0000000000000000000000000000000000000000000000000000000008152600401612d1390613fb5565b60405180910390fd5b805181602001fd5b63150b7a0260e01b7bffffffffffffffffffffffffffffffffffffffffffffffffffffffff1916817bffffffffffffffffffffffffffffffffffffffffffffffffffffffff191614915050612d79565b600190505b949350505050565b612d9b82826040518060200160405280600081525061313f565b5050565b505050565b6008805490506009600083815260200190815260200160002081905550600881908060018154018082558091505060019003906000526020600020016000909190919091505550565b60006001612dfa84610ee7565b612e0491906144fb565b9050600060076000848152602001908152602001600020549050818114612ee9576000600660008673ffffffffffffffffffffffffffffffffffffffff1673ffffffffffffffffffffffffffffffffffffffff168152602001908152602001600020600084815260200190815260200160002054905080600660008773ffffffffffffffffffffffffffffffffffffffff1673ffffffffffffffffffffffffffffffffffffffff168152602001908152602001600020600084815260200190815260200160002081905550816007600083815260200190815260200160002081905550505b6007600084815260200190815260200160002060009055600660008573ffffffffffffffffffffffffffffffffffffffff1673ffffffffffffffffffffffffffffffffffffffff16815260200190815260200160002060008381526020019081526020016000206000905550505050565b60006001600880549050612f6e91906144fb565b9050600060096000848152602001908152602001600020549050600060088381548110612fc4577f4e487b7100000000000000000000000000000000000000000000000000000000600052603260045260246000fd5b90600052602060002001549050806008838154811061300c577f4e487b7100000000000000000000000000000000000000000000000000000000600052603260045260246000fd5b906000526020600020018190555081600960008381526020019081526020016000208190555060096000858152602001908152602001600020600090556008805480613081577f4e487b7100000000000000000000000000000000000000000000000000000000600052603160045260246000fd5b6001900381819060005260206000200160009055905550505050565b60006130a883610ee7565b905081600660008573ffffffffffffffffffffffffffffffffffffffff1673ffffffffffffffffffffffffffffffffffffffff168152602001908152602001600020600083815260200190815260200160002081905550806007600084815260200190815260200160002081905550505050565b6000808273ffffffffffffffffffffffffffffffffffffffff163b119050919050565b613149838361319a565b6131566000848484612bea565b613195576040517f08c379a000000000000000000000000000000000000000000000000000000000815260040161318c90613fb5565b60405180910390fd5b505050565b600073ffffffffffffffffffffffffffffffffffffffff168273ffffffffffffffffffffffffffffffffffffffff16141561320a576040517f08c379a000000000000000000000000000000000000000000000000000000000815260040161320190614155565b60405180910390fd5b6132138161221d565b15613253576040517f08c379a000000000000000000000000000000000000000000000000000000000815260040161324a90614015565b60405180910390fd5b61325f60008383612ad1565b6001600360008473ffffffffffffffffffffffffffffffffffffffff1673ffffffffffffffffffffffffffffffffffffffff16815260200190815260200160002060008282546132af9190614474565b92505081905550816002600083815260200190815260200160002060006101000a81548173ffffffffffffffffffffffffffffffffffffffff021916908373ffffffffffffffffffffffffffffffffffffffff160217905550808273ffffffffffffffffffffffffffffffffffffffff16600073ffffffffffffffffffffffffffffffffffffffff167fddf252ad1be2c89b69c2b068fc378daa952ba7f163c4a11628f55a4df523b3ef60405160405180910390a461337060008383612be5565b5050565b82805461338090614600565b90600052602060002090601f0160209004810192826133a257600085556133e9565b82601f106133bb57805160ff19168380011785556133e9565b828001600101855582156133e9579182015b828111156133e85782518255916020019190600101906133cd565b5b5090506133f691906133fa565b5090565b5b808211156134135760008160009055506001016133fb565b5090565b600061342a6134258461435e565b614339565b90508281526020810184848401111561344257600080fd5b61344d8482856145be565b509392505050565b60006134686134638461438f565b614339565b90508281526020810184848401111561348057600080fd5b61348b8482856145be565b509392505050565b6000813590506134a281614e73565b92915050565b6000813590506134b781614e8a565b92915050565b6000813590506134cc81614ea1565b92915050565b6000815190506134e181614ea1565b92915050565b600082601f8301126134f857600080fd5b8135613508848260208601613417565b91505092915050565b600082601f83011261352257600080fd5b8135613532848260208601613455565b91505092915050565b60008135905061354a81614eb8565b92915050565b60008135905061355f81614ecf565b92915050565b60006020828403121561357757600080fd5b600061358584828501613493565b91505092915050565b600080604083850312156135a157600080fd5b60006135af85828601613493565b92505060206135c085828601613493565b9150509250929050565b6000806000606084860312156135df57600080fd5b60006135ed86828701613493565b93505060206135fe86828701613493565b925050604061360f8682870161353b565b9150509250925092565b6000806000806080858703121561362f57600080fd5b600061363d87828801613493565b945050602061364e87828801613493565b935050604061365f8782880161353b565b925050606085013567ffffffffffffffff81111561367c57600080fd5b613688878288016134e7565b91505092959194509250565b600080604083850312156136a757600080fd5b60006136b585828601613493565b92505060206136c6858286016134a8565b9150509250929050565b600080604083850312156136e357600080fd5b60006136f185828601613493565b92505060206137028582860161353b565b9150509250929050565b60006020828403121561371e57600080fd5b600061372c848285016134bd565b91505092915050565b60006020828403121561374757600080fd5b6000613755848285016134d2565b91505092915050565b60006020828403121561377057600080fd5b600082013567ffffffffffffffff81111561378a57600080fd5b61379684828501613511565b91505092915050565b6000602082840312156137b157600080fd5b60006137bf8482850161353b565b91505092915050565b600080604083850312156137db57600080fd5b60006137e98582860161353b565b92505060206137fa8582860161353b565b9150509250929050565b6000806040838503121561381757600080fd5b60006138258582860161353b565b925050602061383685828601613550565b9150509250929050565b600061384c8383613d2b565b60208301905092915050565b6138618161452f565b82525050565b6138786138738261452f565b6146d6565b82525050565b6000613889826143d0565b61389381856143fe565b935061389e836143c0565b8060005b838110156138cf5781516138b68882613840565b97506138c1836143f1565b9250506001810190506138a2565b5085935050505092915050565b6138e581614541565b82525050565b60006138f6826143db565b613900818561440f565b93506139108185602086016145cd565b613919816147f1565b840191505092915050565b600061392f826143e6565b6139398185614420565b93506139498185602086016145cd565b613952816147f1565b840191505092915050565b6000613968826143e6565b6139728185614431565b93506139828185602086016145cd565b80840191505092915050565b600061399b602083614420565b91506139a68261480f565b602082019050919050565b60006139be602083614420565b91506139c982614838565b602082019050919050565b60006139e1602b83614420565b91506139ec82614861565b604082019050919050565b6000613a04603283614420565b9150613a0f826148b0565b604082019050919050565b6000613a27602683614420565b9150613a32826148ff565b604082019050919050565b6000613a4a602583614420565b9150613a558261494e565b604082019050919050565b6000613a6d601c83614420565b9150613a788261499d565b602082019050919050565b6000613a90601f83614420565b9150613a9b826149c6565b602082019050919050565b6000613ab3604583614420565b9150613abe826149ef565b606082019050919050565b6000613ad6602483614420565b9150613ae182614a64565b604082019050919050565b6000613af9601983614420565b9150613b0482614ab3565b602082019050919050565b6000613b1c602583614420565b9150613b2782614adc565b604082019050919050565b6000613b3f602983614420565b9150613b4a82614b2b565b604082019050919050565b6000613b62601883614420565b9150613b6d82614b7a565b602082019050919050565b6000613b85602b83614420565b9150613b9082614ba3565b604082019050919050565b6000613ba8603e83614420565b9150613bb382614bf2565b604082019050919050565b6000613bcb602083614420565b9150613bd682614c41565b602082019050919050565b6000613bee602083614420565b9150613bf982614c6a565b602082019050919050565b6000613c11601883614420565b9150613c1c82614c93565b602082019050919050565b6000613c34602183614420565b9150613c3f82614cbc565b604082019050919050565b6000613c57602c83614420565b9150613c6282614d0b565b604082019050919050565b6000613c7a603183614420565b9150613c8582614d5a565b604082019050919050565b6000613c9d601183614420565b9150613ca882614da9565b602082019050919050565b6000613cc0602e83614420565b9150613ccb82614dd2565b604082019050919050565b6000613ce3600e83614420565b9150613cee82614e21565b602082019050919050565b6000613d06601d83614420565b9150613d1182614e4a565b602082019050919050565b613d2581614579565b82525050565b613d34816145a7565b82525050565b613d43816145a7565b82525050565b613d5a613d55826145a7565b6146fa565b82525050565b613d69816145b1565b82525050565b6000613d7b828561395d565b9150613d87828461395d565b91508190509392505050565b6000613d9f8286613d49565b602082019150613daf828561395d565b9150613dbb8284613867565b601482019150819050949350505050565b6000602082019050613de16000830184613858565b92915050565b6000608082019050613dfc6000830187613858565b613e096020830186613858565b613e166040830185613d3a565b8181036060830152613e2881846138eb565b905095945050505050565b60006020820190508181036000830152613e4d818461387e565b905092915050565b6000602082019050613e6a60008301846138dc565b92915050565b60006020820190508181036000830152613e8a8184613924565b905092915050565b60006060820190508181036000830152613eac8186613924565b9050613ebb6020830185613d3a565b613ec86040830184613d3a565b949350505050565b6000610100820190508181036000830152613eeb818b613924565b9050613efa602083018a613d60565b613f076040830189613d1c565b613f1460608301886138dc565b613f216080830187613d3a565b613f2e60a0830186613d1c565b613f3b60c08301856138dc565b613f4860e0830184613d3a565b9998505050505050505050565b60006020820190508181036000830152613f6e8161398e565b9050919050565b60006020820190508181036000830152613f8e816139b1565b9050919050565b60006020820190508181036000830152613fae816139d4565b9050919050565b60006020820190508181036000830152613fce816139f7565b9050919050565b60006020820190508181036000830152613fee81613a1a565b9050919050565b6000602082019050818103600083015261400e81613a3d565b9050919050565b6000602082019050818103600083015261402e81613a60565b9050919050565b6000602082019050818103600083015261404e81613a83565b9050919050565b6000602082019050818103600083015261406e81613aa6565b9050919050565b6000602082019050818103600083015261408e81613ac9565b9050919050565b600060208201905081810360008301526140ae81613aec565b9050919050565b600060208201905081810360008301526140ce81613b0f565b9050919050565b600060208201905081810360008301526140ee81613b32565b9050919050565b6000602082019050818103600083015261410e81613b55565b9050919050565b6000602082019050818103600083015261412e81613b78565b9050919050565b6000602082019050818103600083015261414e81613b9b565b9050919050565b6000602082019050818103600083015261416e81613bbe565b9050919050565b6000602082019050818103600083015261418e81613be1565b9050919050565b600060208201905081810360008301526141ae81613c04565b9050919050565b600060208201905081810360008301526141ce81613c27565b9050919050565b600060208201905081810360008301526141ee81613c4a565b9050919050565b6000602082019050818103600083015261420e81613c6d565b9050919050565b6000602082019050818103600083015261422e81613c90565b9050919050565b6000602082019050818103600083015261424e81613cb3565b9050919050565b6000602082019050818103600083015261426e81613cd6565b9050919050565b6000602082019050818103600083015261428e81613cf9565b9050919050565b60006020820190506142aa6000830184613d3a565b92915050565b60006040820190506142c56000830185613d3a565b6142d26020830184613d1c565b9392505050565b60006040820190506142ee6000830185613d3a565b6142fb6020830184613d60565b9392505050565b60006060820190506143176000830186613d3a565b6143246020830185613d60565b6143316040830184613d1c565b949350505050565b6000614343614354565b905061434f8282614632565b919050565b6000604051905090565b600067ffffffffffffffff821115614379576143786147c2565b5b614382826147f1565b9050602081019050919050565b600067ffffffffffffffff8211156143aa576143a96147c2565b5b6143b3826147f1565b9050602081019050919050565b6000819050602082019050919050565b600081519050919050565b600081519050919050565b600081519050919050565b6000602082019050919050565b600082825260208201905092915050565b600082825260208201905092915050565b600082825260208201905092915050565b600081905092915050565b600061444782614579565b915061445283614579565b92508261ffff0382111561446957614468614735565b5b828201905092915050565b600061447f826145a7565b915061448a836145a7565b9250827fffffffffffffffffffffffffffffffffffffffffffffffffffffffffffffffff038211156144bf576144be614735565b5b828201905092915050565b60006144d5826145a7565b91506144e0836145a7565b9250826144f0576144ef614764565b5b828204905092915050565b6000614506826145a7565b9150614511836145a7565b92508282101561452457614523614735565b5b828203905092915050565b600061453a82614587565b9050919050565b60008115159050919050565b60007fffffffff0000000000000000000000000000000000000000000000000000000082169050919050565b600061ffff82169050919050565b600073ffffffffffffffffffffffffffffffffffffffff82169050919050565b6000819050919050565b600060ff82169050919050565b82818337600083830152505050565b60005b838110156145eb5780820151818401526020810190506145d0565b838111156145fa576000848401525b50505050565b6000600282049050600182168061461857607f821691505b6020821081141561462c5761462b614793565b5b50919050565b61463b826147f1565b810181811067ffffffffffffffff8211171561465a576146596147c2565b5b80604052505050565b600061466e826145a7565b91507fffffffffffffffffffffffffffffffffffffffffffffffffffffffffffffffff8214156146a1576146a0614735565b5b600182019050919050565b60006146b7826145b1565b915060ff8214156146cb576146ca614735565b5b600182019050919050565b60006146e1826146e8565b9050919050565b60006146f382614802565b9050919050565b6000819050919050565b600061470f826145a7565b915061471a836145a7565b92508261472a57614729614764565b5b828206905092915050565b7f4e487b7100000000000000000000000000000000000000000000000000000000600052601160045260246000fd5b7f4e487b7100000000000000000000000000000000000000000000000000000000600052601260045260246000fd5b7f4e487b7100000000000000000000000000000000000000000000000000000000600052602260045260246000fd5b7f4e487b7100000000000000000000000000000000000000000000000000000000600052604160045260246000fd5b6000601f19601f8301169050919050565b60008160601b9050919050565b7f596f757220706f6b656d6f6e20697320616c7265616479206669676874696e67600082015250565b7f43616e277420626520746865206f776e6572206f662074686520656e6e656d79600082015250565b7f455243373231456e756d657261626c653a206f776e657220696e646578206f7560008201527f74206f6620626f756e6473000000000000000000000000000000000000000000602082015250565b7f4552433732313a207472616e7366657220746f206e6f6e20455243373231526560008201527f63656976657220696d706c656d656e7465720000000000000000000000000000602082015250565b7f4f776e61626c653a206e6577206f776e657220697320746865207a65726f206160008201527f6464726573730000000000000000000000000000000000000000000000000000602082015250565b7f4552433732313a207472616e736665722066726f6d20696e636f72726563742060008201527f6f776e6572000000000000000000000000000000000000000000000000000000602082015250565b7f4552433732313a20746f6b656e20616c7265616479206d696e74656400000000600082015250565b7f596f75722074617267657420697320616c7265616479206669676874696e6700600082015250565b7f546869732061747461636b20646f6573206e6f74206578697374206f7220686160008201527f7665206e6f74206265206c6561726e65642079657420627920796f757220706f60208201527f6b656d6f6e000000000000000000000000000000000000000000000000000000604082015250565b7f4552433732313a207472616e7366657220746f20746865207a65726f2061646460008201527f7265737300000000000000000000000000000000000000000000000000000000602082015250565b7f4552433732313a20617070726f766520746f2063616c6c657200000000000000600082015250565b7f7468697320746f6b656e6f6d20646f65736e2774206b6e6f772074686973206160008201527f747461636b000000000000000000000000000000000000000000000000000000602082015250565b7f4552433732313a2061646472657373207a65726f206973206e6f74206120766160008201527f6c6964206f776e65720000000000000000000000000000000000000000000000602082015250565b7f4974277320796f7572206f706f6e656e742773207475726e0000000000000000600082015250565b7f57726f6e67207665727375734964203a20596f75722074617267657420646f6560008201527f73206e6f74206578697374000000000000000000000000000000000000000000602082015250565b7f4552433732313a20617070726f76652063616c6c6572206973206e6f7420746f60008201527f6b656e206f776e6572206e6f7220617070726f76656420666f7220616c6c0000602082015250565b7f4552433732313a206d696e7420746f20746865207a65726f2061646472657373600082015250565b7f4f776e61626c653a2063616c6c6572206973206e6f7420746865206f776e6572600082015250565b7f4552433732313a20696e76616c696420746f6b656e2049440000000000000000600082015250565b7f4552433732313a20617070726f76616c20746f2063757272656e74206f776e6560008201527f7200000000000000000000000000000000000000000000000000000000000000602082015250565b7f455243373231456e756d657261626c653a20676c6f62616c20696e646578206f60008201527f7574206f6620626f756e64730000000000000000000000000000000000000000602082015250565b7f6d696e696d616c2076616c75652063616e27742062652067726561746572207460008201527f68616e206d6178696d616c2076616c7565000000000000000000000000000000602082015250565b7f4d75737420626520746865206f776e6572000000000000000000000000000000600082015250565b7f4552433732313a2063616c6c6572206973206e6f7420746f6b656e206f776e6560008201527f72206e6f7220617070726f766564000000000000000000000000000000000000602082015250565b7f4e6f7420696e2061206669676874000000000000000000000000000000000000600082015250565b7f43616e742068617665206d6f7265207468616e203620506f6b656d6f6e000000600082015250565b614e7c8161452f565b8114614e8757600080fd5b50565b614e9381614541565b8114614e9e57600080fd5b50565b614eaa8161454d565b8114614eb557600080fd5b50565b614ec1816145a7565b8114614ecc57600080fd5b50565b614ed8816145b1565b8114614ee357600080fd5b5056fea2646970667358221220ae3cf58069f3e9b53aef05de1ff510dfafe537cf803c491c325a807fac258ec764736f6c63430008040033",
  "linkReferences": {},
  "deployedLinkReferences": {}
}