{
  "_format": "hh-sol-artifact-1",
  "contractName": "Tokenom",
  "sourceName": "contracts/Tokenom.sol",
  "abi": [
    {
      "inputs": [
        {
          "internalType": "string",
          "name": "name",
          "type": "string"
        },
        {
          "internalType": "string",
          "name": "symbol",
          "type": "string"
        },
        {
          "internalType": "uint256",
          "name": "_attackCooldown",
          "type": "uint256"
        },
        {
          "internalType": "uint32",
          "name": "_maxSpecies",
          "type": "uint32"
        }
      ],
      "stateMutability": "nonpayable",
      "type": "constructor"
    },
    {
      "anonymous": false,
      "inputs": [
        {
          "indexed": true,
          "internalType": "address",
          "name": "owner",
          "type": "address"
        },
        {
          "indexed": true,
          "internalType": "address",
          "name": "approved",
          "type": "address"
        },
        {
          "indexed": true,
          "internalType": "uint256",
          "name": "tokenId",
          "type": "uint256"
        }
      ],
      "name": "Approval",
      "type": "event"
    },
    {
      "anonymous": false,
      "inputs": [
        {
          "indexed": true,
          "internalType": "address",
          "name": "owner",
          "type": "address"
        },
        {
          "indexed": true,
          "internalType": "address",
          "name": "operator",
          "type": "address"
        },
        {
          "indexed": false,
          "internalType": "bool",
          "name": "approved",
          "type": "bool"
        }
      ],
      "name": "ApprovalForAll",
      "type": "event"
    },
    {
      "anonymous": false,
      "inputs": [
        {
          "indexed": false,
          "internalType": "uint256",
          "name": "versusId",
          "type": "uint256"
        },
        {
          "indexed": false,
          "internalType": "uint16",
          "name": "versusRemainingLP",
          "type": "uint16"
        }
      ],
      "name": "AttackFailed",
      "type": "event"
    },
    {
      "anonymous": false,
      "inputs": [
        {
          "indexed": false,
          "internalType": "uint256",
          "name": "versusId",
          "type": "uint256"
        },
        {
          "indexed": false,
          "internalType": "uint8",
          "name": "dmg",
          "type": "uint8"
        },
        {
          "indexed": false,
          "internalType": "uint16",
          "name": "versusRemainingLP",
          "type": "uint16"
        }
      ],
      "name": "AttackSuccess",
      "type": "event"
    },
    {
      "anonymous": false,
      "inputs": [
        {
          "indexed": false,
          "internalType": "uint256",
          "name": "versusId",
          "type": "uint256"
        }
      ],
      "name": "BattleBegin",
      "type": "event"
    },
    {
      "anonymous": false,
      "inputs": [
        {
          "indexed": false,
          "internalType": "uint256",
          "name": "versusId",
          "type": "uint256"
        },
        {
          "indexed": false,
          "internalType": "uint8",
          "name": "newLevel",
          "type": "uint8"
        }
      ],
      "name": "BattleWin",
      "type": "event"
    },
    {
      "anonymous": false,
      "inputs": [
        {
          "indexed": true,
          "internalType": "address",
          "name": "previousOwner",
          "type": "address"
        },
        {
          "indexed": true,
          "internalType": "address",
          "name": "newOwner",
          "type": "address"
        }
      ],
      "name": "OwnershipTransferred",
      "type": "event"
    },
    {
      "anonymous": false,
      "inputs": [
        {
          "indexed": true,
          "internalType": "address",
          "name": "from",
          "type": "address"
        },
        {
          "indexed": true,
          "internalType": "address",
          "name": "to",
          "type": "address"
        },
        {
          "indexed": true,
          "internalType": "uint256",
          "name": "tokenId",
          "type": "uint256"
        }
      ],
      "name": "Transfer",
      "type": "event"
    },
    {
      "inputs": [
        {
          "internalType": "address",
          "name": "to",
          "type": "address"
        },
        {
          "internalType": "uint256",
          "name": "tokenId",
          "type": "uint256"
        }
      ],
      "name": "approve",
      "outputs": [],
      "stateMutability": "nonpayable",
      "type": "function"
    },
    {
      "inputs": [
        {
          "internalType": "uint256",
          "name": "_id",
          "type": "uint256"
        },
        {
          "internalType": "uint8",
          "name": "_choice",
          "type": "uint8"
        }
      ],
      "name": "attack",
      "outputs": [],
      "stateMutability": "nonpayable",
      "type": "function"
    },
    {
      "inputs": [
        {
          "internalType": "address",
          "name": "owner",
          "type": "address"
        }
      ],
      "name": "balanceOf",
      "outputs": [
        {
          "internalType": "uint256",
          "name": "",
          "type": "uint256"
        }
      ],
      "stateMutability": "view",
      "type": "function"
    },
    {
      "inputs": [
        {
          "internalType": "uint256",
          "name": "tokenId",
          "type": "uint256"
        }
      ],
      "name": "getApproved",
      "outputs": [
        {
          "internalType": "address",
          "name": "",
          "type": "address"
        }
      ],
      "stateMutability": "view",
      "type": "function"
    },
    {
      "inputs": [],
      "name": "getMaxSpecies",
      "outputs": [
        {
          "internalType": "uint32",
          "name": "",
          "type": "uint32"
        }
      ],
      "stateMutability": "view",
      "type": "function"
    },
    {
      "inputs": [
        {
          "internalType": "address",
          "name": "_owner",
          "type": "address"
        }
      ],
      "name": "getTokenIds",
      "outputs": [
        {
          "internalType": "uint256[]",
          "name": "",
          "type": "uint256[]"
        }
      ],
      "stateMutability": "view",
      "type": "function"
    },
    {
      "inputs": [
        {
          "internalType": "uint256",
          "name": "tokenId",
          "type": "uint256"
        },
        {
          "internalType": "uint8",
          "name": "attackId",
          "type": "uint8"
        }
      ],
      "name": "getTokenomAttack",
      "outputs": [
        {
          "internalType": "string",
          "name": "name",
          "type": "string"
        },
        {
          "internalType": "uint256",
          "name": "damage",
          "type": "uint256"
        },
        {
          "internalType": "uint256",
          "name": "precision",
          "type": "uint256"
        }
      ],
      "stateMutability": "view",
      "type": "function"
    },
    {
      "inputs": [
        {
          "internalType": "address",
          "name": "owner",
          "type": "address"
        },
        {
          "internalType": "address",
          "name": "operator",
          "type": "address"
        }
      ],
      "name": "isApprovedForAll",
      "outputs": [
        {
          "internalType": "bool",
          "name": "",
          "type": "bool"
        }
      ],
      "stateMutability": "view",
      "type": "function"
    },
    {
      "inputs": [
        {
          "internalType": "string",
          "name": "_name",
          "type": "string"
        }
      ],
      "name": "mint",
      "outputs": [],
      "stateMutability": "nonpayable",
      "type": "function"
    },
    {
      "inputs": [],
      "name": "name",
      "outputs": [
        {
          "internalType": "string",
          "name": "",
          "type": "string"
        }
      ],
      "stateMutability": "view",
      "type": "function"
    },
    {
      "inputs": [],
      "name": "owner",
      "outputs": [
        {
          "internalType": "address",
          "name": "",
          "type": "address"
        }
      ],
      "stateMutability": "view",
      "type": "function"
    },
    {
      "inputs": [
        {
          "internalType": "uint256",
          "name": "tokenId",
          "type": "uint256"
        }
      ],
      "name": "ownerOf",
      "outputs": [
        {
          "internalType": "address",
          "name": "",
          "type": "address"
        }
      ],
      "stateMutability": "view",
      "type": "function"
    },
    {
      "inputs": [],
      "name": "renounceOwnership",
      "outputs": [],
      "stateMutability": "nonpayable",
      "type": "function"
    },
    {
      "inputs": [
        {
          "internalType": "address",
          "name": "from",
          "type": "address"
        },
        {
          "internalType": "address",
          "name": "to",
          "type": "address"
        },
        {
          "internalType": "uint256",
          "name": "tokenId",
          "type": "uint256"
        }
      ],
      "name": "safeTransferFrom",
      "outputs": [],
      "stateMutability": "nonpayable",
      "type": "function"
    },
    {
      "inputs": [
        {
          "internalType": "address",
          "name": "from",
          "type": "address"
        },
        {
          "internalType": "address",
          "name": "to",
          "type": "address"
        },
        {
          "internalType": "uint256",
          "name": "tokenId",
          "type": "uint256"
        },
        {
          "internalType": "bytes",
          "name": "data",
          "type": "bytes"
        }
      ],
      "name": "safeTransferFrom",
      "outputs": [],
      "stateMutability": "nonpayable",
      "type": "function"
    },
    {
      "inputs": [
        {
          "internalType": "address",
          "name": "operator",
          "type": "address"
        },
        {
          "internalType": "bool",
          "name": "approved",
          "type": "bool"
        }
      ],
      "name": "setApprovalForAll",
      "outputs": [],
      "stateMutability": "nonpayable",
      "type": "function"
    },
    {
      "inputs": [
        {
          "internalType": "string",
          "name": "_newBaseURI",
          "type": "string"
        }
      ],
      "name": "setBaseURI",
      "outputs": [],
      "stateMutability": "nonpayable",
      "type": "function"
    },
    {
      "inputs": [
        {
          "internalType": "uint32",
          "name": "_newMaxSpecies",
          "type": "uint32"
        }
      ],
      "name": "setMaxSpecies",
      "outputs": [],
      "stateMutability": "nonpayable",
      "type": "function"
    },
    {
      "inputs": [
        {
          "internalType": "uint256",
          "name": "_id",
          "type": "uint256"
        },
        {
          "internalType": "uint256",
          "name": "_versusId",
          "type": "uint256"
        }
      ],
      "name": "startBattle",
      "outputs": [],
      "stateMutability": "nonpayable",
      "type": "function"
    },
    {
      "inputs": [
        {
          "internalType": "bytes4",
          "name": "interfaceId",
          "type": "bytes4"
        }
      ],
      "name": "supportsInterface",
      "outputs": [
        {
          "internalType": "bool",
          "name": "",
          "type": "bool"
        }
      ],
      "stateMutability": "view",
      "type": "function"
    },
    {
      "inputs": [],
      "name": "symbol",
      "outputs": [
        {
          "internalType": "string",
          "name": "",
          "type": "string"
        }
      ],
      "stateMutability": "view",
      "type": "function"
    },
    {
      "inputs": [
        {
          "internalType": "uint256",
          "name": "index",
          "type": "uint256"
        }
      ],
      "name": "tokenByIndex",
      "outputs": [
        {
          "internalType": "uint256",
          "name": "",
          "type": "uint256"
        }
      ],
      "stateMutability": "view",
      "type": "function"
    },
    {
      "inputs": [
        {
          "internalType": "address",
          "name": "owner",
          "type": "address"
        },
        {
          "internalType": "uint256",
          "name": "index",
          "type": "uint256"
        }
      ],
      "name": "tokenOfOwnerByIndex",
      "outputs": [
        {
          "internalType": "uint256",
          "name": "",
          "type": "uint256"
        }
      ],
      "stateMutability": "view",
      "type": "function"
    },
    {
      "inputs": [
        {
          "internalType": "uint256",
          "name": "tokenId",
          "type": "uint256"
        }
      ],
      "name": "tokenURI",
      "outputs": [
        {
          "internalType": "string",
          "name": "",
          "type": "string"
        }
      ],
      "stateMutability": "view",
      "type": "function"
    },
    {
      "inputs": [
        {
          "internalType": "uint256",
          "name": "",
          "type": "uint256"
        }
      ],
      "name": "tokenomStats",
      "outputs": [
        {
          "internalType": "string",
          "name": "name",
          "type": "string"
        },
        {
          "internalType": "uint8",
          "name": "level",
          "type": "uint8"
        },
        {
          "internalType": "uint16",
          "name": "maxLifePoint",
          "type": "uint16"
        },
        {
          "internalType": "uint32",
          "name": "species",
          "type": "uint32"
        },
        {
          "internalType": "bool",
          "name": "isFighting",
          "type": "bool"
        },
        {
          "internalType": "uint256",
          "name": "versusId",
          "type": "uint256"
        },
        {
          "internalType": "uint16",
          "name": "lifePoint",
          "type": "uint16"
        },
        {
          "internalType": "bool",
          "name": "cooldown",
          "type": "bool"
        },
        {
          "internalType": "uint256",
          "name": "lastAttack",
          "type": "uint256"
        }
      ],
      "stateMutability": "view",
      "type": "function"
    },
    {
      "inputs": [],
      "name": "totalSupply",
      "outputs": [
        {
          "internalType": "uint256",
          "name": "",
          "type": "uint256"
        }
      ],
      "stateMutability": "view",
      "type": "function"
    },
    {
      "inputs": [
        {
          "internalType": "address",
          "name": "from",
          "type": "address"
        },
        {
          "internalType": "address",
          "name": "to",
          "type": "address"
        },
        {
          "internalType": "uint256",
          "name": "tokenId",
          "type": "uint256"
        }
      ],
      "name": "transferFrom",
      "outputs": [],
      "stateMutability": "nonpayable",
      "type": "function"
    },
    {
      "inputs": [
        {
          "internalType": "address",
          "name": "newOwner",
          "type": "address"
        }
      ],
      "name": "transferOwnership",
      "outputs": [],
      "stateMutability": "nonpayable",
      "type": "function"
    }
  ],
  "bytecode": "0x60806040523480156200001157600080fd5b5060405162005772380380620057728339818101604052810190620000379190620002ee565b83838160009080519060200190620000519291906200019e565b5080600190805190602001906200006a9291906200019e565b5050506200008d62000081620000d060201b60201c565b620000d860201b60201c565b6200009e33620000d860201b60201c565b81600c8190555080600d60006101000a81548163ffffffff021916908363ffffffff160217905550505050506200054a565b600033905090565b6000600a60009054906101000a900473ffffffffffffffffffffffffffffffffffffffff16905081600a60006101000a81548173ffffffffffffffffffffffffffffffffffffffff021916908373ffffffffffffffffffffffffffffffffffffffff1602179055508173ffffffffffffffffffffffffffffffffffffffff168173ffffffffffffffffffffffffffffffffffffffff167f8be0079c531659141344cd1fd0a4f28419497f9722a3daafe3b4186f6b6457e060405160405180910390a35050565b828054620001ac906200043b565b90600052602060002090601f016020900481019282620001d057600085556200021c565b82601f10620001eb57805160ff19168380011785556200021c565b828001600101855582156200021c579182015b828111156200021b578251825591602001919060010190620001fe565b5b5090506200022b91906200022f565b5090565b5b808211156200024a57600081600090555060010162000230565b5090565b6000620002656200025f84620003b5565b6200038c565b9050828152602081018484840111156200027e57600080fd5b6200028b84828562000405565b509392505050565b600082601f830112620002a557600080fd5b8151620002b78482602086016200024e565b91505092915050565b600081519050620002d18162000516565b92915050565b600081519050620002e88162000530565b92915050565b600080600080608085870312156200030557600080fd5b600085015167ffffffffffffffff8111156200032057600080fd5b6200032e8782880162000293565b945050602085015167ffffffffffffffff8111156200034c57600080fd5b6200035a8782880162000293565b93505060406200036d87828801620002c0565b92505060606200038087828801620002d7565b91505092959194509250565b600062000398620003ab565b9050620003a6828262000471565b919050565b6000604051905090565b600067ffffffffffffffff821115620003d357620003d2620004d6565b5b620003de8262000505565b9050602081019050919050565b6000819050919050565b600063ffffffff82169050919050565b60005b838110156200042557808201518184015260208101905062000408565b8381111562000435576000848401525b50505050565b600060028204905060018216806200045457607f821691505b602082108114156200046b576200046a620004a7565b5b50919050565b6200047c8262000505565b810181811067ffffffffffffffff821117156200049e576200049d620004d6565b5b80604052505050565b7f4e487b7100000000000000000000000000000000000000000000000000000000600052602260045260246000fd5b7f4e487b7100000000000000000000000000000000000000000000000000000000600052604160045260246000fd5b6000601f19601f8301169050919050565b6200052181620003eb565b81146200052d57600080fd5b50565b6200053b81620003f5565b81146200054757600080fd5b50565b615218806200055a6000396000f3fe608060405234801561001057600080fd5b50600436106101c45760003560e01c8063715018a6116100f9578063b88d4fde11610097578063d82305a111610071578063d82305a11461051d578063d85d3d271461054f578063e985e9c51461056b578063f2fde38b1461059b576101c4565b8063b88d4fde146104a1578063c87b56dd146104bd578063d004b036146104ed576101c4565b806395d89b41116100d357806395d89b411461042f5780639f3aa7f21461044d578063a22cb46514610469578063a888982314610485576101c4565b8063715018a6146103cf5780638da5cb5b146103d95780639076d9a8146103f7576101c4565b80632f745c59116101665780634f6ccce7116101405780634f6ccce71461032357806355f804b3146103535780636352211e1461036f57806370a082311461039f576101c4565b80632f745c59146102bb5780633daa6ba9146102eb57806342842e0e14610307576101c4565b8063095ea7b3116101a2578063095ea7b31461024757806318160ddd146102635780631e58b0dc1461028157806323b872dd1461029f576101c4565b806301ffc9a7146101c957806306fdde03146101f9578063081812fc14610217575b600080fd5b6101e360048036038101906101de9190613802565b6105b7565b6040516101f09190614053565b60405180910390f35b610201610631565b60405161020e919061406e565b60405180910390f35b610231600480360381019061022c9190613895565b6106c3565b60405161023e9190613fca565b60405180910390f35b610261600480360381019061025c91906137c6565b610709565b005b61026b610821565b60405161027891906144c2565b60405180910390f35b61028961082e565b6040516102969190614566565b60405180910390f35b6102b960048036038101906102b491906136c0565b610848565b005b6102d560048036038101906102d091906137c6565b6108a8565b6040516102e291906144c2565b60405180910390f35b610305600480360381019061030091906138be565b61094d565b005b610321600480360381019061031c91906136c0565b610cd4565b005b61033d60048036038101906103389190613895565b610cf4565b60405161034a91906144c2565b60405180910390f35b61036d60048036038101906103689190613854565b610d8b565b005b61038960048036038101906103849190613895565b610dad565b6040516103969190613fca565b60405180910390f35b6103b960048036038101906103b4919061365b565b610e5f565b6040516103c691906144c2565b60405180910390f35b6103d7610f17565b005b6103e1610f2b565b6040516103ee9190613fca565b60405180910390f35b610411600480360381019061040c9190613895565b610f55565b604051610426999897969594939291906140ce565b60405180910390f35b61043761107e565b604051610444919061406e565b60405180910390f35b610467600480360381019061046291906138fa565b611110565b005b610483600480360381019061047e919061378a565b61195c565b005b61049f600480360381019061049a9190613936565b611972565b005b6104bb60048036038101906104b6919061370f565b6119fe565b005b6104d760048036038101906104d29190613895565b611a60565b6040516104e4919061406e565b60405180910390f35b6105076004803603810190610502919061365b565b611ac0565b6040516105149190614031565b60405180910390f35b610537600480360381019061053291906138fa565b611bbc565b60405161054693929190614090565b60405180910390f35b61056960048036038101906105649190613854565b611d33565b005b61058560048036038101906105809190613684565b611d40565b6040516105929190614053565b60405180910390f35b6105b560048036038101906105b0919061365b565b611dd4565b005b60007f780e9d63000000000000000000000000000000000000000000000000000000007bffffffffffffffffffffffffffffffffffffffffffffffffffffffff1916827bffffffffffffffffffffffffffffffffffffffffffffffffffffffff1916148061062a575061062982611e58565b5b9050919050565b6060600080546106409061486d565b80601f016020809104026020016040519081016040528092919081815260200182805461066c9061486d565b80156106b95780601f1061068e576101008083540402835291602001916106b9565b820191906000526020600020905b81548152906001019060200180831161069c57829003601f168201915b5050505050905090565b60006106ce82611f3a565b6004600083815260200190815260200160002060009054906101000a900473ffffffffffffffffffffffffffffffffffffffff169050919050565b600061071482610dad565b90508073ffffffffffffffffffffffffffffffffffffffff168373ffffffffffffffffffffffffffffffffffffffff161415610785576040517f08c379a000000000000000000000000000000000000000000000000000000000815260040161077c90614402565b60405180910390fd5b8073ffffffffffffffffffffffffffffffffffffffff166107a4611f85565b73ffffffffffffffffffffffffffffffffffffffff1614806107d357506107d2816107cd611f85565b611d40565b5b610812576040517f08c379a000000000000000000000000000000000000000000000000000000000815260040161080990614362565b60405180910390fd5b61081c8383611f8d565b505050565b6000600880549050905090565b6000600d60009054906101000a900463ffffffff16905090565b610859610853611f85565b82612046565b610898576040517f08c379a000000000000000000000000000000000000000000000000000000000815260040161088f90614482565b60405180910390fd5b6108a38383836120db565b505050565b60006108b383610e5f565b82106108f4576040517f08c379a00000000000000000000000000000000000000000000000000000000081526004016108eb906141a2565b60405180910390fd5b600660008473ffffffffffffffffffffffffffffffffffffffff1673ffffffffffffffffffffffffffffffffffffffff168152602001908152602001600020600083815260200190815260200160002054905092915050565b61095681612342565b610995576040517f08c379a000000000000000000000000000000000000000000000000000000000815260040161098c90614342565b60405180910390fd5b3373ffffffffffffffffffffffffffffffffffffffff166109b583610dad565b73ffffffffffffffffffffffffffffffffffffffff1614610a0b576040517f08c379a0000000000000000000000000000000000000000000000000000000008152600401610a0290614462565b60405180910390fd5b3373ffffffffffffffffffffffffffffffffffffffff16610a2b82610dad565b73ffffffffffffffffffffffffffffffffffffffff161415610a82576040517f08c379a0000000000000000000000000000000000000000000000000000000008152600401610a7990614162565b60405180910390fd5b600e600083815260200190815260200160002060030160009054906101000a900460ff1615610ae6576040517f08c379a0000000000000000000000000000000000000000000000000000000008152600401610add906142c2565b60405180910390fd5b600e600082815260200190815260200160002060030160009054906101000a900460ff1615610b4a576040517f08c379a0000000000000000000000000000000000000000000000000000000008152600401610b4190614242565b60405180910390fd5b6001600e600084815260200190815260200160002060030160006101000a81548160ff02191690831515021790555080600e6000848152602001908152602001600020600401819055506001600e600084815260200190815260200160002060050160026101000a81548160ff02191690831515021790555042600e6000848152602001908152602001600020600601819055506001600e6000600e600086815260200190815260200160002060040154815260200190815260200160002060030160006101000a81548160ff02191690831515021790555081600e6000600e6000868152602001908152602001600020600401548152602001908152602001600020600401819055506000600e6000600e600086815260200190815260200160002060040154815260200190815260200160002060050160026101000a81548160ff0219169083151502179055507fbad853270e74b043094db20c861bb5c5fe66a3e770048db696c783a118ccbfcd81604051610cc891906144c2565b60405180910390a15050565b610cef838383604051806020016040528060008152506119fe565b505050565b6000610cfe610821565b8210610d3f576040517f08c379a0000000000000000000000000000000000000000000000000000000008152600401610d3690614422565b60405180910390fd5b60088281548110610d79577f4e487b7100000000000000000000000000000000000000000000000000000000600052603260045260246000fd5b90600052602060002001549050919050565b610d936123ae565b80600b9080519060200190610da9929190613455565b5050565b6000806002600084815260200190815260200160002060009054906101000a900473ffffffffffffffffffffffffffffffffffffffff169050600073ffffffffffffffffffffffffffffffffffffffff168173ffffffffffffffffffffffffffffffffffffffff161415610e56576040517f08c379a0000000000000000000000000000000000000000000000000000000008152600401610e4d906143e2565b60405180910390fd5b80915050919050565b60008073ffffffffffffffffffffffffffffffffffffffff168273ffffffffffffffffffffffffffffffffffffffff161415610ed0576040517f08c379a0000000000000000000000000000000000000000000000000000000008152600401610ec790614302565b60405180910390fd5b600360008373ffffffffffffffffffffffffffffffffffffffff1673ffffffffffffffffffffffffffffffffffffffff168152602001908152602001600020549050919050565b610f1f6123ae565b610f29600061242c565b565b6000600a60009054906101000a900473ffffffffffffffffffffffffffffffffffffffff16905090565b600e602052806000526040600020600091509050806000018054610f789061486d565b80601f0160208091040260200160405190810160405280929190818152602001828054610fa49061486d565b8015610ff15780601f10610fc657610100808354040283529160200191610ff1565b820191906000526020600020905b815481529060010190602001808311610fd457829003601f168201915b5050505050908060010160009054906101000a900460ff16908060010160019054906101000a900461ffff16908060010160039054906101000a900463ffffffff16908060030160009054906101000a900460ff16908060040154908060050160009054906101000a900461ffff16908060050160029054906101000a900460ff16908060060154905089565b60606001805461108d9061486d565b80601f01602080910402602001604051908101604052809291908181526020018280546110b99061486d565b80156111065780601f106110db57610100808354040283529160200191611106565b820191906000526020600020905b8154815290600101906020018083116110e957829003601f168201915b5050505050905090565b3373ffffffffffffffffffffffffffffffffffffffff1661113083610dad565b73ffffffffffffffffffffffffffffffffffffffff1614611186576040517f08c379a000000000000000000000000000000000000000000000000000000000815260040161117d90614462565b60405180910390fd5b600e600083815260200190815260200160002060030160009054906101000a900460ff166111e9576040517f08c379a00000000000000000000000000000000000000000000000000000000081526004016111e0906144a2565b60405180910390fd5b600e600083815260200190815260200160002060050160029054906101000a900460ff161561127857600c54600e600084815260200190815260200160002060060154426112379190614758565b11611277576040517f08c379a000000000000000000000000000000000000000000000000000000000815260040161126e90614322565b60405180910390fd5b5b6000600e600084815260200190815260200160002060020160008360ff1660ff16815260200190815260200160002060010154116112eb576040517f08c379a00000000000000000000000000000000000000000000000000000000081526004016112e2906142a2565b60405180910390fd5b600e600083815260200190815260200160002060020160008260ff1660ff168152602001908152602001600020600201546113e160006064600e600087815260200190815260200160002060020160008660ff1660ff168152602001908152602001600020600001805461135e9061486d565b80601f016020809104026020016040519081016040528092919081815260200182805461138a9061486d565b80156113d75780601f106113ac576101008083540402835291602001916113d7565b820191906000526020600020905b8154815290600101906020018083116113ba57829003601f168201915b50505050506124f2565b10156118ce57600e600083815260200190815260200160002060020160008260ff1660ff16815260200190815260200160002060010154600e6000600e600086815260200190815260200160002060040154815260200190815260200160002060050160009054906101000a900461ffff1661ffff16116116b757600e6000838152602001908152602001600020600101600081819054906101000a900460ff168092919061148f90614919565b91906101000a81548160ff021916908360ff160217905550506005600e600084815260200190815260200160002060010160018282829054906101000a900461ffff166114dc9190614699565b92506101000a81548161ffff021916908361ffff160217905550600e600083815260200190815260200160002060010160019054906101000a900461ffff16600e600084815260200190815260200160002060050160006101000a81548161ffff021916908361ffff1602179055506000600e600084815260200190815260200160002060030160006101000a81548160ff021916908315150217905550600e6000600e600085815260200190815260200160002060040154815260200190815260200160002060010160019054906101000a900461ffff16600e6000600e600086815260200190815260200160002060040154815260200190815260200160002060050160006101000a81548161ffff021916908361ffff1602179055506000600e6000600e600086815260200190815260200160002060040154815260200190815260200160002060030160006101000a81548160ff0219169083151502179055507f37acb25e9a3160fa43ff7ccbed6c2dfb13d2208da8c4841c42125ef746e8e002600e600084815260200190815260200160002060040154600e600085815260200190815260200160002060010160009054906101000a900460ff166040516116aa929190614506565b60405180910390a16118c9565b611738600e600084815260200190815260200160002060020160008360ff1660ff16815260200190815260200160002060010154600e6000600e600087815260200190815260200160002060040154815260200190815260200160002060050160009054906101000a900461ffff1661ffff1661258e90919063ffffffff16565b600e6000600e600086815260200190815260200160002060040154815260200190815260200160002060050160006101000a81548161ffff021916908361ffff1602179055506001600e600084815260200190815260200160002060050160026101000a81548160ff02191690831515021790555042600e6000848152602001908152602001600020600601819055506000600e6000600e600086815260200190815260200160002060040154815260200190815260200160002060050160026101000a81548160ff0219169083151502179055507fc699978331a941ebac20688941ba767c3c60d591bf7c4e0b34ea6bca09ee1cd0600e600084815260200190815260200160002060040154600e600085815260200190815260200160002060020160008460ff1660ff16815260200190815260200160002060010154600e6000600e600088815260200190815260200160002060040154815260200190815260200160002060050160009054906101000a900461ffff166040516118c09392919061452f565b60405180910390a15b611958565b7f80007f9835ad982a74c11b660527b568da4835f87b914b9e5a2f338ba9163032600e600084815260200190815260200160002060040154600e6000600e600087815260200190815260200160002060040154815260200190815260200160002060050160009054906101000a900461ffff1660405161194f9291906144dd565b60405180910390a15b5050565b61196e611967611f85565b83836125a4565b5050565b61197a6123ae565b8063ffffffff16600d60009054906101000a900463ffffffff1663ffffffff16106119da576040517f08c379a00000000000000000000000000000000000000000000000000000000081526004016119d190614182565b60405180910390fd5b80600d60006101000a81548163ffffffff021916908363ffffffff16021790555050565b611a0f611a09611f85565b83612046565b611a4e576040517f08c379a0000000000000000000000000000000000000000000000000000000008152600401611a4590614482565b60405180910390fd5b611a5a84848484612711565b50505050565b6060600b611a99600e600085815260200190815260200160002060010160039054906101000a900463ffffffff1663ffffffff1661276d565b604051602001611aaa929190613f62565b6040516020818303038152906040529050919050565b60606000611acd83610e5f565b67ffffffffffffffff811115611b0c577f4e487b7100000000000000000000000000000000000000000000000000000000600052604160045260246000fd5b604051908082528060200260200182016040528015611b3a5781602001602082028036833780820191505090505b50905060005b611b4984610e5f565b811015611bb257611b5a84826108a8565b828281518110611b93577f4e487b7100000000000000000000000000000000000000000000000000000000600052603260045260246000fd5b6020026020010181815250508080611baa906148d0565b915050611b40565b8192505050919050565b60606000806000600e600087815260200190815260200160002060020160008660ff1660ff1681526020019081526020016000206001015411611c34576040517f08c379a0000000000000000000000000000000000000000000000000000000008152600401611c2b906142e2565b60405180910390fd5b6000600e600087815260200190815260200160002060020160008660ff1660ff168152602001908152602001600020604051806060016040529081600082018054611c7e9061486d565b80601f0160208091040260200160405190810160405280929190818152602001828054611caa9061486d565b8015611cf75780601f10611ccc57610100808354040283529160200191611cf7565b820191906000526020600020905b815481529060010190602001808311611cda57829003601f168201915b50505050508152602001600182015481526020016002820154815250509050806000015181602001518260400151935093509350509250925092565b611d3d338261291a565b50565b6000600560008473ffffffffffffffffffffffffffffffffffffffff1673ffffffffffffffffffffffffffffffffffffffff16815260200190815260200160002060008373ffffffffffffffffffffffffffffffffffffffff1673ffffffffffffffffffffffffffffffffffffffff16815260200190815260200160002060009054906101000a900460ff16905092915050565b611ddc6123ae565b600073ffffffffffffffffffffffffffffffffffffffff168173ffffffffffffffffffffffffffffffffffffffff161415611e4c576040517f08c379a0000000000000000000000000000000000000000000000000000000008152600401611e43906141e2565b60405180910390fd5b611e558161242c565b50565b60007f80ac58cd000000000000000000000000000000000000000000000000000000007bffffffffffffffffffffffffffffffffffffffffffffffffffffffff1916827bffffffffffffffffffffffffffffffffffffffffffffffffffffffff19161480611f2357507f5b5e139f000000000000000000000000000000000000000000000000000000007bffffffffffffffffffffffffffffffffffffffffffffffffffffffff1916827bffffffffffffffffffffffffffffffffffffffffffffffffffffffff1916145b80611f335750611f3282612b48565b5b9050919050565b611f4381612342565b611f82576040517f08c379a0000000000000000000000000000000000000000000000000000000008152600401611f79906143e2565b60405180910390fd5b50565b600033905090565b816004600083815260200190815260200160002060006101000a81548173ffffffffffffffffffffffffffffffffffffffff021916908373ffffffffffffffffffffffffffffffffffffffff160217905550808273ffffffffffffffffffffffffffffffffffffffff1661200083610dad565b73ffffffffffffffffffffffffffffffffffffffff167f8c5be1e5ebec7d5bd14f71427d1e84f3dd0314c0f7b2291e5b200ac8c7c3b92560405160405180910390a45050565b60008061205283610dad565b90508073ffffffffffffffffffffffffffffffffffffffff168473ffffffffffffffffffffffffffffffffffffffff16148061209457506120938185611d40565b5b806120d257508373ffffffffffffffffffffffffffffffffffffffff166120ba846106c3565b73ffffffffffffffffffffffffffffffffffffffff16145b91505092915050565b8273ffffffffffffffffffffffffffffffffffffffff166120fb82610dad565b73ffffffffffffffffffffffffffffffffffffffff1614612151576040517f08c379a000000000000000000000000000000000000000000000000000000000815260040161214890614202565b60405180910390fd5b600073ffffffffffffffffffffffffffffffffffffffff168273ffffffffffffffffffffffffffffffffffffffff1614156121c1576040517f08c379a00000000000000000000000000000000000000000000000000000000081526004016121b890614262565b60405180910390fd5b6121cc838383612bb2565b6121d7600082611f8d565b6001600360008573ffffffffffffffffffffffffffffffffffffffff1673ffffffffffffffffffffffffffffffffffffffff16815260200190815260200160002060008282546122279190614758565b925050819055506001600360008473ffffffffffffffffffffffffffffffffffffffff1673ffffffffffffffffffffffffffffffffffffffff168152602001908152602001600020600082825461227e91906146d1565b92505081905550816002600083815260200190815260200160002060006101000a81548173ffffffffffffffffffffffffffffffffffffffff021916908373ffffffffffffffffffffffffffffffffffffffff160217905550808273ffffffffffffffffffffffffffffffffffffffff168473ffffffffffffffffffffffffffffffffffffffff167fddf252ad1be2c89b69c2b068fc378daa952ba7f163c4a11628f55a4df523b3ef60405160405180910390a461233d838383612cc6565b505050565b60008073ffffffffffffffffffffffffffffffffffffffff166002600084815260200190815260200160002060009054906101000a900473ffffffffffffffffffffffffffffffffffffffff1673ffffffffffffffffffffffffffffffffffffffff1614159050919050565b6123b6611f85565b73ffffffffffffffffffffffffffffffffffffffff166123d4610f2b565b73ffffffffffffffffffffffffffffffffffffffff161461242a576040517f08c379a0000000000000000000000000000000000000000000000000000000008152600401612421906143a2565b60405180910390fd5b565b6000600a60009054906101000a900473ffffffffffffffffffffffffffffffffffffffff16905081600a60006101000a81548173ffffffffffffffffffffffffffffffffffffffff021916908373ffffffffffffffffffffffffffffffffffffffff1602179055508173ffffffffffffffffffffffffffffffffffffffff168173ffffffffffffffffffffffffffffffffffffffff167f8be0079c531659141344cd1fd0a4f28419497f9722a3daafe3b4186f6b6457e060405160405180910390a35050565b6000838311612536576040517f08c379a000000000000000000000000000000000000000000000000000000000815260040161252d90614442565b60405180910390fd5b8384846125439190614758565b42843360405160200161255893929190613f91565b6040516020818303038152906040528051906020012060001c61257b9190614971565b61258591906146d1565b90509392505050565b6000818361259c9190614758565b905092915050565b8173ffffffffffffffffffffffffffffffffffffffff168373ffffffffffffffffffffffffffffffffffffffff161415612613576040517f08c379a000000000000000000000000000000000000000000000000000000000815260040161260a90614282565b60405180910390fd5b80600560008573ffffffffffffffffffffffffffffffffffffffff1673ffffffffffffffffffffffffffffffffffffffff16815260200190815260200160002060008473ffffffffffffffffffffffffffffffffffffffff1673ffffffffffffffffffffffffffffffffffffffff16815260200190815260200160002060006101000a81548160ff0219169083151502179055508173ffffffffffffffffffffffffffffffffffffffff168373ffffffffffffffffffffffffffffffffffffffff167f17307eab39ab6107e8899845ad3d59bd9653f200f220920489ca2b5937696c31836040516127049190614053565b60405180910390a3505050565b61271c8484846120db565b61272884848484612ccb565b612767576040517f08c379a000000000000000000000000000000000000000000000000000000000815260040161275e906141c2565b60405180910390fd5b50505050565b606060008214156127b5576040518060400160405280600181526020017f30000000000000000000000000000000000000000000000000000000000000008152509050612915565b600082905060005b600082146127e75780806127d0906148d0565b915050600a826127e09190614727565b91506127bd565b60008167ffffffffffffffff811115612829577f4e487b7100000000000000000000000000000000000000000000000000000000600052604160045260246000fd5b6040519080825280601f01601f19166020018201604052801561285b5781602001600182028036833780820191505090505b5090505b6000851461290e576001826128749190614758565b9150600a856128839190614971565b603061288f91906146d1565b60f81b8183815181106128cb577f4e487b7100000000000000000000000000000000000000000000000000000000600052603260045260246000fd5b60200101907effffffffffffffffffffffffffffffffffffffffffffffffffffffffffffff1916908160001a905350600a856129079190614727565b945061285f565b8093505050505b919050565b6006600161292784610e5f565b61293191906146d1565b1115612972576040517f08c379a0000000000000000000000000000000000000000000000000000000008152600401612969906143c2565b60405180910390fd5b6000600161297e610821565b61298891906146d1565b90506129948382612e62565b6000600e60008381526020019081526020016000209050828160000190805190602001906129c3929190613455565b5060018160010160006101000a81548160ff021916908360ff1602179055506129f7600a60146129f28561276d565b6124f2565b8160010160016101000a81548161ffff021916908361ffff1602179055506000600e600084815260200190815260200160002060020160008060ff16815260200190815260200160002090506040518060400160405280600681526020017f6368617267650000000000000000000000000000000000000000000000000000815250816000019080519060200190612a90929190613455565b5060058160010181905550604b816002018190555060008260030160006101000a81548160ff0219169083151502179055508160010160019054906101000a900461ffff168260050160006101000a81548161ffff021916908361ffff160217905550612b1f6001600d60009054906101000a900463ffffffff1663ffffffff16612b1a8661276d565b6124f2565b8260010160036101000a81548163ffffffff021916908363ffffffff1602179055505050505050565b60007f01ffc9a7000000000000000000000000000000000000000000000000000000007bffffffffffffffffffffffffffffffffffffffffffffffffffffffff1916827bffffffffffffffffffffffffffffffffffffffffffffffffffffffff1916149050919050565b612bbd838383612e80565b600073ffffffffffffffffffffffffffffffffffffffff168373ffffffffffffffffffffffffffffffffffffffff161415612c0057612bfb81612e85565b612c3f565b8173ffffffffffffffffffffffffffffffffffffffff168373ffffffffffffffffffffffffffffffffffffffff1614612c3e57612c3d8382612ece565b5b5b600073ffffffffffffffffffffffffffffffffffffffff168273ffffffffffffffffffffffffffffffffffffffff161415612c8257612c7d8161303b565b612cc1565b8273ffffffffffffffffffffffffffffffffffffffff168273ffffffffffffffffffffffffffffffffffffffff1614612cc057612cbf828261317e565b5b5b505050565b505050565b6000612cec8473ffffffffffffffffffffffffffffffffffffffff166131fd565b15612e55578373ffffffffffffffffffffffffffffffffffffffff1663150b7a02612d15611f85565b8786866040518563ffffffff1660e01b8152600401612d379493929190613fe5565b602060405180830381600087803b158015612d5157600080fd5b505af1925050508015612d8257506040513d601f19601f82011682018060405250810190612d7f919061382b565b60015b612e05573d8060008114612db2576040519150601f19603f3d011682016040523d82523d6000602084013e612db7565b606091505b50600081511415612dfd576040517f08c379a0000000000000000000000000000000000000000000000000000000008152600401612df4906141c2565b60405180910390fd5b805181602001fd5b63150b7a0260e01b7bffffffffffffffffffffffffffffffffffffffffffffffffffffffff1916817bffffffffffffffffffffffffffffffffffffffffffffffffffffffff191614915050612e5a565b600190505b949350505050565b612e7c828260405180602001604052806000815250613220565b5050565b505050565b6008805490506009600083815260200190815260200160002081905550600881908060018154018082558091505060019003906000526020600020016000909190919091505550565b60006001612edb84610e5f565b612ee59190614758565b9050600060076000848152602001908152602001600020549050818114612fca576000600660008673ffffffffffffffffffffffffffffffffffffffff1673ffffffffffffffffffffffffffffffffffffffff168152602001908152602001600020600084815260200190815260200160002054905080600660008773ffffffffffffffffffffffffffffffffffffffff1673ffffffffffffffffffffffffffffffffffffffff168152602001908152602001600020600084815260200190815260200160002081905550816007600083815260200190815260200160002081905550505b6007600084815260200190815260200160002060009055600660008573ffffffffffffffffffffffffffffffffffffffff1673ffffffffffffffffffffffffffffffffffffffff16815260200190815260200160002060008381526020019081526020016000206000905550505050565b6000600160088054905061304f9190614758565b90506000600960008481526020019081526020016000205490506000600883815481106130a5577f4e487b7100000000000000000000000000000000000000000000000000000000600052603260045260246000fd5b9060005260206000200154905080600883815481106130ed577f4e487b7100000000000000000000000000000000000000000000000000000000600052603260045260246000fd5b906000526020600020018190555081600960008381526020019081526020016000208190555060096000858152602001908152602001600020600090556008805480613162577f4e487b7100000000000000000000000000000000000000000000000000000000600052603160045260246000fd5b6001900381819060005260206000200160009055905550505050565b600061318983610e5f565b905081600660008573ffffffffffffffffffffffffffffffffffffffff1673ffffffffffffffffffffffffffffffffffffffff168152602001908152602001600020600083815260200190815260200160002081905550806007600084815260200190815260200160002081905550505050565b6000808273ffffffffffffffffffffffffffffffffffffffff163b119050919050565b61322a838361327b565b6132376000848484612ccb565b613276576040517f08c379a000000000000000000000000000000000000000000000000000000000815260040161326d906141c2565b60405180910390fd5b505050565b600073ffffffffffffffffffffffffffffffffffffffff168273ffffffffffffffffffffffffffffffffffffffff1614156132eb576040517f08c379a00000000000000000000000000000000000000000000000000000000081526004016132e290614382565b60405180910390fd5b6132f481612342565b15613334576040517f08c379a000000000000000000000000000000000000000000000000000000000815260040161332b90614222565b60405180910390fd5b61334060008383612bb2565b6001600360008473ffffffffffffffffffffffffffffffffffffffff1673ffffffffffffffffffffffffffffffffffffffff168152602001908152602001600020600082825461339091906146d1565b92505081905550816002600083815260200190815260200160002060006101000a81548173ffffffffffffffffffffffffffffffffffffffff021916908373ffffffffffffffffffffffffffffffffffffffff160217905550808273ffffffffffffffffffffffffffffffffffffffff16600073ffffffffffffffffffffffffffffffffffffffff167fddf252ad1be2c89b69c2b068fc378daa952ba7f163c4a11628f55a4df523b3ef60405160405180910390a461345160008383612cc6565b5050565b8280546134619061486d565b90600052602060002090601f01602090048101928261348357600085556134ca565b82601f1061349c57805160ff19168380011785556134ca565b828001600101855582156134ca579182015b828111156134c95782518255916020019190600101906134ae565b5b5090506134d791906134db565b5090565b5b808211156134f45760008160009055506001016134dc565b5090565b600061350b613506846145a6565b614581565b90508281526020810184848401111561352357600080fd5b61352e84828561482b565b509392505050565b6000613549613544846145d7565b614581565b90508281526020810184848401111561356157600080fd5b61356c84828561482b565b509392505050565b60008135905061358381615158565b92915050565b6000813590506135988161516f565b92915050565b6000813590506135ad81615186565b92915050565b6000815190506135c281615186565b92915050565b600082601f8301126135d957600080fd5b81356135e98482602086016134f8565b91505092915050565b600082601f83011261360357600080fd5b8135613613848260208601613536565b91505092915050565b60008135905061362b8161519d565b92915050565b600081359050613640816151b4565b92915050565b600081359050613655816151cb565b92915050565b60006020828403121561366d57600080fd5b600061367b84828501613574565b91505092915050565b6000806040838503121561369757600080fd5b60006136a585828601613574565b92505060206136b685828601613574565b9150509250929050565b6000806000606084860312156136d557600080fd5b60006136e386828701613574565b93505060206136f486828701613574565b92505060406137058682870161361c565b9150509250925092565b6000806000806080858703121561372557600080fd5b600061373387828801613574565b945050602061374487828801613574565b93505060406137558782880161361c565b925050606085013567ffffffffffffffff81111561377257600080fd5b61377e878288016135c8565b91505092959194509250565b6000806040838503121561379d57600080fd5b60006137ab85828601613574565b92505060206137bc85828601613589565b9150509250929050565b600080604083850312156137d957600080fd5b60006137e785828601613574565b92505060206137f88582860161361c565b9150509250929050565b60006020828403121561381457600080fd5b60006138228482850161359e565b91505092915050565b60006020828403121561383d57600080fd5b600061384b848285016135b3565b91505092915050565b60006020828403121561386657600080fd5b600082013567ffffffffffffffff81111561388057600080fd5b61388c848285016135f2565b91505092915050565b6000602082840312156138a757600080fd5b60006138b58482850161361c565b91505092915050565b600080604083850312156138d157600080fd5b60006138df8582860161361c565b92505060206138f08582860161361c565b9150509250929050565b6000806040838503121561390d57600080fd5b600061391b8582860161361c565b925050602061392c85828601613646565b9150509250929050565b60006020828403121561394857600080fd5b600061395684828501613631565b91505092915050565b600061396b8383613f0f565b60208301905092915050565b6139808161478c565b82525050565b6139976139928261478c565b614943565b82525050565b60006139a88261462d565b6139b2818561465b565b93506139bd83614608565b8060005b838110156139ee5781516139d5888261395f565b97506139e08361464e565b9250506001810190506139c1565b5085935050505092915050565b613a048161479e565b82525050565b6000613a1582614638565b613a1f818561466c565b9350613a2f81856020860161483a565b613a3881614a5e565b840191505092915050565b6000613a4e82614643565b613a58818561467d565b9350613a6881856020860161483a565b613a7181614a5e565b840191505092915050565b6000613a8782614643565b613a91818561468e565b9350613aa181856020860161483a565b80840191505092915050565b60008154613aba8161486d565b613ac4818661468e565b94506001821660008114613adf5760018114613af057613b23565b60ff19831686528186019350613b23565b613af985614618565b60005b83811015613b1b57815481890152600182019150602081019050613afc565b838801955050505b50505092915050565b6000613b3960208361467d565b9150613b4482614a7c565b602082019050919050565b6000613b5c602c8361467d565b9150613b6782614aa5565b604082019050919050565b6000613b7f602b8361467d565b9150613b8a82614af4565b604082019050919050565b6000613ba260328361467d565b9150613bad82614b43565b604082019050919050565b6000613bc560268361467d565b9150613bd082614b92565b604082019050919050565b6000613be860258361467d565b9150613bf382614be1565b604082019050919050565b6000613c0b601c8361467d565b9150613c1682614c30565b602082019050919050565b6000613c2e60048361468e565b9150613c3982614c59565b600482019050919050565b6000613c51601f8361467d565b9150613c5c82614c82565b602082019050919050565b6000613c7460248361467d565b9150613c7f82614cab565b604082019050919050565b6000613c9760198361467d565b9150613ca282614cfa565b602082019050919050565b6000613cba60458361467d565b9150613cc582614d23565b606082019050919050565b6000613cdd60208361467d565b9150613ce882614d98565b602082019050919050565b6000613d0060258361467d565b9150613d0b82614dc1565b604082019050919050565b6000613d2360298361467d565b9150613d2e82614e10565b604082019050919050565b6000613d4660188361467d565b9150613d5182614e5f565b602082019050919050565b6000613d69602b8361467d565b9150613d7482614e88565b604082019050919050565b6000613d8c603e8361467d565b9150613d9782614ed7565b604082019050919050565b6000613daf60208361467d565b9150613dba82614f26565b602082019050919050565b6000613dd260208361467d565b9150613ddd82614f4f565b602082019050919050565b6000613df5601d8361467d565b9150613e0082614f78565b602082019050919050565b6000613e1860188361467d565b9150613e2382614fa1565b602082019050919050565b6000613e3b60218361467d565b9150613e4682614fca565b604082019050919050565b6000613e5e602c8361467d565b9150613e6982615019565b604082019050919050565b6000613e8160318361467d565b9150613e8c82615068565b604082019050919050565b6000613ea460118361467d565b9150613eaf826150b7565b602082019050919050565b6000613ec7602e8361467d565b9150613ed2826150e0565b604082019050919050565b6000613eea600e8361467d565b9150613ef58261512f565b602082019050919050565b613f09816147d6565b82525050565b613f1881614804565b82525050565b613f2781614804565b82525050565b613f3e613f3982614804565b614967565b82525050565b613f4d8161480e565b82525050565b613f5c8161481e565b82525050565b6000613f6e8285613aad565b9150613f7a8284613a7c565b9150613f8582613c21565b91508190509392505050565b6000613f9d8286613f2d565b602082019150613fad8285613a7c565b9150613fb98284613986565b601482019150819050949350505050565b6000602082019050613fdf6000830184613977565b92915050565b6000608082019050613ffa6000830187613977565b6140076020830186613977565b6140146040830185613f1e565b81810360608301526140268184613a0a565b905095945050505050565b6000602082019050818103600083015261404b818461399d565b905092915050565b600060208201905061406860008301846139fb565b92915050565b600060208201905081810360008301526140888184613a43565b905092915050565b600060608201905081810360008301526140aa8186613a43565b90506140b96020830185613f1e565b6140c66040830184613f1e565b949350505050565b60006101208201905081810360008301526140e9818c613a43565b90506140f8602083018b613f53565b614105604083018a613f00565b6141126060830189613f44565b61411f60808301886139fb565b61412c60a0830187613f1e565b61413960c0830186613f00565b61414660e08301856139fb565b614154610100830184613f1e565b9a9950505050505050505050565b6000602082019050818103600083015261417b81613b2c565b9050919050565b6000602082019050818103600083015261419b81613b4f565b9050919050565b600060208201905081810360008301526141bb81613b72565b9050919050565b600060208201905081810360008301526141db81613b95565b9050919050565b600060208201905081810360008301526141fb81613bb8565b9050919050565b6000602082019050818103600083015261421b81613bdb565b9050919050565b6000602082019050818103600083015261423b81613bfe565b9050919050565b6000602082019050818103600083015261425b81613c44565b9050919050565b6000602082019050818103600083015261427b81613c67565b9050919050565b6000602082019050818103600083015261429b81613c8a565b9050919050565b600060208201905081810360008301526142bb81613cad565b9050919050565b600060208201905081810360008301526142db81613cd0565b9050919050565b600060208201905081810360008301526142fb81613cf3565b9050919050565b6000602082019050818103600083015261431b81613d16565b9050919050565b6000602082019050818103600083015261433b81613d39565b9050919050565b6000602082019050818103600083015261435b81613d5c565b9050919050565b6000602082019050818103600083015261437b81613d7f565b9050919050565b6000602082019050818103600083015261439b81613da2565b9050919050565b600060208201905081810360008301526143bb81613dc5565b9050919050565b600060208201905081810360008301526143db81613de8565b9050919050565b600060208201905081810360008301526143fb81613e0b565b9050919050565b6000602082019050818103600083015261441b81613e2e565b9050919050565b6000602082019050818103600083015261443b81613e51565b9050919050565b6000602082019050818103600083015261445b81613e74565b9050919050565b6000602082019050818103600083015261447b81613e97565b9050919050565b6000602082019050818103600083015261449b81613eba565b9050919050565b600060208201905081810360008301526144bb81613edd565b9050919050565b60006020820190506144d76000830184613f1e565b92915050565b60006040820190506144f26000830185613f1e565b6144ff6020830184613f00565b9392505050565b600060408201905061451b6000830185613f1e565b6145286020830184613f53565b9392505050565b60006060820190506145446000830186613f1e565b6145516020830185613f53565b61455e6040830184613f00565b949350505050565b600060208201905061457b6000830184613f44565b92915050565b600061458b61459c565b9050614597828261489f565b919050565b6000604051905090565b600067ffffffffffffffff8211156145c1576145c0614a2f565b5b6145ca82614a5e565b9050602081019050919050565b600067ffffffffffffffff8211156145f2576145f1614a2f565b5b6145fb82614a5e565b9050602081019050919050565b6000819050602082019050919050565b60008190508160005260206000209050919050565b600081519050919050565b600081519050919050565b600081519050919050565b6000602082019050919050565b600082825260208201905092915050565b600082825260208201905092915050565b600082825260208201905092915050565b600081905092915050565b60006146a4826147d6565b91506146af836147d6565b92508261ffff038211156146c6576146c56149a2565b5b828201905092915050565b60006146dc82614804565b91506146e783614804565b9250827fffffffffffffffffffffffffffffffffffffffffffffffffffffffffffffffff0382111561471c5761471b6149a2565b5b828201905092915050565b600061473282614804565b915061473d83614804565b92508261474d5761474c6149d1565b5b828204905092915050565b600061476382614804565b915061476e83614804565b925082821015614781576147806149a2565b5b828203905092915050565b6000614797826147e4565b9050919050565b60008115159050919050565b60007fffffffff0000000000000000000000000000000000000000000000000000000082169050919050565b600061ffff82169050919050565b600073ffffffffffffffffffffffffffffffffffffffff82169050919050565b6000819050919050565b600063ffffffff82169050919050565b600060ff82169050919050565b82818337600083830152505050565b60005b8381101561485857808201518184015260208101905061483d565b83811115614867576000848401525b50505050565b6000600282049050600182168061488557607f821691505b6020821081141561489957614898614a00565b5b50919050565b6148a882614a5e565b810181811067ffffffffffffffff821117156148c7576148c6614a2f565b5b80604052505050565b60006148db82614804565b91507fffffffffffffffffffffffffffffffffffffffffffffffffffffffffffffffff82141561490e5761490d6149a2565b5b600182019050919050565b60006149248261481e565b915060ff821415614938576149376149a2565b5b600182019050919050565b600061494e82614955565b9050919050565b600061496082614a6f565b9050919050565b6000819050919050565b600061497c82614804565b915061498783614804565b925082614997576149966149d1565b5b828206905092915050565b7f4e487b7100000000000000000000000000000000000000000000000000000000600052601160045260246000fd5b7f4e487b7100000000000000000000000000000000000000000000000000000000600052601260045260246000fd5b7f4e487b7100000000000000000000000000000000000000000000000000000000600052602260045260246000fd5b7f4e487b7100000000000000000000000000000000000000000000000000000000600052604160045260246000fd5b6000601f19601f8301169050919050565b60008160601b9050919050565b7f43616e277420626520746865206f776e6572206f662074686520656e6e656d79600082015250565b7f43616e27742064656372656173652074686520616d6f756e74206f6620746f6b60008201527f656e6f6d20737065636965730000000000000000000000000000000000000000602082015250565b7f455243373231456e756d657261626c653a206f776e657220696e646578206f7560008201527f74206f6620626f756e6473000000000000000000000000000000000000000000602082015250565b7f4552433732313a207472616e7366657220746f206e6f6e20455243373231526560008201527f63656976657220696d706c656d656e7465720000000000000000000000000000602082015250565b7f4f776e61626c653a206e6577206f776e657220697320746865207a65726f206160008201527f6464726573730000000000000000000000000000000000000000000000000000602082015250565b7f4552433732313a207472616e736665722066726f6d20696e636f72726563742060008201527f6f776e6572000000000000000000000000000000000000000000000000000000602082015250565b7f4552433732313a20746f6b656e20616c7265616479206d696e74656400000000600082015250565b7f2e706e6700000000000000000000000000000000000000000000000000000000600082015250565b7f596f75722074617267657420697320616c7265616479206669676874696e6700600082015250565b7f4552433732313a207472616e7366657220746f20746865207a65726f2061646460008201527f7265737300000000000000000000000000000000000000000000000000000000602082015250565b7f4552433732313a20617070726f766520746f2063616c6c657200000000000000600082015250565b7f546869732061747461636b20646f6573206e6f74206578697374206f7220686160008201527f7665206e6f74206265206c6561726e65642079657420627920796f757220746f60208201527f6b656e6f6d000000000000000000000000000000000000000000000000000000604082015250565b7f596f757220746f6b656e6f6d20697320616c7265616479206669676874696e67600082015250565b7f7468697320746f6b656e6f6d20646f65736e2774206b6e6f772074686973206160008201527f747461636b000000000000000000000000000000000000000000000000000000602082015250565b7f4552433732313a2061646472657373207a65726f206973206e6f74206120766160008201527f6c6964206f776e65720000000000000000000000000000000000000000000000602082015250565b7f4974277320796f7572206f706f6e656e742773207475726e0000000000000000600082015250565b7f57726f6e67207665727375734964203a20596f75722074617267657420646f6560008201527f73206e6f74206578697374000000000000000000000000000000000000000000602082015250565b7f4552433732313a20617070726f76652063616c6c6572206973206e6f7420746f60008201527f6b656e206f776e6572206e6f7220617070726f76656420666f7220616c6c0000602082015250565b7f4552433732313a206d696e7420746f20746865207a65726f2061646472657373600082015250565b7f4f776e61626c653a2063616c6c6572206973206e6f7420746865206f776e6572600082015250565b7f43616e742068617665206d6f7265207468616e203620546f6b656e6f6d000000600082015250565b7f4552433732313a20696e76616c696420746f6b656e2049440000000000000000600082015250565b7f4552433732313a20617070726f76616c20746f2063757272656e74206f776e6560008201527f7200000000000000000000000000000000000000000000000000000000000000602082015250565b7f455243373231456e756d657261626c653a20676c6f62616c20696e646578206f60008201527f7574206f6620626f756e64730000000000000000000000000000000000000000602082015250565b7f6d696e696d616c2076616c75652063616e27742062652067726561746572207460008201527f68616e206d6178696d616c2076616c7565000000000000000000000000000000602082015250565b7f4d75737420626520746865206f776e6572000000000000000000000000000000600082015250565b7f4552433732313a2063616c6c6572206973206e6f7420746f6b656e206f776e6560008201527f72206e6f7220617070726f766564000000000000000000000000000000000000602082015250565b7f4e6f7420696e2061206669676874000000000000000000000000000000000000600082015250565b6151618161478c565b811461516c57600080fd5b50565b6151788161479e565b811461518357600080fd5b50565b61518f816147aa565b811461519a57600080fd5b50565b6151a681614804565b81146151b157600080fd5b50565b6151bd8161480e565b81146151c857600080fd5b50565b6151d48161481e565b81146151df57600080fd5b5056fea2646970667358221220dce2269357f1274bce0c5ed2f757e1f6f183571704f59513159f88a7d6a9579464736f6c63430008040033",
  "linkReferences": {},
  "deployedLinkReferences": {}
}