{
  "_format": "hh-sol-artifact-1",
  "contractName": "Tokenom",
  "sourceName": "contracts/Tokenom.sol",
  "abi": [
    {
      "inputs": [
        {
          "internalType": "string",
          "name": "name",
          "type": "string"
        },
        {
          "internalType": "string",
          "name": "symbol",
          "type": "string"
        },
        {
          "internalType": "uint256",
          "name": "_attackCooldown",
          "type": "uint256"
        },
        {
          "internalType": "uint32",
          "name": "_maxSpecies",
          "type": "uint32"
        }
      ],
      "stateMutability": "nonpayable",
      "type": "constructor"
    },
    {
      "anonymous": false,
      "inputs": [
        {
          "indexed": true,
          "internalType": "address",
          "name": "owner",
          "type": "address"
        },
        {
          "indexed": true,
          "internalType": "address",
          "name": "approved",
          "type": "address"
        },
        {
          "indexed": true,
          "internalType": "uint256",
          "name": "tokenId",
          "type": "uint256"
        }
      ],
      "name": "Approval",
      "type": "event"
    },
    {
      "anonymous": false,
      "inputs": [
        {
          "indexed": true,
          "internalType": "address",
          "name": "owner",
          "type": "address"
        },
        {
          "indexed": true,
          "internalType": "address",
          "name": "operator",
          "type": "address"
        },
        {
          "indexed": false,
          "internalType": "bool",
          "name": "approved",
          "type": "bool"
        }
      ],
      "name": "ApprovalForAll",
      "type": "event"
    },
    {
      "anonymous": false,
      "inputs": [
        {
          "indexed": false,
          "internalType": "uint256",
          "name": "versusId",
          "type": "uint256"
        },
        {
          "indexed": false,
          "internalType": "uint16",
          "name": "versusRemainingLP",
          "type": "uint16"
        }
      ],
      "name": "AttackFailed",
      "type": "event"
    },
    {
      "anonymous": false,
      "inputs": [
        {
          "indexed": false,
          "internalType": "uint256",
          "name": "versusId",
          "type": "uint256"
        },
        {
          "indexed": false,
          "internalType": "uint8",
          "name": "dmg",
          "type": "uint8"
        },
        {
          "indexed": false,
          "internalType": "uint16",
          "name": "versusRemainingLP",
          "type": "uint16"
        }
      ],
      "name": "AttackSuccess",
      "type": "event"
    },
    {
      "anonymous": false,
      "inputs": [
        {
          "indexed": false,
          "internalType": "uint256",
          "name": "versusId",
          "type": "uint256"
        }
      ],
      "name": "BattleBegin",
      "type": "event"
    },
    {
      "anonymous": false,
      "inputs": [
        {
          "indexed": false,
          "internalType": "uint256",
          "name": "versusId",
          "type": "uint256"
        },
        {
          "indexed": false,
          "internalType": "uint8",
          "name": "newLevel",
          "type": "uint8"
        }
      ],
      "name": "BattleWin",
      "type": "event"
    },
    {
      "anonymous": false,
      "inputs": [
        {
          "indexed": true,
          "internalType": "address",
          "name": "previousOwner",
          "type": "address"
        },
        {
          "indexed": true,
          "internalType": "address",
          "name": "newOwner",
          "type": "address"
        }
      ],
      "name": "OwnershipTransferred",
      "type": "event"
    },
    {
      "anonymous": false,
      "inputs": [
        {
          "indexed": true,
          "internalType": "address",
          "name": "from",
          "type": "address"
        },
        {
          "indexed": true,
          "internalType": "address",
          "name": "to",
          "type": "address"
        },
        {
          "indexed": true,
          "internalType": "uint256",
          "name": "tokenId",
          "type": "uint256"
        }
      ],
      "name": "Transfer",
      "type": "event"
    },
    {
      "inputs": [
        {
          "internalType": "address",
          "name": "to",
          "type": "address"
        },
        {
          "internalType": "uint256",
          "name": "tokenId",
          "type": "uint256"
        }
      ],
      "name": "approve",
      "outputs": [],
      "stateMutability": "nonpayable",
      "type": "function"
    },
    {
      "inputs": [
        {
          "internalType": "uint256",
          "name": "_id",
          "type": "uint256"
        },
        {
          "internalType": "uint8",
          "name": "_choice",
          "type": "uint8"
        }
      ],
      "name": "attack",
      "outputs": [],
      "stateMutability": "nonpayable",
      "type": "function"
    },
    {
      "inputs": [],
      "name": "attackCooldown",
      "outputs": [
        {
          "internalType": "uint256",
          "name": "",
          "type": "uint256"
        }
      ],
      "stateMutability": "view",
      "type": "function"
    },
    {
      "inputs": [
        {
          "internalType": "address",
          "name": "owner",
          "type": "address"
        }
      ],
      "name": "balanceOf",
      "outputs": [
        {
          "internalType": "uint256",
          "name": "",
          "type": "uint256"
        }
      ],
      "stateMutability": "view",
      "type": "function"
    },
    {
      "inputs": [
        {
          "internalType": "uint256",
          "name": "tokenId",
          "type": "uint256"
        }
      ],
      "name": "getApproved",
      "outputs": [
        {
          "internalType": "address",
          "name": "",
          "type": "address"
        }
      ],
      "stateMutability": "view",
      "type": "function"
    },
    {
      "inputs": [],
      "name": "getMaxSpecies",
      "outputs": [
        {
          "internalType": "uint32",
          "name": "",
          "type": "uint32"
        }
      ],
      "stateMutability": "view",
      "type": "function"
    },
    {
      "inputs": [
        {
          "internalType": "address",
          "name": "_owner",
          "type": "address"
        }
      ],
      "name": "getTokenIds",
      "outputs": [
        {
          "internalType": "uint256[]",
          "name": "",
          "type": "uint256[]"
        }
      ],
      "stateMutability": "view",
      "type": "function"
    },
    {
      "inputs": [
        {
          "internalType": "uint256",
          "name": "tokenId",
          "type": "uint256"
        },
        {
          "internalType": "uint8",
          "name": "attackId",
          "type": "uint8"
        }
      ],
      "name": "getTokenomAttack",
      "outputs": [
        {
          "internalType": "string",
          "name": "name",
          "type": "string"
        },
        {
          "internalType": "uint256",
          "name": "damage",
          "type": "uint256"
        },
        {
          "internalType": "uint256",
          "name": "precision",
          "type": "uint256"
        }
      ],
      "stateMutability": "view",
      "type": "function"
    },
    {
      "inputs": [
        {
          "internalType": "address",
          "name": "owner",
          "type": "address"
        },
        {
          "internalType": "address",
          "name": "operator",
          "type": "address"
        }
      ],
      "name": "isApprovedForAll",
      "outputs": [
        {
          "internalType": "bool",
          "name": "",
          "type": "bool"
        }
      ],
      "stateMutability": "view",
      "type": "function"
    },
    {
      "inputs": [
        {
          "internalType": "string",
          "name": "_name",
          "type": "string"
        }
      ],
      "name": "mint",
      "outputs": [],
      "stateMutability": "nonpayable",
      "type": "function"
    },
    {
      "inputs": [],
      "name": "name",
      "outputs": [
        {
          "internalType": "string",
          "name": "",
          "type": "string"
        }
      ],
      "stateMutability": "view",
      "type": "function"
    },
    {
      "inputs": [],
      "name": "owner",
      "outputs": [
        {
          "internalType": "address",
          "name": "",
          "type": "address"
        }
      ],
      "stateMutability": "view",
      "type": "function"
    },
    {
      "inputs": [
        {
          "internalType": "uint256",
          "name": "tokenId",
          "type": "uint256"
        }
      ],
      "name": "ownerOf",
      "outputs": [
        {
          "internalType": "address",
          "name": "",
          "type": "address"
        }
      ],
      "stateMutability": "view",
      "type": "function"
    },
    {
      "inputs": [],
      "name": "renounceOwnership",
      "outputs": [],
      "stateMutability": "nonpayable",
      "type": "function"
    },
    {
      "inputs": [
        {
          "internalType": "address",
          "name": "from",
          "type": "address"
        },
        {
          "internalType": "address",
          "name": "to",
          "type": "address"
        },
        {
          "internalType": "uint256",
          "name": "tokenId",
          "type": "uint256"
        }
      ],
      "name": "safeTransferFrom",
      "outputs": [],
      "stateMutability": "nonpayable",
      "type": "function"
    },
    {
      "inputs": [
        {
          "internalType": "address",
          "name": "from",
          "type": "address"
        },
        {
          "internalType": "address",
          "name": "to",
          "type": "address"
        },
        {
          "internalType": "uint256",
          "name": "tokenId",
          "type": "uint256"
        },
        {
          "internalType": "bytes",
          "name": "data",
          "type": "bytes"
        }
      ],
      "name": "safeTransferFrom",
      "outputs": [],
      "stateMutability": "nonpayable",
      "type": "function"
    },
    {
      "inputs": [
        {
          "internalType": "address",
          "name": "operator",
          "type": "address"
        },
        {
          "internalType": "bool",
          "name": "approved",
          "type": "bool"
        }
      ],
      "name": "setApprovalForAll",
      "outputs": [],
      "stateMutability": "nonpayable",
      "type": "function"
    },
    {
      "inputs": [
        {
          "internalType": "string",
          "name": "_newBaseURI",
          "type": "string"
        }
      ],
      "name": "setBaseURI",
      "outputs": [],
      "stateMutability": "nonpayable",
      "type": "function"
    },
    {
      "inputs": [
        {
          "internalType": "uint32",
          "name": "_newMaxSpecies",
          "type": "uint32"
        }
      ],
      "name": "setMaxSpecies",
      "outputs": [],
      "stateMutability": "nonpayable",
      "type": "function"
    },
    {
      "inputs": [
        {
          "internalType": "uint256",
          "name": "_id",
          "type": "uint256"
        },
        {
          "internalType": "uint256",
          "name": "_versusId",
          "type": "uint256"
        }
      ],
      "name": "startBattle",
      "outputs": [],
      "stateMutability": "nonpayable",
      "type": "function"
    },
    {
      "inputs": [
        {
          "internalType": "bytes4",
          "name": "interfaceId",
          "type": "bytes4"
        }
      ],
      "name": "supportsInterface",
      "outputs": [
        {
          "internalType": "bool",
          "name": "",
          "type": "bool"
        }
      ],
      "stateMutability": "view",
      "type": "function"
    },
    {
      "inputs": [],
      "name": "symbol",
      "outputs": [
        {
          "internalType": "string",
          "name": "",
          "type": "string"
        }
      ],
      "stateMutability": "view",
      "type": "function"
    },
    {
      "inputs": [
        {
          "internalType": "uint256",
          "name": "index",
          "type": "uint256"
        }
      ],
      "name": "tokenByIndex",
      "outputs": [
        {
          "internalType": "uint256",
          "name": "",
          "type": "uint256"
        }
      ],
      "stateMutability": "view",
      "type": "function"
    },
    {
      "inputs": [
        {
          "internalType": "address",
          "name": "owner",
          "type": "address"
        },
        {
          "internalType": "uint256",
          "name": "index",
          "type": "uint256"
        }
      ],
      "name": "tokenOfOwnerByIndex",
      "outputs": [
        {
          "internalType": "uint256",
          "name": "",
          "type": "uint256"
        }
      ],
      "stateMutability": "view",
      "type": "function"
    },
    {
      "inputs": [
        {
          "internalType": "uint256",
          "name": "tokenId",
          "type": "uint256"
        }
      ],
      "name": "tokenURI",
      "outputs": [
        {
          "internalType": "string",
          "name": "",
          "type": "string"
        }
      ],
      "stateMutability": "view",
      "type": "function"
    },
    {
      "inputs": [
        {
          "internalType": "uint256",
          "name": "",
          "type": "uint256"
        }
      ],
      "name": "tokenomStats",
      "outputs": [
        {
          "internalType": "string",
          "name": "name",
          "type": "string"
        },
        {
          "internalType": "uint8",
          "name": "level",
          "type": "uint8"
        },
        {
          "internalType": "uint16",
          "name": "maxLifePoint",
          "type": "uint16"
        },
        {
          "internalType": "uint32",
          "name": "species",
          "type": "uint32"
        },
        {
          "internalType": "bool",
          "name": "isFighting",
          "type": "bool"
        },
        {
          "internalType": "uint256",
          "name": "versusId",
          "type": "uint256"
        },
        {
          "internalType": "uint16",
          "name": "lifePoint",
          "type": "uint16"
        },
        {
          "internalType": "bool",
          "name": "cooldown",
          "type": "bool"
        },
        {
          "internalType": "uint256",
          "name": "lastAttack",
          "type": "uint256"
        }
      ],
      "stateMutability": "view",
      "type": "function"
    },
    {
      "inputs": [],
      "name": "totalSupply",
      "outputs": [
        {
          "internalType": "uint256",
          "name": "",
          "type": "uint256"
        }
      ],
      "stateMutability": "view",
      "type": "function"
    },
    {
      "inputs": [
        {
          "internalType": "address",
          "name": "from",
          "type": "address"
        },
        {
          "internalType": "address",
          "name": "to",
          "type": "address"
        },
        {
          "internalType": "uint256",
          "name": "tokenId",
          "type": "uint256"
        }
      ],
      "name": "transferFrom",
      "outputs": [],
      "stateMutability": "nonpayable",
      "type": "function"
    },
    {
      "inputs": [
        {
          "internalType": "address",
          "name": "newOwner",
          "type": "address"
        }
      ],
      "name": "transferOwnership",
      "outputs": [],
      "stateMutability": "nonpayable",
      "type": "function"
    }
  ],
  "bytecode": "0x60806040523480156200001157600080fd5b50604051620057a1380380620057a18339818101604052810190620000379190620002ee565b83838160009080519060200190620000519291906200019e565b5080600190805190602001906200006a9291906200019e565b5050506200008d62000081620000d060201b60201c565b620000d860201b60201c565b6200009e33620000d860201b60201c565b81600c8190555080600d60006101000a81548163ffffffff021916908363ffffffff160217905550505050506200054a565b600033905090565b6000600a60009054906101000a900473ffffffffffffffffffffffffffffffffffffffff16905081600a60006101000a81548173ffffffffffffffffffffffffffffffffffffffff021916908373ffffffffffffffffffffffffffffffffffffffff1602179055508173ffffffffffffffffffffffffffffffffffffffff168173ffffffffffffffffffffffffffffffffffffffff167f8be0079c531659141344cd1fd0a4f28419497f9722a3daafe3b4186f6b6457e060405160405180910390a35050565b828054620001ac906200043b565b90600052602060002090601f016020900481019282620001d057600085556200021c565b82601f10620001eb57805160ff19168380011785556200021c565b828001600101855582156200021c579182015b828111156200021b578251825591602001919060010190620001fe565b5b5090506200022b91906200022f565b5090565b5b808211156200024a57600081600090555060010162000230565b5090565b6000620002656200025f84620003b5565b6200038c565b9050828152602081018484840111156200027e57600080fd5b6200028b84828562000405565b509392505050565b600082601f830112620002a557600080fd5b8151620002b78482602086016200024e565b91505092915050565b600081519050620002d18162000516565b92915050565b600081519050620002e88162000530565b92915050565b600080600080608085870312156200030557600080fd5b600085015167ffffffffffffffff8111156200032057600080fd5b6200032e8782880162000293565b945050602085015167ffffffffffffffff8111156200034c57600080fd5b6200035a8782880162000293565b93505060406200036d87828801620002c0565b92505060606200038087828801620002d7565b91505092959194509250565b600062000398620003ab565b9050620003a6828262000471565b919050565b6000604051905090565b600067ffffffffffffffff821115620003d357620003d2620004d6565b5b620003de8262000505565b9050602081019050919050565b6000819050919050565b600063ffffffff82169050919050565b60005b838110156200042557808201518184015260208101905062000408565b8381111562000435576000848401525b50505050565b600060028204905060018216806200045457607f821691505b602082108114156200046b576200046a620004a7565b5b50919050565b6200047c8262000505565b810181811067ffffffffffffffff821117156200049e576200049d620004d6565b5b80604052505050565b7f4e487b7100000000000000000000000000000000000000000000000000000000600052602260045260246000fd5b7f4e487b7100000000000000000000000000000000000000000000000000000000600052604160045260246000fd5b6000601f19601f8301169050919050565b6200052181620003eb565b81146200052d57600080fd5b50565b6200053b81620003f5565b81146200054757600080fd5b50565b615247806200055a6000396000f3fe608060405234801561001057600080fd5b50600436106101cf5760003560e01c8063715018a611610104578063b88d4fde116100a2578063d85d3d2711610071578063d85d3d271461055a578063e73961f514610576578063e985e9c514610594578063f2fde38b146105c4576101cf565b8063b88d4fde146104ac578063c87b56dd146104c8578063d004b036146104f8578063d82305a114610528576101cf565b806395d89b41116100de57806395d89b411461043a5780639f3aa7f214610458578063a22cb46514610474578063a888982314610490576101cf565b8063715018a6146103da5780638da5cb5b146103e45780639076d9a814610402576101cf565b80632f745c59116101715780634f6ccce71161014b5780634f6ccce71461032e57806355f804b31461035e5780636352211e1461037a57806370a08231146103aa576101cf565b80632f745c59146102c65780633daa6ba9146102f657806342842e0e14610312576101cf565b8063095ea7b3116101ad578063095ea7b31461025257806318160ddd1461026e5780631e58b0dc1461028c57806323b872dd146102aa576101cf565b806301ffc9a7146101d457806306fdde0314610204578063081812fc14610222575b600080fd5b6101ee60048036038101906101e99190613831565b6105e0565b6040516101fb9190614082565b60405180910390f35b61020c61065a565b604051610219919061409d565b60405180910390f35b61023c600480360381019061023791906138c4565b6106ec565b6040516102499190613ff9565b60405180910390f35b61026c600480360381019061026791906137f5565b610732565b005b61027661084a565b60405161028391906144f1565b60405180910390f35b610294610857565b6040516102a19190614595565b60405180910390f35b6102c460048036038101906102bf91906136ef565b610871565b005b6102e060048036038101906102db91906137f5565b6108d1565b6040516102ed91906144f1565b60405180910390f35b610310600480360381019061030b91906138ed565b610976565b005b61032c600480360381019061032791906136ef565b610cfd565b005b610348600480360381019061034391906138c4565b610d1d565b60405161035591906144f1565b60405180910390f35b61037860048036038101906103739190613883565b610db4565b005b610394600480360381019061038f91906138c4565b610dd6565b6040516103a19190613ff9565b60405180910390f35b6103c460048036038101906103bf919061368a565b610e88565b6040516103d191906144f1565b60405180910390f35b6103e2610f40565b005b6103ec610f54565b6040516103f99190613ff9565b60405180910390f35b61041c600480360381019061041791906138c4565b610f7e565b604051610431999897969594939291906140fd565b60405180910390f35b6104426110a7565b60405161044f919061409d565b60405180910390f35b610472600480360381019061046d9190613929565b611139565b005b61048e600480360381019061048991906137b9565b611985565b005b6104aa60048036038101906104a59190613965565b61199b565b005b6104c660048036038101906104c1919061373e565b611a27565b005b6104e260048036038101906104dd91906138c4565b611a89565b6040516104ef919061409d565b60405180910390f35b610512600480360381019061050d919061368a565b611ae9565b60405161051f9190614060565b60405180910390f35b610542600480360381019061053d9190613929565b611be5565b604051610551939291906140bf565b60405180910390f35b610574600480360381019061056f9190613883565b611d5c565b005b61057e611d69565b60405161058b91906144f1565b60405180910390f35b6105ae60048036038101906105a991906136b3565b611d6f565b6040516105bb9190614082565b60405180910390f35b6105de60048036038101906105d9919061368a565b611e03565b005b60007f780e9d63000000000000000000000000000000000000000000000000000000007bffffffffffffffffffffffffffffffffffffffffffffffffffffffff1916827bffffffffffffffffffffffffffffffffffffffffffffffffffffffff19161480610653575061065282611e87565b5b9050919050565b6060600080546106699061489c565b80601f01602080910402602001604051908101604052809291908181526020018280546106959061489c565b80156106e25780601f106106b7576101008083540402835291602001916106e2565b820191906000526020600020905b8154815290600101906020018083116106c557829003601f168201915b5050505050905090565b60006106f782611f69565b6004600083815260200190815260200160002060009054906101000a900473ffffffffffffffffffffffffffffffffffffffff169050919050565b600061073d82610dd6565b90508073ffffffffffffffffffffffffffffffffffffffff168373ffffffffffffffffffffffffffffffffffffffff1614156107ae576040517f08c379a00000000000000000000000000000000000000000000000000000000081526004016107a590614431565b60405180910390fd5b8073ffffffffffffffffffffffffffffffffffffffff166107cd611fb4565b73ffffffffffffffffffffffffffffffffffffffff1614806107fc57506107fb816107f6611fb4565b611d6f565b5b61083b576040517f08c379a000000000000000000000000000000000000000000000000000000000815260040161083290614391565b60405180910390fd5b6108458383611fbc565b505050565b6000600880549050905090565b6000600d60009054906101000a900463ffffffff16905090565b61088261087c611fb4565b82612075565b6108c1576040517f08c379a00000000000000000000000000000000000000000000000000000000081526004016108b8906144b1565b60405180910390fd5b6108cc83838361210a565b505050565b60006108dc83610e88565b821061091d576040517f08c379a0000000000000000000000000000000000000000000000000000000008152600401610914906141d1565b60405180910390fd5b600660008473ffffffffffffffffffffffffffffffffffffffff1673ffffffffffffffffffffffffffffffffffffffff168152602001908152602001600020600083815260200190815260200160002054905092915050565b61097f81612371565b6109be576040517f08c379a00000000000000000000000000000000000000000000000000000000081526004016109b590614371565b60405180910390fd5b3373ffffffffffffffffffffffffffffffffffffffff166109de83610dd6565b73ffffffffffffffffffffffffffffffffffffffff1614610a34576040517f08c379a0000000000000000000000000000000000000000000000000000000008152600401610a2b90614491565b60405180910390fd5b3373ffffffffffffffffffffffffffffffffffffffff16610a5482610dd6565b73ffffffffffffffffffffffffffffffffffffffff161415610aab576040517f08c379a0000000000000000000000000000000000000000000000000000000008152600401610aa290614191565b60405180910390fd5b600e600083815260200190815260200160002060030160009054906101000a900460ff1615610b0f576040517f08c379a0000000000000000000000000000000000000000000000000000000008152600401610b06906142f1565b60405180910390fd5b600e600082815260200190815260200160002060030160009054906101000a900460ff1615610b73576040517f08c379a0000000000000000000000000000000000000000000000000000000008152600401610b6a90614271565b60405180910390fd5b6001600e600084815260200190815260200160002060030160006101000a81548160ff02191690831515021790555080600e6000848152602001908152602001600020600401819055506001600e600084815260200190815260200160002060050160026101000a81548160ff02191690831515021790555042600e6000848152602001908152602001600020600601819055506001600e6000600e600086815260200190815260200160002060040154815260200190815260200160002060030160006101000a81548160ff02191690831515021790555081600e6000600e6000868152602001908152602001600020600401548152602001908152602001600020600401819055506000600e6000600e600086815260200190815260200160002060040154815260200190815260200160002060050160026101000a81548160ff0219169083151502179055507fbad853270e74b043094db20c861bb5c5fe66a3e770048db696c783a118ccbfcd81604051610cf191906144f1565b60405180910390a15050565b610d1883838360405180602001604052806000815250611a27565b505050565b6000610d2761084a565b8210610d68576040517f08c379a0000000000000000000000000000000000000000000000000000000008152600401610d5f90614451565b60405180910390fd5b60088281548110610da2577f4e487b7100000000000000000000000000000000000000000000000000000000600052603260045260246000fd5b90600052602060002001549050919050565b610dbc6123dd565b80600b9080519060200190610dd2929190613484565b5050565b6000806002600084815260200190815260200160002060009054906101000a900473ffffffffffffffffffffffffffffffffffffffff169050600073ffffffffffffffffffffffffffffffffffffffff168173ffffffffffffffffffffffffffffffffffffffff161415610e7f576040517f08c379a0000000000000000000000000000000000000000000000000000000008152600401610e7690614411565b60405180910390fd5b80915050919050565b60008073ffffffffffffffffffffffffffffffffffffffff168273ffffffffffffffffffffffffffffffffffffffff161415610ef9576040517f08c379a0000000000000000000000000000000000000000000000000000000008152600401610ef090614331565b60405180910390fd5b600360008373ffffffffffffffffffffffffffffffffffffffff1673ffffffffffffffffffffffffffffffffffffffff168152602001908152602001600020549050919050565b610f486123dd565b610f52600061245b565b565b6000600a60009054906101000a900473ffffffffffffffffffffffffffffffffffffffff16905090565b600e602052806000526040600020600091509050806000018054610fa19061489c565b80601f0160208091040260200160405190810160405280929190818152602001828054610fcd9061489c565b801561101a5780601f10610fef5761010080835404028352916020019161101a565b820191906000526020600020905b815481529060010190602001808311610ffd57829003601f168201915b5050505050908060010160009054906101000a900460ff16908060010160019054906101000a900461ffff16908060010160039054906101000a900463ffffffff16908060030160009054906101000a900460ff16908060040154908060050160009054906101000a900461ffff16908060050160029054906101000a900460ff16908060060154905089565b6060600180546110b69061489c565b80601f01602080910402602001604051908101604052809291908181526020018280546110e29061489c565b801561112f5780601f106111045761010080835404028352916020019161112f565b820191906000526020600020905b81548152906001019060200180831161111257829003601f168201915b5050505050905090565b3373ffffffffffffffffffffffffffffffffffffffff1661115983610dd6565b73ffffffffffffffffffffffffffffffffffffffff16146111af576040517f08c379a00000000000000000000000000000000000000000000000000000000081526004016111a690614491565b60405180910390fd5b600e600083815260200190815260200160002060030160009054906101000a900460ff16611212576040517f08c379a0000000000000000000000000000000000000000000000000000000008152600401611209906144d1565b60405180910390fd5b600e600083815260200190815260200160002060050160029054906101000a900460ff16156112a157600c54600e600084815260200190815260200160002060060154426112609190614787565b116112a0576040517f08c379a000000000000000000000000000000000000000000000000000000000815260040161129790614351565b60405180910390fd5b5b6000600e600084815260200190815260200160002060020160008360ff1660ff1681526020019081526020016000206001015411611314576040517f08c379a000000000000000000000000000000000000000000000000000000000815260040161130b906142d1565b60405180910390fd5b600e600083815260200190815260200160002060020160008260ff1660ff1681526020019081526020016000206002015461140a60006064600e600087815260200190815260200160002060020160008660ff1660ff16815260200190815260200160002060000180546113879061489c565b80601f01602080910402602001604051908101604052809291908181526020018280546113b39061489c565b80156114005780601f106113d557610100808354040283529160200191611400565b820191906000526020600020905b8154815290600101906020018083116113e357829003601f168201915b5050505050612521565b10156118f757600e600083815260200190815260200160002060020160008260ff1660ff16815260200190815260200160002060010154600e6000600e600086815260200190815260200160002060040154815260200190815260200160002060050160009054906101000a900461ffff1661ffff16116116e057600e6000838152602001908152602001600020600101600081819054906101000a900460ff16809291906114b890614948565b91906101000a81548160ff021916908360ff160217905550506005600e600084815260200190815260200160002060010160018282829054906101000a900461ffff1661150591906146c8565b92506101000a81548161ffff021916908361ffff160217905550600e600083815260200190815260200160002060010160019054906101000a900461ffff16600e600084815260200190815260200160002060050160006101000a81548161ffff021916908361ffff1602179055506000600e600084815260200190815260200160002060030160006101000a81548160ff021916908315150217905550600e6000600e600085815260200190815260200160002060040154815260200190815260200160002060010160019054906101000a900461ffff16600e6000600e600086815260200190815260200160002060040154815260200190815260200160002060050160006101000a81548161ffff021916908361ffff1602179055506000600e6000600e600086815260200190815260200160002060040154815260200190815260200160002060030160006101000a81548160ff0219169083151502179055507f37acb25e9a3160fa43ff7ccbed6c2dfb13d2208da8c4841c42125ef746e8e002600e600084815260200190815260200160002060040154600e600085815260200190815260200160002060010160009054906101000a900460ff166040516116d3929190614535565b60405180910390a16118f2565b611761600e600084815260200190815260200160002060020160008360ff1660ff16815260200190815260200160002060010154600e6000600e600087815260200190815260200160002060040154815260200190815260200160002060050160009054906101000a900461ffff1661ffff166125bd90919063ffffffff16565b600e6000600e600086815260200190815260200160002060040154815260200190815260200160002060050160006101000a81548161ffff021916908361ffff1602179055506001600e600084815260200190815260200160002060050160026101000a81548160ff02191690831515021790555042600e6000848152602001908152602001600020600601819055506000600e6000600e600086815260200190815260200160002060040154815260200190815260200160002060050160026101000a81548160ff0219169083151502179055507fc699978331a941ebac20688941ba767c3c60d591bf7c4e0b34ea6bca09ee1cd0600e600084815260200190815260200160002060040154600e600085815260200190815260200160002060020160008460ff1660ff16815260200190815260200160002060010154600e6000600e600088815260200190815260200160002060040154815260200190815260200160002060050160009054906101000a900461ffff166040516118e99392919061455e565b60405180910390a15b611981565b7f80007f9835ad982a74c11b660527b568da4835f87b914b9e5a2f338ba9163032600e600084815260200190815260200160002060040154600e6000600e600087815260200190815260200160002060040154815260200190815260200160002060050160009054906101000a900461ffff1660405161197892919061450c565b60405180910390a15b5050565b611997611990611fb4565b83836125d3565b5050565b6119a36123dd565b8063ffffffff16600d60009054906101000a900463ffffffff1663ffffffff1610611a03576040517f08c379a00000000000000000000000000000000000000000000000000000000081526004016119fa906141b1565b60405180910390fd5b80600d60006101000a81548163ffffffff021916908363ffffffff16021790555050565b611a38611a32611fb4565b83612075565b611a77576040517f08c379a0000000000000000000000000000000000000000000000000000000008152600401611a6e906144b1565b60405180910390fd5b611a8384848484612740565b50505050565b6060600b611ac2600e600085815260200190815260200160002060010160039054906101000a900463ffffffff1663ffffffff1661279c565b604051602001611ad3929190613f91565b6040516020818303038152906040529050919050565b60606000611af683610e88565b67ffffffffffffffff811115611b35577f4e487b7100000000000000000000000000000000000000000000000000000000600052604160045260246000fd5b604051908082528060200260200182016040528015611b635781602001602082028036833780820191505090505b50905060005b611b7284610e88565b811015611bdb57611b8384826108d1565b828281518110611bbc577f4e487b7100000000000000000000000000000000000000000000000000000000600052603260045260246000fd5b6020026020010181815250508080611bd3906148ff565b915050611b69565b8192505050919050565b60606000806000600e600087815260200190815260200160002060020160008660ff1660ff1681526020019081526020016000206001015411611c5d576040517f08c379a0000000000000000000000000000000000000000000000000000000008152600401611c5490614311565b60405180910390fd5b6000600e600087815260200190815260200160002060020160008660ff1660ff168152602001908152602001600020604051806060016040529081600082018054611ca79061489c565b80601f0160208091040260200160405190810160405280929190818152602001828054611cd39061489c565b8015611d205780601f10611cf557610100808354040283529160200191611d20565b820191906000526020600020905b815481529060010190602001808311611d0357829003601f168201915b50505050508152602001600182015481526020016002820154815250509050806000015181602001518260400151935093509350509250925092565b611d663382612949565b50565b600c5481565b6000600560008473ffffffffffffffffffffffffffffffffffffffff1673ffffffffffffffffffffffffffffffffffffffff16815260200190815260200160002060008373ffffffffffffffffffffffffffffffffffffffff1673ffffffffffffffffffffffffffffffffffffffff16815260200190815260200160002060009054906101000a900460ff16905092915050565b611e0b6123dd565b600073ffffffffffffffffffffffffffffffffffffffff168173ffffffffffffffffffffffffffffffffffffffff161415611e7b576040517f08c379a0000000000000000000000000000000000000000000000000000000008152600401611e7290614211565b60405180910390fd5b611e848161245b565b50565b60007f80ac58cd000000000000000000000000000000000000000000000000000000007bffffffffffffffffffffffffffffffffffffffffffffffffffffffff1916827bffffffffffffffffffffffffffffffffffffffffffffffffffffffff19161480611f5257507f5b5e139f000000000000000000000000000000000000000000000000000000007bffffffffffffffffffffffffffffffffffffffffffffffffffffffff1916827bffffffffffffffffffffffffffffffffffffffffffffffffffffffff1916145b80611f625750611f6182612b77565b5b9050919050565b611f7281612371565b611fb1576040517f08c379a0000000000000000000000000000000000000000000000000000000008152600401611fa890614411565b60405180910390fd5b50565b600033905090565b816004600083815260200190815260200160002060006101000a81548173ffffffffffffffffffffffffffffffffffffffff021916908373ffffffffffffffffffffffffffffffffffffffff160217905550808273ffffffffffffffffffffffffffffffffffffffff1661202f83610dd6565b73ffffffffffffffffffffffffffffffffffffffff167f8c5be1e5ebec7d5bd14f71427d1e84f3dd0314c0f7b2291e5b200ac8c7c3b92560405160405180910390a45050565b60008061208183610dd6565b90508073ffffffffffffffffffffffffffffffffffffffff168473ffffffffffffffffffffffffffffffffffffffff1614806120c357506120c28185611d6f565b5b8061210157508373ffffffffffffffffffffffffffffffffffffffff166120e9846106ec565b73ffffffffffffffffffffffffffffffffffffffff16145b91505092915050565b8273ffffffffffffffffffffffffffffffffffffffff1661212a82610dd6565b73ffffffffffffffffffffffffffffffffffffffff1614612180576040517f08c379a000000000000000000000000000000000000000000000000000000000815260040161217790614231565b60405180910390fd5b600073ffffffffffffffffffffffffffffffffffffffff168273ffffffffffffffffffffffffffffffffffffffff1614156121f0576040517f08c379a00000000000000000000000000000000000000000000000000000000081526004016121e790614291565b60405180910390fd5b6121fb838383612be1565b612206600082611fbc565b6001600360008573ffffffffffffffffffffffffffffffffffffffff1673ffffffffffffffffffffffffffffffffffffffff16815260200190815260200160002060008282546122569190614787565b925050819055506001600360008473ffffffffffffffffffffffffffffffffffffffff1673ffffffffffffffffffffffffffffffffffffffff16815260200190815260200160002060008282546122ad9190614700565b92505081905550816002600083815260200190815260200160002060006101000a81548173ffffffffffffffffffffffffffffffffffffffff021916908373ffffffffffffffffffffffffffffffffffffffff160217905550808273ffffffffffffffffffffffffffffffffffffffff168473ffffffffffffffffffffffffffffffffffffffff167fddf252ad1be2c89b69c2b068fc378daa952ba7f163c4a11628f55a4df523b3ef60405160405180910390a461236c838383612cf5565b505050565b60008073ffffffffffffffffffffffffffffffffffffffff166002600084815260200190815260200160002060009054906101000a900473ffffffffffffffffffffffffffffffffffffffff1673ffffffffffffffffffffffffffffffffffffffff1614159050919050565b6123e5611fb4565b73ffffffffffffffffffffffffffffffffffffffff16612403610f54565b73ffffffffffffffffffffffffffffffffffffffff1614612459576040517f08c379a0000000000000000000000000000000000000000000000000000000008152600401612450906143d1565b60405180910390fd5b565b6000600a60009054906101000a900473ffffffffffffffffffffffffffffffffffffffff16905081600a60006101000a81548173ffffffffffffffffffffffffffffffffffffffff021916908373ffffffffffffffffffffffffffffffffffffffff1602179055508173ffffffffffffffffffffffffffffffffffffffff168173ffffffffffffffffffffffffffffffffffffffff167f8be0079c531659141344cd1fd0a4f28419497f9722a3daafe3b4186f6b6457e060405160405180910390a35050565b6000838311612565576040517f08c379a000000000000000000000000000000000000000000000000000000000815260040161255c90614471565b60405180910390fd5b8384846125729190614787565b42843360405160200161258793929190613fc0565b6040516020818303038152906040528051906020012060001c6125aa91906149a0565b6125b49190614700565b90509392505050565b600081836125cb9190614787565b905092915050565b8173ffffffffffffffffffffffffffffffffffffffff168373ffffffffffffffffffffffffffffffffffffffff161415612642576040517f08c379a0000000000000000000000000000000000000000000000000000000008152600401612639906142b1565b60405180910390fd5b80600560008573ffffffffffffffffffffffffffffffffffffffff1673ffffffffffffffffffffffffffffffffffffffff16815260200190815260200160002060008473ffffffffffffffffffffffffffffffffffffffff1673ffffffffffffffffffffffffffffffffffffffff16815260200190815260200160002060006101000a81548160ff0219169083151502179055508173ffffffffffffffffffffffffffffffffffffffff168373ffffffffffffffffffffffffffffffffffffffff167f17307eab39ab6107e8899845ad3d59bd9653f200f220920489ca2b5937696c31836040516127339190614082565b60405180910390a3505050565b61274b84848461210a565b61275784848484612cfa565b612796576040517f08c379a000000000000000000000000000000000000000000000000000000000815260040161278d906141f1565b60405180910390fd5b50505050565b606060008214156127e4576040518060400160405280600181526020017f30000000000000000000000000000000000000000000000000000000000000008152509050612944565b600082905060005b600082146128165780806127ff906148ff565b915050600a8261280f9190614756565b91506127ec565b60008167ffffffffffffffff811115612858577f4e487b7100000000000000000000000000000000000000000000000000000000600052604160045260246000fd5b6040519080825280601f01601f19166020018201604052801561288a5781602001600182028036833780820191505090505b5090505b6000851461293d576001826128a39190614787565b9150600a856128b291906149a0565b60306128be9190614700565b60f81b8183815181106128fa577f4e487b7100000000000000000000000000000000000000000000000000000000600052603260045260246000fd5b60200101907effffffffffffffffffffffffffffffffffffffffffffffffffffffffffffff1916908160001a905350600a856129369190614756565b945061288e565b8093505050505b919050565b6006600161295684610e88565b6129609190614700565b11156129a1576040517f08c379a0000000000000000000000000000000000000000000000000000000008152600401612998906143f1565b60405180910390fd5b600060016129ad61084a565b6129b79190614700565b90506129c38382612e91565b6000600e60008381526020019081526020016000209050828160000190805190602001906129f2929190613484565b5060018160010160006101000a81548160ff021916908360ff160217905550612a26600a6014612a218561279c565b612521565b8160010160016101000a81548161ffff021916908361ffff1602179055506000600e600084815260200190815260200160002060020160008060ff16815260200190815260200160002090506040518060400160405280600681526020017f6368617267650000000000000000000000000000000000000000000000000000815250816000019080519060200190612abf929190613484565b5060058160010181905550604b816002018190555060008260030160006101000a81548160ff0219169083151502179055508160010160019054906101000a900461ffff168260050160006101000a81548161ffff021916908361ffff160217905550612b4e6001600d60009054906101000a900463ffffffff1663ffffffff16612b498661279c565b612521565b8260010160036101000a81548163ffffffff021916908363ffffffff1602179055505050505050565b60007f01ffc9a7000000000000000000000000000000000000000000000000000000007bffffffffffffffffffffffffffffffffffffffffffffffffffffffff1916827bffffffffffffffffffffffffffffffffffffffffffffffffffffffff1916149050919050565b612bec838383612eaf565b600073ffffffffffffffffffffffffffffffffffffffff168373ffffffffffffffffffffffffffffffffffffffff161415612c2f57612c2a81612eb4565b612c6e565b8173ffffffffffffffffffffffffffffffffffffffff168373ffffffffffffffffffffffffffffffffffffffff1614612c6d57612c6c8382612efd565b5b5b600073ffffffffffffffffffffffffffffffffffffffff168273ffffffffffffffffffffffffffffffffffffffff161415612cb157612cac8161306a565b612cf0565b8273ffffffffffffffffffffffffffffffffffffffff168273ffffffffffffffffffffffffffffffffffffffff1614612cef57612cee82826131ad565b5b5b505050565b505050565b6000612d1b8473ffffffffffffffffffffffffffffffffffffffff1661322c565b15612e84578373ffffffffffffffffffffffffffffffffffffffff1663150b7a02612d44611fb4565b8786866040518563ffffffff1660e01b8152600401612d669493929190614014565b602060405180830381600087803b158015612d8057600080fd5b505af1925050508015612db157506040513d601f19601f82011682018060405250810190612dae919061385a565b60015b612e34573d8060008114612de1576040519150601f19603f3d011682016040523d82523d6000602084013e612de6565b606091505b50600081511415612e2c576040517f08c379a0000000000000000000000000000000000000000000000000000000008152600401612e23906141f1565b60405180910390fd5b805181602001fd5b63150b7a0260e01b7bffffffffffffffffffffffffffffffffffffffffffffffffffffffff1916817bffffffffffffffffffffffffffffffffffffffffffffffffffffffff191614915050612e89565b600190505b949350505050565b612eab82826040518060200160405280600081525061324f565b5050565b505050565b6008805490506009600083815260200190815260200160002081905550600881908060018154018082558091505060019003906000526020600020016000909190919091505550565b60006001612f0a84610e88565b612f149190614787565b9050600060076000848152602001908152602001600020549050818114612ff9576000600660008673ffffffffffffffffffffffffffffffffffffffff1673ffffffffffffffffffffffffffffffffffffffff168152602001908152602001600020600084815260200190815260200160002054905080600660008773ffffffffffffffffffffffffffffffffffffffff1673ffffffffffffffffffffffffffffffffffffffff168152602001908152602001600020600084815260200190815260200160002081905550816007600083815260200190815260200160002081905550505b6007600084815260200190815260200160002060009055600660008573ffffffffffffffffffffffffffffffffffffffff1673ffffffffffffffffffffffffffffffffffffffff16815260200190815260200160002060008381526020019081526020016000206000905550505050565b6000600160088054905061307e9190614787565b90506000600960008481526020019081526020016000205490506000600883815481106130d4577f4e487b7100000000000000000000000000000000000000000000000000000000600052603260045260246000fd5b90600052602060002001549050806008838154811061311c577f4e487b7100000000000000000000000000000000000000000000000000000000600052603260045260246000fd5b906000526020600020018190555081600960008381526020019081526020016000208190555060096000858152602001908152602001600020600090556008805480613191577f4e487b7100000000000000000000000000000000000000000000000000000000600052603160045260246000fd5b6001900381819060005260206000200160009055905550505050565b60006131b883610e88565b905081600660008573ffffffffffffffffffffffffffffffffffffffff1673ffffffffffffffffffffffffffffffffffffffff168152602001908152602001600020600083815260200190815260200160002081905550806007600084815260200190815260200160002081905550505050565b6000808273ffffffffffffffffffffffffffffffffffffffff163b119050919050565b61325983836132aa565b6132666000848484612cfa565b6132a5576040517f08c379a000000000000000000000000000000000000000000000000000000000815260040161329c906141f1565b60405180910390fd5b505050565b600073ffffffffffffffffffffffffffffffffffffffff168273ffffffffffffffffffffffffffffffffffffffff16141561331a576040517f08c379a0000000000000000000000000000000000000000000000000000000008152600401613311906143b1565b60405180910390fd5b61332381612371565b15613363576040517f08c379a000000000000000000000000000000000000000000000000000000000815260040161335a90614251565b60405180910390fd5b61336f60008383612be1565b6001600360008473ffffffffffffffffffffffffffffffffffffffff1673ffffffffffffffffffffffffffffffffffffffff16815260200190815260200160002060008282546133bf9190614700565b92505081905550816002600083815260200190815260200160002060006101000a81548173ffffffffffffffffffffffffffffffffffffffff021916908373ffffffffffffffffffffffffffffffffffffffff160217905550808273ffffffffffffffffffffffffffffffffffffffff16600073ffffffffffffffffffffffffffffffffffffffff167fddf252ad1be2c89b69c2b068fc378daa952ba7f163c4a11628f55a4df523b3ef60405160405180910390a461348060008383612cf5565b5050565b8280546134909061489c565b90600052602060002090601f0160209004810192826134b257600085556134f9565b82601f106134cb57805160ff19168380011785556134f9565b828001600101855582156134f9579182015b828111156134f85782518255916020019190600101906134dd565b5b509050613506919061350a565b5090565b5b8082111561352357600081600090555060010161350b565b5090565b600061353a613535846145d5565b6145b0565b90508281526020810184848401111561355257600080fd5b61355d84828561485a565b509392505050565b600061357861357384614606565b6145b0565b90508281526020810184848401111561359057600080fd5b61359b84828561485a565b509392505050565b6000813590506135b281615187565b92915050565b6000813590506135c78161519e565b92915050565b6000813590506135dc816151b5565b92915050565b6000815190506135f1816151b5565b92915050565b600082601f83011261360857600080fd5b8135613618848260208601613527565b91505092915050565b600082601f83011261363257600080fd5b8135613642848260208601613565565b91505092915050565b60008135905061365a816151cc565b92915050565b60008135905061366f816151e3565b92915050565b600081359050613684816151fa565b92915050565b60006020828403121561369c57600080fd5b60006136aa848285016135a3565b91505092915050565b600080604083850312156136c657600080fd5b60006136d4858286016135a3565b92505060206136e5858286016135a3565b9150509250929050565b60008060006060848603121561370457600080fd5b6000613712868287016135a3565b9350506020613723868287016135a3565b92505060406137348682870161364b565b9150509250925092565b6000806000806080858703121561375457600080fd5b6000613762878288016135a3565b9450506020613773878288016135a3565b93505060406137848782880161364b565b925050606085013567ffffffffffffffff8111156137a157600080fd5b6137ad878288016135f7565b91505092959194509250565b600080604083850312156137cc57600080fd5b60006137da858286016135a3565b92505060206137eb858286016135b8565b9150509250929050565b6000806040838503121561380857600080fd5b6000613816858286016135a3565b92505060206138278582860161364b565b9150509250929050565b60006020828403121561384357600080fd5b6000613851848285016135cd565b91505092915050565b60006020828403121561386c57600080fd5b600061387a848285016135e2565b91505092915050565b60006020828403121561389557600080fd5b600082013567ffffffffffffffff8111156138af57600080fd5b6138bb84828501613621565b91505092915050565b6000602082840312156138d657600080fd5b60006138e48482850161364b565b91505092915050565b6000806040838503121561390057600080fd5b600061390e8582860161364b565b925050602061391f8582860161364b565b9150509250929050565b6000806040838503121561393c57600080fd5b600061394a8582860161364b565b925050602061395b85828601613675565b9150509250929050565b60006020828403121561397757600080fd5b600061398584828501613660565b91505092915050565b600061399a8383613f3e565b60208301905092915050565b6139af816147bb565b82525050565b6139c66139c1826147bb565b614972565b82525050565b60006139d78261465c565b6139e1818561468a565b93506139ec83614637565b8060005b83811015613a1d578151613a04888261398e565b9750613a0f8361467d565b9250506001810190506139f0565b5085935050505092915050565b613a33816147cd565b82525050565b6000613a4482614667565b613a4e818561469b565b9350613a5e818560208601614869565b613a6781614a8d565b840191505092915050565b6000613a7d82614672565b613a8781856146ac565b9350613a97818560208601614869565b613aa081614a8d565b840191505092915050565b6000613ab682614672565b613ac081856146bd565b9350613ad0818560208601614869565b80840191505092915050565b60008154613ae98161489c565b613af381866146bd565b94506001821660008114613b0e5760018114613b1f57613b52565b60ff19831686528186019350613b52565b613b2885614647565b60005b83811015613b4a57815481890152600182019150602081019050613b2b565b838801955050505b50505092915050565b6000613b686020836146ac565b9150613b7382614aab565b602082019050919050565b6000613b8b602c836146ac565b9150613b9682614ad4565b604082019050919050565b6000613bae602b836146ac565b9150613bb982614b23565b604082019050919050565b6000613bd16032836146ac565b9150613bdc82614b72565b604082019050919050565b6000613bf46026836146ac565b9150613bff82614bc1565b604082019050919050565b6000613c176025836146ac565b9150613c2282614c10565b604082019050919050565b6000613c3a601c836146ac565b9150613c4582614c5f565b602082019050919050565b6000613c5d6004836146bd565b9150613c6882614c88565b600482019050919050565b6000613c80601f836146ac565b9150613c8b82614cb1565b602082019050919050565b6000613ca36024836146ac565b9150613cae82614cda565b604082019050919050565b6000613cc66019836146ac565b9150613cd182614d29565b602082019050919050565b6000613ce96045836146ac565b9150613cf482614d52565b606082019050919050565b6000613d0c6020836146ac565b9150613d1782614dc7565b602082019050919050565b6000613d2f6025836146ac565b9150613d3a82614df0565b604082019050919050565b6000613d526029836146ac565b9150613d5d82614e3f565b604082019050919050565b6000613d756018836146ac565b9150613d8082614e8e565b602082019050919050565b6000613d98602b836146ac565b9150613da382614eb7565b604082019050919050565b6000613dbb603e836146ac565b9150613dc682614f06565b604082019050919050565b6000613dde6020836146ac565b9150613de982614f55565b602082019050919050565b6000613e016020836146ac565b9150613e0c82614f7e565b602082019050919050565b6000613e24601d836146ac565b9150613e2f82614fa7565b602082019050919050565b6000613e476018836146ac565b9150613e5282614fd0565b602082019050919050565b6000613e6a6021836146ac565b9150613e7582614ff9565b604082019050919050565b6000613e8d602c836146ac565b9150613e9882615048565b604082019050919050565b6000613eb06031836146ac565b9150613ebb82615097565b604082019050919050565b6000613ed36011836146ac565b9150613ede826150e6565b602082019050919050565b6000613ef6602e836146ac565b9150613f018261510f565b604082019050919050565b6000613f19600e836146ac565b9150613f248261515e565b602082019050919050565b613f3881614805565b82525050565b613f4781614833565b82525050565b613f5681614833565b82525050565b613f6d613f6882614833565b614996565b82525050565b613f7c8161483d565b82525050565b613f8b8161484d565b82525050565b6000613f9d8285613adc565b9150613fa98284613aab565b9150613fb482613c50565b91508190509392505050565b6000613fcc8286613f5c565b602082019150613fdc8285613aab565b9150613fe882846139b5565b601482019150819050949350505050565b600060208201905061400e60008301846139a6565b92915050565b600060808201905061402960008301876139a6565b61403660208301866139a6565b6140436040830185613f4d565b81810360608301526140558184613a39565b905095945050505050565b6000602082019050818103600083015261407a81846139cc565b905092915050565b60006020820190506140976000830184613a2a565b92915050565b600060208201905081810360008301526140b78184613a72565b905092915050565b600060608201905081810360008301526140d98186613a72565b90506140e86020830185613f4d565b6140f56040830184613f4d565b949350505050565b6000610120820190508181036000830152614118818c613a72565b9050614127602083018b613f82565b614134604083018a613f2f565b6141416060830189613f73565b61414e6080830188613a2a565b61415b60a0830187613f4d565b61416860c0830186613f2f565b61417560e0830185613a2a565b614183610100830184613f4d565b9a9950505050505050505050565b600060208201905081810360008301526141aa81613b5b565b9050919050565b600060208201905081810360008301526141ca81613b7e565b9050919050565b600060208201905081810360008301526141ea81613ba1565b9050919050565b6000602082019050818103600083015261420a81613bc4565b9050919050565b6000602082019050818103600083015261422a81613be7565b9050919050565b6000602082019050818103600083015261424a81613c0a565b9050919050565b6000602082019050818103600083015261426a81613c2d565b9050919050565b6000602082019050818103600083015261428a81613c73565b9050919050565b600060208201905081810360008301526142aa81613c96565b9050919050565b600060208201905081810360008301526142ca81613cb9565b9050919050565b600060208201905081810360008301526142ea81613cdc565b9050919050565b6000602082019050818103600083015261430a81613cff565b9050919050565b6000602082019050818103600083015261432a81613d22565b9050919050565b6000602082019050818103600083015261434a81613d45565b9050919050565b6000602082019050818103600083015261436a81613d68565b9050919050565b6000602082019050818103600083015261438a81613d8b565b9050919050565b600060208201905081810360008301526143aa81613dae565b9050919050565b600060208201905081810360008301526143ca81613dd1565b9050919050565b600060208201905081810360008301526143ea81613df4565b9050919050565b6000602082019050818103600083015261440a81613e17565b9050919050565b6000602082019050818103600083015261442a81613e3a565b9050919050565b6000602082019050818103600083015261444a81613e5d565b9050919050565b6000602082019050818103600083015261446a81613e80565b9050919050565b6000602082019050818103600083015261448a81613ea3565b9050919050565b600060208201905081810360008301526144aa81613ec6565b9050919050565b600060208201905081810360008301526144ca81613ee9565b9050919050565b600060208201905081810360008301526144ea81613f0c565b9050919050565b60006020820190506145066000830184613f4d565b92915050565b60006040820190506145216000830185613f4d565b61452e6020830184613f2f565b9392505050565b600060408201905061454a6000830185613f4d565b6145576020830184613f82565b9392505050565b60006060820190506145736000830186613f4d565b6145806020830185613f82565b61458d6040830184613f2f565b949350505050565b60006020820190506145aa6000830184613f73565b92915050565b60006145ba6145cb565b90506145c682826148ce565b919050565b6000604051905090565b600067ffffffffffffffff8211156145f0576145ef614a5e565b5b6145f982614a8d565b9050602081019050919050565b600067ffffffffffffffff82111561462157614620614a5e565b5b61462a82614a8d565b9050602081019050919050565b6000819050602082019050919050565b60008190508160005260206000209050919050565b600081519050919050565b600081519050919050565b600081519050919050565b6000602082019050919050565b600082825260208201905092915050565b600082825260208201905092915050565b600082825260208201905092915050565b600081905092915050565b60006146d382614805565b91506146de83614805565b92508261ffff038211156146f5576146f46149d1565b5b828201905092915050565b600061470b82614833565b915061471683614833565b9250827fffffffffffffffffffffffffffffffffffffffffffffffffffffffffffffffff0382111561474b5761474a6149d1565b5b828201905092915050565b600061476182614833565b915061476c83614833565b92508261477c5761477b614a00565b5b828204905092915050565b600061479282614833565b915061479d83614833565b9250828210156147b0576147af6149d1565b5b828203905092915050565b60006147c682614813565b9050919050565b60008115159050919050565b60007fffffffff0000000000000000000000000000000000000000000000000000000082169050919050565b600061ffff82169050919050565b600073ffffffffffffffffffffffffffffffffffffffff82169050919050565b6000819050919050565b600063ffffffff82169050919050565b600060ff82169050919050565b82818337600083830152505050565b60005b8381101561488757808201518184015260208101905061486c565b83811115614896576000848401525b50505050565b600060028204905060018216806148b457607f821691505b602082108114156148c8576148c7614a2f565b5b50919050565b6148d782614a8d565b810181811067ffffffffffffffff821117156148f6576148f5614a5e565b5b80604052505050565b600061490a82614833565b91507fffffffffffffffffffffffffffffffffffffffffffffffffffffffffffffffff82141561493d5761493c6149d1565b5b600182019050919050565b60006149538261484d565b915060ff821415614967576149666149d1565b5b600182019050919050565b600061497d82614984565b9050919050565b600061498f82614a9e565b9050919050565b6000819050919050565b60006149ab82614833565b91506149b683614833565b9250826149c6576149c5614a00565b5b828206905092915050565b7f4e487b7100000000000000000000000000000000000000000000000000000000600052601160045260246000fd5b7f4e487b7100000000000000000000000000000000000000000000000000000000600052601260045260246000fd5b7f4e487b7100000000000000000000000000000000000000000000000000000000600052602260045260246000fd5b7f4e487b7100000000000000000000000000000000000000000000000000000000600052604160045260246000fd5b6000601f19601f8301169050919050565b60008160601b9050919050565b7f43616e277420626520746865206f776e6572206f662074686520656e6e656d79600082015250565b7f43616e27742064656372656173652074686520616d6f756e74206f6620746f6b60008201527f656e6f6d20737065636965730000000000000000000000000000000000000000602082015250565b7f455243373231456e756d657261626c653a206f776e657220696e646578206f7560008201527f74206f6620626f756e6473000000000000000000000000000000000000000000602082015250565b7f4552433732313a207472616e7366657220746f206e6f6e20455243373231526560008201527f63656976657220696d706c656d656e7465720000000000000000000000000000602082015250565b7f4f776e61626c653a206e6577206f776e657220697320746865207a65726f206160008201527f6464726573730000000000000000000000000000000000000000000000000000602082015250565b7f4552433732313a207472616e736665722066726f6d20696e636f72726563742060008201527f6f776e6572000000000000000000000000000000000000000000000000000000602082015250565b7f4552433732313a20746f6b656e20616c7265616479206d696e74656400000000600082015250565b7f2e706e6700000000000000000000000000000000000000000000000000000000600082015250565b7f596f75722074617267657420697320616c7265616479206669676874696e6700600082015250565b7f4552433732313a207472616e7366657220746f20746865207a65726f2061646460008201527f7265737300000000000000000000000000000000000000000000000000000000602082015250565b7f4552433732313a20617070726f766520746f2063616c6c657200000000000000600082015250565b7f546869732061747461636b20646f6573206e6f74206578697374206f7220686160008201527f7665206e6f74206265206c6561726e65642079657420627920796f757220746f60208201527f6b656e6f6d000000000000000000000000000000000000000000000000000000604082015250565b7f596f757220746f6b656e6f6d20697320616c7265616479206669676874696e67600082015250565b7f7468697320746f6b656e6f6d20646f65736e2774206b6e6f772074686973206160008201527f747461636b000000000000000000000000000000000000000000000000000000602082015250565b7f4552433732313a2061646472657373207a65726f206973206e6f74206120766160008201527f6c6964206f776e65720000000000000000000000000000000000000000000000602082015250565b7f4974277320796f7572206f706f6e656e742773207475726e0000000000000000600082015250565b7f57726f6e67207665727375734964203a20596f75722074617267657420646f6560008201527f73206e6f74206578697374000000000000000000000000000000000000000000602082015250565b7f4552433732313a20617070726f76652063616c6c6572206973206e6f7420746f60008201527f6b656e206f776e6572206e6f7220617070726f76656420666f7220616c6c0000602082015250565b7f4552433732313a206d696e7420746f20746865207a65726f2061646472657373600082015250565b7f4f776e61626c653a2063616c6c6572206973206e6f7420746865206f776e6572600082015250565b7f43616e742068617665206d6f7265207468616e203620546f6b656e6f6d000000600082015250565b7f4552433732313a20696e76616c696420746f6b656e2049440000000000000000600082015250565b7f4552433732313a20617070726f76616c20746f2063757272656e74206f776e6560008201527f7200000000000000000000000000000000000000000000000000000000000000602082015250565b7f455243373231456e756d657261626c653a20676c6f62616c20696e646578206f60008201527f7574206f6620626f756e64730000000000000000000000000000000000000000602082015250565b7f6d696e696d616c2076616c75652063616e27742062652067726561746572207460008201527f68616e206d6178696d616c2076616c7565000000000000000000000000000000602082015250565b7f4d75737420626520746865206f776e6572000000000000000000000000000000600082015250565b7f4552433732313a2063616c6c6572206973206e6f7420746f6b656e206f776e6560008201527f72206e6f7220617070726f766564000000000000000000000000000000000000602082015250565b7f4e6f7420696e2061206669676874000000000000000000000000000000000000600082015250565b615190816147bb565b811461519b57600080fd5b50565b6151a7816147cd565b81146151b257600080fd5b50565b6151be816147d9565b81146151c957600080fd5b50565b6151d581614833565b81146151e057600080fd5b50565b6151ec8161483d565b81146151f757600080fd5b50565b6152038161484d565b811461520e57600080fd5b5056fea26469706673582212208edcbccf31960d8e16a792caa1127f93bdef779b1063d8412080c8802da0076a64736f6c63430008040033",
  "linkReferences": {},
  "deployedLinkReferences": {}
}